:020000040800F2
:10000000F0FF0010ED97060841F20008C5D604087D
:100010008D9806088D9806088D9806080000000047
:100020000000000000000000000000003DF2000899
:1000300039F200080000000035F20008919D040824
:100040008D9806088D9806088D9806088D980608E4
:100050008D9806088D980608C9E70408F5E8040895
:10006000B9E804087DE8040841E80408617C060852
:10007000517C0608417C0608317C06081D7C060878
:10008000097C0608F57B06088D9806088D980608F9
:100090008D9806088D9806088D98060805E80408CE
:1000A000A188040821890408918804084589040866
:1000B0001589040805890408F588040839860608A6
:1000C000418606082D860608358606088D9806089E
:1000D0008D980608A1A10408E5A0040829A0040839
:1000E0008DE704088D9806085D09010881880408D9
:1000F000B188040871880408D5880408E17B0608E3
:100100008D9806087D400608E58804088D98060845
:100110006D9F0408B19E0408E5090408D10904088C
:10012000CD7B0608B97B0608A57B0608917B0608EF
:100130007D7B06088D9806088D9806088D98060820
:100140008D9806088D9806088D980608B9EB00086A
:10015000697B0608557B0608417B0608F59D040867
:1001600021860608298606088D9806088D980608B7
:100170008D9806088D9806088D9806088D980608B3
:080180008D9806088D98060811
:080188009C9306000100000039
:100190000E02010002000000145C0020745C0020CC
:1001A00000000000E809000814020100050000003A
:1001B000403E0020785C002000000000EA090008B2
:1001C0001302010004000000CC240020805C002009
:1001D00000000000F00900080D1001007000000090
:1001E000B85A0020845C002000000000BDFC030819
:1001F0000400080080000000F8590020F45C002092
:1002000000000000000000000902010001000000E1
:10021000A0590020745D002000000000F4090008CF
:10022000FD0101002400000044590020785D0020F9
:1002300000000000336C0408FB0101000100000015
:10024000005900209C5D002000000000AD820508E0
:10025000FC01010009000000CC570020A05D002037
:1002600000000000B5820508F7010100060000004B
:10027000C0570020AC5D002000000000F609000817
:10028000F901010004000000BC570020B45D00200B
:1002900000000000DD6C0408160215003F0000009D
:1002A00060310020B85D0020000000004182050898
:1002B0003400010010000000B0560020F85D00205E
:1002C00000000000299A0208110201000800000045
:1002D00088560020085E002000000000FC0900088D
:1002E000121201000400000080560020105E002061
:1002F00000000000040A000818200100320000007D
:100300004C560020145E0020000000000D8D0508F2
:1003100012200100110000006C550020485E0020F2
:1003200000000000080A0008000201000B000000A5
:10033000A85200205C5E00200000000079830508C0
:10034000FF1101000600000050520020685E0020EE
:10035000000000008D820508081203000F00000055
:100360005C520020705E00200000000081830508C0
:10037000FA01010003000000484C0020805E0020CC
:1003800000000000618305080A80010028000000C9
:10039000104C0020845E0020000000004914020878
:1003A000061001001C00000044310020AC5E00205B
:1003B00000000000F18205080202010003000000B5
:1003C000B8280020C85E00200000000000000000E7
:1003D0000C0201000400000098280020CC5E0020E0
:1003E0000000000051830508110001000C0000000E
:1003F00066400020D05E002000000000FDF40308ED
:10040000FE010100140000006C3F0020DC5E0020B3
:1004100000000000D9830508FD07010078000000F6
:1004200090B4002008B5002000000000A578010865
:10043000261001000E00000090B5002080B50020BD
:10044000000000001D1C01080B3001001A00000014
:1004500048AF0020D0B50020000000001C0A0008B2
:100460001F3001002400000084AE0020ECB5002005
:1004700000000000380A0008050201000400000026
:1004800014B1002010B60020000000005C0A000833
:10049000030101000A000000C8AE002014B60020CD
:1004A00000000000B5160108220201001C01000036
:1004B00074CD002000D0002000000000C58C05088D
:1004C0000C200600CC000000F0CB00201CD1002046
:1004D0000000000051F30308010201000B000000BE
:1004E00094CB0020E8D100200000000069830508BB
:1004F0001B0201001000000068CB0020F4D1002096
:1005000000000000CD8205081B1001000C00000057
:1005100014B8002004D2002000000000197F010858
:1005200021020100F000000094B6002010D200204B
:10053000000000009DA1010823120100100000002E
:1005400070C8002000D3002000000000600A0008EE
:10055000371001002E000000D8CA002010D3002060
:1005600000000000700A00081610010006000000DC
:1005700068C8002040D30020000000009E0A000848
:100580002F10010022000000DCCF002048D3002003
:1005900000000000A40A00081E000100090000007D
:1005A00088C700206CD3002000000000C60A0008A5
:1005B0000510010006000000D4C7002078D30020F9
:1005C00000000000D00A0008F5810100680000006A
:1005D00024B6002080D30020000000001192010802
:1005E000232001001000000014C80020E8D30020E0
:1005F000000000005D150208F62101000C0000005B
:1006000060DF002050E1002000000000D80A000850
:100610001C0202001C00000004DF0020A0E10020FA
:1006200000000000FD8A05082820010018000000D5
:1006300020DF0020BCE1002000000000B12F0208F4
:10064000041201000200000010E10020D4E10020AB
:1006500000000000E40A00080F0201000100000091
:100660000CE10020D8E1002000000000E60A0008AC
:100670001400010004000000FCDE0020DCE100208A
:1006800000000000E80A0008012001000C00000042
:1006900014D70020E0E1002000000000EC0A000870
:1006A0000EF003009E010000FCD40020ECE10020CD
:1006B00000000000719A020813000100040000000D
:1006C000F4DA00208CE3002000000000F80A0008A3
:1006D000010101000400000044D4002090E3002048
:1006E0000000000000000000000101000400000004
:1006F0003CD4002094E3002000000000FC0A000825
:10070000020101000300000038D4002098E300201B
:10071000000000008DF3030819000100050000002F
:10072000C0ED002088EE002000000000000B000853
:100730001A0001000E00000048ED002090EE00209D
:1007400000000000060B0008203201000A00000033
:1007500014EC0020A0EE0020000000004D9A0208DA
:100760001500100070000000ACE90020ACEE002085
:1007700000000000000000002A00080060000000E7
:1007800008EE00201CEF002000000000019A020883
:100790002C000400100000008CEF00207CEF0020F3
:1007A00000000000D99702082B001200240000006E
:1007B000C0EF00209CEF002000000000AD97020871
:1007C00029201400780000004CE70020E4EF00200E
:1007D00000000000000000001902010010000000ED
:1007E00080E600205CF00020000000009D820508EB
:1007F000030001000100000024F4002058F4002050
:100800000000000000000000031201003D00000095
:10081000CCF300205CF4002000000000140B000862
:1008200025201E002C01000030F100209CF4002047
:100830000000000000000000101001000200000095
:10084000C4F00020C8F5002000000000520B000892
:10085000F8210100060000000CF10020CCF500207A
:1008600000000000540B0008020001000C00000012
:1008700068FE0020FCFE00200000000000000000D8
:100880002902010040000000B4F8002008FF002009
:10089000000000005A0B00080A02010014000000CA
:1008A00024F8002068FF0020000000001DF303086A
:1008B0002802040004000000A00301207C050120A0
:1008C00000000000ED82050827020400040000007B
:1008D0009C0301208005012000000000E182050842
:1008E0001F02080010000000F8000120840501200C
:1008F00000000000458205081A0201003C000000CB
:10090000BC00012094050120000000007D8D050839
:1009100038100100010000009CFF0020D0050120DC
:10092000000000009A0B00082700010004000000EE
:100930009406012098070120000000009C0B00088D
:100940000B1201003C000000500901207416012028
:1009500000000000A00B00080D12010014000000B0
:1009600004160120B016012000000000DC0B000876
:1009700007020100020000005C160120C4160120DD
:1009800000000000F00B00081D020200060000003D
:1009900024160120C81601200000000000000000FD
:1009A000060203000C00000030160120D01F0120B9
:1009B00000000000858B05083900010005000000DB
:1009C0003C160120DC1F01200000000031820508D8
:1009D0001002010001000000BC570120B85701209F
:0809E00000000000F20B00080A
:1009E8000000000000FF00000000010000000000FF
:1009F800010000000000000001010101FFFFFFFFEE
:100A080000000001000005533430350000000002EA
:100A180000000000AE014A015E012C0164000200E2
:100A2800000001000A019A01001E0A0000020000ED
:100A380000000000000100000005000001020300A2
:100A4800000000000000000000000000000000009E
:100A58000080070000000000000000000000000007
:100A6800000000000000000020003200C800D0078D
:100A780096001400320028004C044006000550007F
:100A880014000F00080064000100010005000A00BE
:100A98000000F4019600C4090000190000000000DD
:100AA800000000000000000000000000000000003E
:100AB8000000000000000000000000000000000529
:100AC80001000000000000002000030100000000F9
:100AD8000000000001000000020200000000000009
:100AE80003000023E8036400040A000114001E0048
:100AF80000204030900100000000280100007E0521
:100B0800EA05B4053200E803D00700000000000041
:100B180000000000000000000000000000000000CD
:100B280000000000000000000000000000000000BD
:100B380000000000000000000000000000000000AD
:100B48000000000000000000010000050101F401A0
:100B58001400000000000000000000000000000079
:100B6800000000000000000000000000000000007D
:100B7800000000000000000000000000000000006D
:100B8800000000000000000000000000000000005D
:100B9800000000002003000000000000000000002A
:100BA800000000000000000000000000000000003D
:100BB800000000000000000000000000000000002D
:100BC800000000000000000000000000000000001D
:100BD800010000000000000000000000000000000C
:0B0BE8000000000000000000003C00C6
:100BF3000403090412010002EF0201408304563288
:100C0300000201020301000012010002020200407F
:100C1300830440570002010203010800FFFFFFFFA6
:100C2300006002401060024000000000000000006D
:100C3300000B0000000000000000000000000000A6
:100C43000060024028600240010000000000000034
:100C5300060C00000000000000000000000000007F
:100C630000600240406002400200000000000000FB
:100C7300100D000000000000000000000000000054
:100C830000600240586002400300000000000000C2
:100C9300160E00000000000000000000000000002D
:100CA3000060024070600240040000000000000089
:100CB300200F000000000000000000000000000002
:100CC3000060024088600240050000000000000050
:100CD30026100000000000000000000000000000DB
:100CE30000600240A0600240060000000000000017
:100CF30030110000000000000000000000000000B0
:100D030000600240B86002400700000000000000DD
:100D1300362F00000000000000000000000000006B
:100D23000064024010640240000000000000000064
:100D33000038000000000000000000000000000078
:100D4300006402402864024001000000000000002B
:100D53000639000000000000000000000000000051
:100D630000640240406402400200000000000000F2
:100D7300103A000000000000000000000000000026
:100D830000640240586402400300000000000000B9
:100D9300163B0000000000000000000000000000FF
:100DA3000064024070640240040000000000000080
:100DB300203C0000000000000000000000000000D4
:100DC3000064024088640240050000000000000047
:100DD30026440000000000000000000000000000A6
:100DE30000640240A064024006000000000000000E
:100DF300304500000000000000000000000000007B
:100E030000640240B86402400700000000000000D4
:100E13003646000000000000000000000000000053
:100E23007D00000015830008118300080D8300086E
:100E330001830008FD820008098300080583000878
:100E4300000000005D910008E5AD0008D5900008A2
:100E530025AF0008359200088583000871830008D8
:100E6300558300086DA70008498A000861940008AB
:100E7300D5940008559500080D970008410F010807
:100E83005D8300084D830008010000000000803FDF
:100E9300D9380108DD3D010855390108DD0F010886
:100EA300C1110108ED0F010809100108B50F010870
:100EB300A50F010800000000000000000902200047
:100EC300010104C0320904000002080650050705A9
:100ED300810240000007050102400000090264008E
:100EE300030100C0320904000001030000000921CE
:100EF300110100012236000705830309000A080BCC
:100F030001020202010009040100010202010005BD
:100F13002400100105240100020424020205240612
:100F23000102070582030800FF09040200020A0008
:100F33000000070501024000000705810240000090
:100F430009024300020100C0320904000001020249
:100F530001000524001001052401000104240202FC
:100F63000524060001070582030800FF09040100A8
:100F7300020A000000070501024000000705810284
:100F830040000000FF00000000FF00000000000020
:100F93000000AA550701000001AA55050100000839
:100FA300ECDA0608FF1FFF1F05010905A101A100D7
:100FB3000501093009310932093309350934093684
:100FC30009371581257F75089508810205091901DF
:100FD300290815002501950875018102C0C000008C
:100FE30009022200010100E03209040000010301AB
:100FF30002000921110100012236000705830309BC
:10100300000A0000000000000102030401020304BF
:10101300060708092D202D2D202D2D2D2D202D2DBA
:101023002D2D000000000000000000000000000063
:10103300000000AA550B010000AA5505010000AAF3
:10104300550902000000AA5503009F00010000009B
:10105300C0120000C8B5002000000000A0B50020A9
:101063000000000001000000B4830708BC830708E8
:101073000000000015F40308A0860100040000002E
:10108300000000000000000000000000000000005D
:10109300000000000000000000000000000000004D
:1010A3000000000000000000B4830708C4830708A1
:1010B300000000008D7E0408E80300000400000027
:1010C300000000000000000000000000000000001D
:1010D300000000000000000000000000000000000D
:1010E3000000000000000000CC830708000000009F
:1010F30000000000515D03087D000000FF000000B8
:1011030000000000000000000000000000000000DC
:1011130000000000000000000000000000000000CC
:101123000000000000000000FC09080800000000A7
:1011330000000000017503087D000000FF000000AF
:10114300000000000000000000000000000000009C
:10115300000000000000000000000000000000008C
:10116300000000000000000078980708000000005D
:101173000000000025B903087D000000FF00000007
:10118300000000000000000000000000000000005C
:10119300000000000000000000000000000000004C
:1011A3000000000000000000D483070800000000D6
:1011B30000000000BD740408E80300000300000001
:1011C300000000000000000000000000000000001C
:1011D300000000000000000000000000000000000C
:1011E3000000000000000000D88307080000000092
:1011F3000000000019280308102700000300000066
:1012030000000000000000000000000000000000DB
:1012130000000000000000000000000000000000CB
:101223000000000000000000100608080000000095
:10123300B993020879D704085F760000050000001F
:10124300000000000000000000000000000000009B
:10125300000000000000000000000000000000008B
:101263000000000000000000A009080800000000C2
:101273000000000039F504081027000001000000F9
:10128300000000000000000000000000000000005B
:10129300000000000000000000000000000000004B
:1012A3000000000000000000E483070800000000C5
:1012B3000000000005690408E803000005000000C1
:1012C300000000000000000000000000000000001B
:1012D300000000000000000000000000000000000B
:1012E3000000000000000000F08307080000000079
:1012F3000000000025FB0308204E0000030000004F
:1013030000000000000000000000000000000000DA
:1013130000000000000000000000000000000000CA
:101323000000000000000000008407080000000027
:10133300000000000DF90308204E00000300000028
:10134300000000000000000000000000000000009A
:10135300000000000000000000000000000000008A
:1013630000000000000000001084070800000000D7
:1013730000000000D17A0408400D030003000000C0
:10138300000000000000000000000000000000005A
:10139300000000000000000000000000000000004A
:1013A3000000000000000000208407080000000087
:1013B300000000008931040810270000010000002C
:1013C300000000000000000000000000000000001A
:1013D300000000000000000000000000000000000A
:1013E300000000000000000028840708000000003F
:1013F3000000000035AE01081027000003000000C4
:1014030000000000000000000000000000000000D9
:1014130000000000000000000000000000000000C9
:1014230000000000000000002C84070800000000FA
:1014330000000000156B0208A086010001000000F7
:101443000000000000000000000000000000000099
:101453000000000000000000000000000000000089
:1014630000000000000000003484070800000000B2
:10147300000000004573040850C300000100000091
:101483000000000000000000000000000000000059
:101493000000000000000000000000000000000049
:1014A30000000000000000003C840708000000006A
:1014B3000000000015710408A08601000000000070
:1014C3000000000000000000000000000000000019
:1014D3000000000000000000000000000000000009
:1014E300000000000000000048840708000000001E
:1014F30000000000FD6C0408A8610000010000006A
:1015030000000000000000000000000000000000D8
:1015130000000000000000000000000000000000C8
:1015230000000000000000005484070800000000D1
:1015330000000000F1060208A0860100010000007F
:101543000000000000000000000000000000000098
:101553000000000000000000000000000000000088
:101563000000000000000000608407080000000085
:101573000000000049A60408A00F000001000000BD
:101583000000000000000000000000000000000058
:101593000000000000000000000000000000000048
:1015A30000000000000000006C8407080000000039
:1015B30000000000ED0102081027000001000000F8
:1015C3000000000000000000000000000000000018
:1015D3000000000000000000000000000000000008
:1015E30000000000000000007884070800000000ED
:1015F300000000004DF40308A00F000001000000EC
:1016030000000000000000000000000000000000D7
:1016130000000000000000000000000000000000C7
:1016230000000000000000008484070800000000A0
:10163300000000004DDD0108050D00000100000061
:101643000000000000000000000000000000000097
:101653000000000000000000000000000000000087
:10166300000000000000000088840708000000005C
:1016730000000000ED160108102700000100000023
:101683000000000000000000000000000000000057
:101693000000000000000000000000000000000047
:1016A3000000000000000000948407080000000010
:1016B300000000001D46020850C3000001000000A6
:1016C3000000000000000000000000000000000017
:1016D3000000000000000000000000000000000007
:1016E30000000000000000009884070800000000CC
:1016F3000000000035200108400D03000000000039
:1017030000000000000000000000000000000000D6
:1017130000000000000000000000000000000000C6
:101723000000000000000000A08407080000000083
:10173300000000001DF50308400D03000000000039
:101743000000000000000000000000000000000096
:101753000000000000000000000000000000000086
:101763000000000000000000A8840708000000003B
:1017730000000000D5EB010850C300000300000087
:101783000000000000000000000000000000000056
:101793000000000000000000000000000000000046
:1017A3000000000000000000B484070800000000EF
:1017B300000000005D0E040840420F00000000001E
:1017C3000000000000000000000000000000000016
:1017D3000000000000000000000000000000000006
:1017E3000000000000000000C084070800000000A3
:1017F30000000000E1FF030850C3000000000000E8
:1018030000000000000000000000000000000000D5
:1018130000000000000000000000000000000000C5
:1018230000000000000000000100000000000100B3
:10183300E0010000FFFFFFFF01007EFFFFFFFFFF4E
:101843000800000042570200000001064257020050
:101853000000010601FFFF00FFFFFFFF0100000082
:101863005D0A0208000000000000000028E50608E9
:10187300BCD8002010D9002001010000E124020897
:10188300092302080000000080FD0608C91F0208A2
:101893000000000000000000E4FC060881250208A7
:1018A30000000000000000009CFC0608000000008F
:1018B30000000000000000004CFB060800000000D0
:1018C300000000000000000004FC06080000000007
:1018D3000000000000000000B0FB0608000000004C
:1018E30000000000E5210208B9DA0020FF2D202DB9
:1018F3002D202D2D2D2D202D2D2D0000000000003D
:10190300000000000000000000000000FFFFFFFFD8
:10191300712802080000000000000000DCFA06083D
:1019230001000000FA0000000100000001000000B7
:101933000100000000010101000000000ED700209B
:101943000000F401010000000CD700200000F401A6
:10195300010000000AD700200000F401010000008C
:1019630008D700200000F4010100000006D7002082
:101973000000F4010100000004D700200000F4017E
:101983000100000002D700200000F4010100000064
:10199300991202085D1202080000000050E70608D1
:1019A300F2D600200532010000D700206400F401C4
:1019B30001000000FED600206400C40901000000FD
:1019C300F0D60020E803D00701000000EED6002087
:1019D300E803D00701000000ECD60020E803D0079D
:1019E30001000000EAD600201E00B80B0100000031
:1019F300F8D6002005000F0001000000FAD60020F1
:101A030003000A0001000000E8D600201E00F401D4
:101A130001000000FCD6002002000000DCE70608FD
:101A2300E6D600201400640001000000F4D6002074
:101A33003200E80301000000E4D600200000C800E3
:101A430001000000BDD6002000C80100BCD6002064
:101A530000500100BBD60020005A0100B9D6002077
:101A630002000000E8E70608C08F0708C88F0708D0
:101A73004E5B00200100C409000000004C5B002005
:101A83000100C409000000004A5B00200100C409F2
:101A930000000000485B00200100C40900000000B2
:101AA300445B00200100C40900000000465B0020E5
:101AB3000100C40900000000425B00200100C409CA
:101AC30000000000405B00200100C409000000008A
:101AD30063D4002000C8010062D4002000C80100C4
:101AE30060D400200000FFFF0A0000005ED4002045
:101AF3000100C800010000005CD4002032003075F2
:101B0300320000005AD400207EFF140005000000BC
:101B130058D4002005002C010500000056D40020F5
:101B2300055A050053D4002000FF010055D40020BE
:101B3300020000000010002051D400200300000028
:101B43000CDD060852D4002000FF010054D400200D
:101B5300020000000010002050D400200300000009
:101B63000CDD0608ED1102087D11020800000000DB
:101B7300F4E7060824D70020EE02CA08010000009B
:101B830022D7002000C801006400000021D70020F4
:101B930000C801006400000020D7002002000000FC
:101BA30000E906084AD400200000803E050000003A
:101BB30048D4002080C1803E0500000042D40020AC
:101BC3000083007D0500000040D4002080C1803EDA
:101BD300050000003BD4002000FF010034D40020A6
:101BE3006400F4010100000032D40020040000006E
:101BF3000CE9060831D400200200000020E90608A1
:101C0300EBD400200D0000002CE90608E8D40020E6
:101C130000640100E6D40020320010270A0000000F
:101C2300E4D400200D0000002CE90608E3D40020D2
:101C33000D0000002CE90608E2D400200200000099
:101C430064E9060800000000000000000000000036
:101C530070E906082AD700203E000000A8E906081C
:101C630028D700200100FF7F0100000027D70020B4
:101C730002000000A4EA0608EDD4002003000000DF
:101C8300B4EA0608ECD4002003000000B4EA060816
:101C9300AAD60020000A0100A8D600200000E8030D
:101CA30001000000A6D600200000E80301000000A8
:101CB300A4D600200000E80301000000A2D6002003
:101CC3000000E803010000009AD600200000E803AA
:101CD30001000000A0D600200000E803010000007E
:101CE3009ED600200000E803010000009CD60020DF
:101CF30000140100B8D6002002000000C4EA060860
:101D0300B6D600200000F40101000000B4D6002084
:101D13000000F40101000000B2D600200000F4012D
:101D230001000000B0D600200000F4010100000013
:101D3300AED600200000A00F01000000ACD60020AA
:101D43000000A00F01000000D1D60020196401009B
:101D5300D0D6002002000000D0EA0608CED600202C
:101D6300E803D0070A000000CCD60020006401007D
:101D73000A000000C1D6002000640100C0D6002084
:101D830000640100C8D60020006401000A000000BE
:101D9300C7D60020006401000A000000C6D6002058
:101DA300006401000A000000CBD6002000FF010000
:101DB3000A000000CAD6002000FF01000A0000004C
:101DC300C9D6002000FF01000A000000C5D600208C
:101DD30001FF01000A000000C4D6002001FF01003A
:101DE3000A000000C3D6002001FF01000A00000022
:101DF300F6D400200000F40101000000F4D4002018
:101E03000000A00F01000000F2D400200000A00F8A
:101E130001000000F0D400200000A00F010000002A
:101E2300EED400200000A00F0100000009DB002019
:101E330000C8010008DB00200064010007DB00206C
:101E43000064010006DB00200064010005DB0020C4
:101E53000064010004DB0020FF08010003DB002015
:101E630001640100E5100208A91002080000000047
:101E7300DCEA06080CDB0020013201000BDB00204A
:101E8300010000004CEB06080ADB00200400000000
:101E930054EB060802DB00200064010000DB002095
:101EA3001400E80301000000FEDA0020E8033075A7
:101EB3000A000000FCDA002000C80100FBDA002061
:101EC30000C80100FADA002000C80100F9DA002096
:101ED300003201000EDB0020004B01000DDB00206F
:101EE3000400000068EB0608F8DA00200064010033
:101EF3000A0000001CDB00200000D00701000000E6
:101F030017DB002000C8010016DB002000C8010019
:101F130015DB002000C801001ADB00200000D007F9
:101F23000100000014DB002000C8010013DB0020C7
:101F330000C8010012DB002000C8010018DB0020EC
:101F43000000D0070100000011DB002000C80100E1
:101F530010DB002000C801000FDB002000C80100D7
:101F63009D0E0208850E0208000000007CEB0608A7
:101F7300DFD40020005A0100DED4002000C8010095
:101F8300DCD40020E803D0070100000000000000BB
:101F9300000000002522020818EC060853544D33B4
:101FA30032463430350000004FD4002000030100D6
:101FB3004ED4002000030100C10D0208750D020874
:101FC300000000006CEC0608350D0208ED0C020859
:101FD3000000000008ED06080D0E0208552802084F
:101FE3000000000088ED06084CD400200103010026
:101FF300751302084913020800000000ECF00608FC
:10200300750C02082D0C0208000000005CF10608A4
:10201300AD0E0208A929020800000000F8F1060825
:10202300712D0208A113020800000000A0F20608A7
:10203300FD0E020800000000000000002CF306085B
:10204300D90F0208810F02080000000090F3060870
:102053006D100208311002080000000038F4060871
:10206300158802082111020800000000C4F40608C4
:10207300E3D6002001060100450F0208110F0208F4
:1020830000000000C0F5060849870208752A020807
:102093000000000030F606085D8802083D2B0208A8
:1020A3000000000080F70608E2D6002001030100CB
:1020B300550E0208250E02080000000054F8060819
:1020C300B58802080000000000000000B8F8060808
:1020D300BD0C02083D2802080000000038F906087C
:1020E300000000000000000000000000C4F9060822
:1020F30055110208B52B02080000000034FA060847
:102103000000000000000000000000004CFC060876
:10211300C0B000209CFF2C0100000000B0D90020BB
:10212300E0150C1700000000B2D9002002000000E7
:1021330084FC06082DD400200200000090FC060851
:1021430028D4002088136F17010000002AD4002030
:1021530088136F1700000000925B0020000000004E
:1021630000000000905B0020000000000000000061
:102173008E5B002000000000000000008C5B00204C
:1021830000000000000000008A5B00200000000047
:1021930000000000885B0020000000000000000039
:1021A300E80500200000000000000000F8D3002034
:1021B30003000000E4FD060820D4002088136F17F5
:1021C300010000000AB1002088136F17000000000F
:1021D300110B02080000000000000000F4FD0608D7
:1021E300FDD900200100000048FE06080CB10020C4
:1021F3000100000054FE060802B1002002000000A6
:102203005CFE060800000000000000000000000063
:1022130068FE0608FD0A0208000000000000000036
:1022230004FF06080000000000000000000000009A
:1022330058FF060800000000000000000000000036
:10224300C8FF06082CD40020020000000000070885
:1022530006B10020E0150C1700000000D6010101B3
:10226300FFFFFFFF0000803F0000000000000000B0
:10227300000000000000000000000000000000005B
:102283000000000000000000000000000000803F8C
:102293000000000000000000000000000000803F7C
:1022A3000000000000000000000000000000803F6C
:1022B300000000000000000000000000010000001A
:1022C3000000FA430000FA430000803F99330408FA
:1022D300000000000000000000000000FFFFFFFFFF
:1022E300FF0000000000000058FF0020080000006D
:1022F3000000000048FF00200800000031380108FA
:10230300D1100108C937010800000000A10F01081E
:10231300B1400108193701086533010800000000C6
:1023230000000000610F01082583000819830008DD
:10233300619000087D9000084590000829900008EE
:102343000D900008E9370108AD1001081D37010899
:1023530000000000790F010869330108ED36010818
:10236300C532010800000000000000006D0F0108E5
:10237300685E0C00FFFFFFFF02010000A00F0000DA
:10238300B80B000002FFFF01FFFF0000040608086E
:102393000000080205030300000000000C06080803
:1023A30001000802050403000000000094AD0708C3
:1023B3000200FE010110030000000000289307083B
:1023C30003001402000300000000000014060808C4
:1023D30004001F0202000800000000001C06080899
:1023E30005001F020201080000000000FFFFFFFFBD
:1023F3001A030000000000000000000000000000BD
:1024030000000000000000000000000004030904B5
:102413001201000200000040830420570002010261
:1024230003010B00ED930508C193050865930508A7
:10243300458405088193050825930508418405080B
:10244300E01A0020DD940508FD940508CD940508E5
:102453002584050889940508419405081584050811
:10246300BC1A0020F98D05082D8405082984050868
:1024730021840508498E05081D840508198405086B
:10248300685607084D4001088D1001082D3F0108CB
:102493000000000000000000C5360108D535010822
:1024A300000000000000000000000000550F0108BC
:1024B300CD840508C18405081595050869950508A7
:1024C300798405084D95050831950508010000003C
:1024D300FFFFFFFF0100000050C3000001010000E7
:1024E3001F0000001C0000001F0000001E00000071
:1024F3001F0000001E0000001F0000001F0000005E
:102503001E0000001F0000001E0000001F0000004E
:102513000068214C012500000853070808600708DC
:10252300041B0020008002021F00000053544D20B2
:102533002020202050726F647574202020202020DA
:1025430020202020302E3031008002021F000000A6
:1025530053544D202020202050726F647574202026
:102563002020202020202020302E3031B3160108D7
:10257300AF160108A7160108911401089D1F010851
:10258300C91F0108F91E01089D1601088D160108CF
:102593007D1601086D16010889140108FF0100006A
:1025A300F4010000FF00000000000401000000002F
:1025B30000000002100000000700000000000000FF
:1025C30000000000010203040607080901000000DF
:1025D3006C1B002000000000000000000000000051
:1025E30000000000000000000000000000000000E8
:1025F30000000000000000000000000000000000D8
:1026030000000000000000000000000000000000C7
:1026130000000000000000000000000000000000B7
:1026230000000000000000000000000000000000A7
:0426330000000000A3
:0828000000C00F0800001008E1
:10800000F0B401292A4C2B4D23684FF0000694BF91
:1080100000270127EE626662A6626763676B47EA24
:1080200042076763EE63EC6B002A38D144F4957421
:10803000EC631C6824F001041C601C68E407FCD499
:10804000490289085960D8601968EAB921F04001ED
:10805000196019498B421DD018494FF47410C8603B
:10806000196841F01E011960596941F08001596198
:10807000196841F00101196022B90E4AD36A43F030
:108080000803D362F0BC704741F0400119600A490F
:108090008B42E1D14FF0746041F8500CE0E744F0BE
:1080A0001A04EC63EC6A44F00804EC62C1E700BF18
:1080B000D01B0020002C01405864024000640240A4
:1080C0001148002302461178032902F1060216D056
:1080D0000133062BF7D10D4AD36D052B0ED0591C59
:1080E00003EB4303D16500EB4303032040F2EB3184
:1080F00040F2FF32187059809A807047704703EB46
:10810000430300EB4303F0E7081C0020D01B0020D2
:1081100070B4C3080D4CE25C00F00706B24004EBFB
:10812000D004D2B20020C6F108038B4228BF0B4610
:10813000C3F108052A419840C91A40EA02004FF0ED
:10814000000614F8012FEED170BC7047701C00209F
:10815000084AD2E9343199420AD0D118013391F852
:10816000D8100170C3F30A03C2F8D0300120704761
:1081700000207047D01B0020064AD2F8D838D2F829
:10818000DC28934294BF4FF400600020013B9B1A0F
:1081900018447047D01B0020012380F851307047ED
:1081A00007B501A8FFF7D4FF0028FAD09DF8040016
:1081B00003B05DF804FB044BD3E93403984288BF55
:1081C00003F50063181A7047D01B00200120704788
:1081D000024BC3F8E028C3F8E4187047D01B002016
:1081E000024BC3F8E828C3F8EC187047D01B0020F6
:1081F0007047704730B4134DD5E934239A4286BF97
:1082000003F50064A21A9A1A0A44B2F5006F13D853
:10821000A9B101444A1E013810F8014FE918824201
:1082200003F1010381F8D840C3F30A03F4D1C5F880
:10823000D430002030BC7047022030BC7047084664
:10824000F8E700BFD01B0020212838B50C4605D028
:1082500022282ED0202813D0002038BD0029FBD0A2
:10826000072AF9D11A4BD3F8F00893F8F41893F8C9
:10827000F52893F8F638206021716271A371EBE75D
:108280000029E9D0072AE7D1114DD5F8E4381BB110
:108290000968D5F8E0089847206821796279A379C0
:1082A000C5F8F00885F8F41885F8F52885F8F6384B
:1082B000D2E70029D0D0022ACED1054AD2F8EC3834
:1082C000002BC9D00988D2F8E8089847C4E700BF56
:1082D000D01B0020024B0020C3F8F808704700BFF5
:1082E000D01B0020044B00200522C3F8F828C3F857
:1082F000EC08C3F8E4087047D01B0020704700BFAB
:10830000704700BF704700BF704700BF704700BF95
:10831000704700BF704700BF042301480B807047BF
:108320008801002010B4074A074B92F8FC08122479
:1083300003F114020C8001280CBF184610465DF8AA
:10834000044B7047D01B00208C0100200048704770
:10835000581C002000487047581C0020034B93F81D
:108360008400032894BF002001207047D01B002008
:10837000034B93F88400032894BF0020012070472A
:10838000D01B0020034B93F88400003818BF012055
:10839000704700BFD01B0020A0B182680D4B12B106
:1083A00007229A7070471978DA6003294FF00400A9
:1083B0000CBF80214FF48071C3E901111A611A7555
:1083C00098707047034B41F2E47101225A545A707D
:1083D000704700BFF08E00200378022B10D0006998
:1083E00008B9012070470C4B1B78032B0EBF0B4BB9
:1083F00080B24FF6F773984294BF00200120704777
:108400000549436841F650028A58B3EB422F2CBF0E
:1084100001200020704700BFF08E0020F7FFFF0F03
:108420000378022B14D030B4104A4368006941F637
:10843000480402F5C2511559096841F63C042B4025
:1084400012595B0A023801FB0030104430BC7047FF
:10845000064B426841F6340141F63000595818582D
:1084600000EB410000EB5220704700BFF08E00206F
:108470000E4B70B5D3F8BC4041F0BAFBA38905465A
:1084800042F20F7623899B0705D52046FF21BDE8E0
:1084900070405FF0EDBB41F0ABFB401BB042F1DD43
:1084A000204646F057FCC0B270BD00BFD01B002074
:1084B00070B505460E460924FFF7DAFFFF2803D101
:1084C000013CF9D1012070BDFE2801D0022070BD11
:1084D000064933462A46D1F8BC0000215FF012FC61
:1084E000FFF7C6FFFFF7C4FF002070BDD01B0020C0
:1084F0002DE9F04383B040F040060C0E05460A0A11
:10850000080C95238DF801408DF804108DF800605B
:108510008DF802008DF803208DF805300824FFF750
:10852000A7FFFF2802D0013CF9D125BB1E4BD3F891
:10853000BC40A3890627E84642F20F76B8F1000F47
:1085400030D018F8015B41F053FB814623899A072C
:1085500015D5ADB2A58141F04BFB05462389DB075C
:1085600017D5013FA389E9D10924FFF781FFFF282F
:1085700002D1013CF9D1FF2003B0BDE8F08341F006
:1085800037FBA0EB0900B042E0DD204646F0E2FBFD
:10859000EAE741F02DFB401BB042DFDD204646F00C
:1085A000D9FBE1E7FF25CEE7D01B0020F8B5194F36
:1085B0000023C7F88030FFF75BFFD7F8BC4041F0DD
:1085C00017FBA389054642F20F7623899B0710D536
:1085D0002046FD215FF04CFBFFF74AFFFF2811D139
:1085E000FFF746FFFF280DD10423022087F88430CF
:1085F000F8BD41F0FDFA401BB042E6DD204646F0F2
:10860000A9FBE9E7D7F800397B670923002087F841
:108610008430F8BDD01B00202DE9F041684C0023C8
:108620004FF4F0722021064604F6081084F804394D
:1086300064F055FC04F6E8204FF4F072202164F059
:108640004EFC94F8C90C10B194F8CA2C1AB9002544
:108650002846BDE8F08144F017FD0746C4F8D40C65
:1086600044F0E6FF05460028F1D00FB12323FB803C
:108670000921384640F09AFDD4F8D40C514F44F00B
:10868000F9FF94F8CA0C013840B246F0A5FC022369
:10869000102184F8CC3CC4F8D00C5FF001FB798D3C
:1086A000494846F00DFBD4F8D40C44F0DDFFFF211F
:1086B0008C2059F005FE8046D4F8D40C44F0DAFF43
:1086C000D4F8D00C04215FF0EBFAB8F11B0F05D001
:1086D000D4F8D40C202140F069FDB8E7D4F8D43C9C
:1086E000012284F804290BB12322DA80798D3648DF
:1086F00046F0E6FAD4F8D40C44F0B6FF40210A2044
:1087000059F0DEFDFF218A2059F0DAFDC0F3801315
:10871000D4F8D40C84F8D83C44F0ACFFD4F8D00C96
:1087200004215FF0BDFA94F8C83C012B3FD0022B26
:1087300037D0CBB394F8D93C182B08D194F8D82C67
:108740007B8DA4F8DC6CA4F8DE2CA4F8E03C798DD9
:108750001D4846F0B5FA798D1B4846F0B1FAD4F8B9
:10876000D40C44F081FF0221002059F0A9FDD4F877
:10877000D40C44F07FFF0421D4F8D00C5FF090FAC1
:1087800094F8E92C94F8EA3C94F8E81C84F8E41C8A
:10879000C2F12002C3F1100384F8EB2C84F8EC3C06
:1087A00056E708237B85C5E710237B85C2E7002EAB
:1087B000F7D094F8D83C002B14BF08231023F1E71E
:1087C000D01B0020880100209C2800202DE9F84FB4
:1087D000564B984210D003F568530833984267D03F
:1087E000534B0020A3F8480DA3F8540DC3F84C0DCB
:1087F000C3F8500DBDE8F88F4D4C4E4E02224FF09D
:10880000000BC4F8F02C04F6F445D9464FF4007A76
:108810004FF48078F26A01275A455946BB4403D089
:10882000D4F8640D54F04AFA94F8682D85F82420A1
:10883000D4F8640DA5F804A04FF000724FF4803115
:10884000A960EA60A5F8108085F81290A5F8068066
:108850002F762862B72154F027FCD4F8F02C364B41
:108860006F76934545F8283BD4DB84F8569DD4F8C1
:10887000F01CB4F8F82CD4F8003DD4F8FC0CB4F893
:10888000045DC4F86C3D12FB01F203FB01F3A4F894
:10889000482DB4F8FA1C294AC4F84C0DC4F8503DD0
:1088A000A4F8545DA4F84A1DC4F8442D0120A1E7A2
:1088B0001F4C204E0223C4F8F03C04F6F4454FF060
:1088C000000B4FF4806A4FF040094FF40068F26AE1
:1088D00001275A455946BB4403D0D4F8640D54F0DF
:1088E000EDF9D4F8641D94F8682D296285F82420E8
:1088F0004FF400314FF00062C5E90212A5F804A060
:10890000A5F81090A5F80680AF74FFF7D9FB2846AC
:108910006F7654F01BFBD4F8F02C094B45F8283B3C
:108920009345D4DB84F8567DA1E700BF1971EF00B1
:10893000D01B00208801002080CF0608D8CF060871
:10894000ACCF0608F8B51A4C94F8703D002BFBD15B
:1089500059B301444E1E451ED4F8DC28D4F8D8186B
:1089600015F8017F531CC3F30A038B422CBF4FF44D
:1089700000600020C91A22440144012982F8747D54
:10898000C4F8DC380FD1012041F05EF9D4F8D838B2
:10899000D4F8DC188B4294BF4FF4006200225B1ABB
:1089A0001344012BEFD0B542D6D10020F8BD00BF53
:1089B000D01B002010B5094CD4F8F83808461146F1
:1089C0005BB1D4F8F838052B07D1002AD4F8003968
:1089D00003DDFFF7B7FFD4F8003910BDD01B00202E
:1089E00010B590F85010002380F8503081B10B4C36
:1089F000D4F8F82872B1D4F8F828052A0CD13C3004
:108A0000D4F80039FFF79EFFD4F80039012010BDDB
:108A10000120FCE71046FAE71846F8E7D01B0020D3
:108A2000002280F85120DBE790F85020531C0244CC
:108A3000DBB280F8503082F83C1090F851200AB137
:108A4000132B00D9CCE770472DE9F8434379534DF8
:108A5000002B14BF0122002285F8B02003D185F835
:108A60008430BDE8F88390F8018008F1FF3676B2D3
:108A7000044630460F4646F0AFFA0223C5F8BC0064
:108A800085F8B8302378002B63D1E478002C54D1DA
:108A90004FF48071D5F8BC00C5F8C0405FF000F914
:108AA0004FF47A7041F0D0F8D5F8C00044F0E2FD00
:108AB000D5F8BC404FF00A08A38942F20F764FF078
:108AC000FF090BE0A4F80C9041F092F807462389C7
:108AD000D9072CD5B8F10108A3890DD041F088F849
:108AE000074623899807EDD441F082F8C01BB042B5
:108AF000F7DD204646F02EF9D5F8BC10284B0A8940
:108B000092070AD50A8912F0800206D1D5F8001919
:108B100085F8782001236967A1E7013BEFD195F83B
:108B2000782085F88430531C85F8783099E741F037
:108B30005FF8C01BB042CADDDBE7204644F0A4FA70
:108B4000044608B11E23C3800921204640F02EFBB5
:108B50009EE706EB86063E44414696F90320002038
:108B600041F004FD064630B140685DF089FDB36810
:108B700085F8CE3018B9002385F8C43085E7094A56
:108B8000431E02EB431317210022C5F8C8305DF0E5
:108B900089FD012385F8C43077E700BFD01B002092
:108BA000A1860100B80100202DE9F04FCF4DDFF87C
:108BB0007083DFF8789384460F4616460FCD4446FF
:108BC0002DED068B0FC40FCD0FC495E807008BB0B9
:108BD00099F87E34029684E80700CDE906C7042B95
:108BE00000F25C81DFE813F0BD015A015501050078
:108BF000CD019FEDBF8ADFEDBF8ABF49C8F81C10C9
:108C0000BE49BF4BBF4AC8F818100299002918BFC7
:108C1000134638EE887AF5EE006A86EE87AAC8F821
:108C20002430B94FB94B03930026DFEDB97A9FED9D
:108C3000B99A28EE278AF0EE679A079BB34200F0B4
:108C40002281039B13F8014B039306F1010B5FFA9A
:108C50008BF2002C00F09881DFF8D4C2002303E0EF
:108C60000133152B00F0908103EB43015D001CF8EC
:108C70000100A042F4D14944049291F899140029CA
:108C800000F08A81204640F067F803680593824629
:108C9000184640F04DF89AF8051040F07DF890F82D
:108CA00000C0BCF1000F40F06F8109EB0500250901
:108CB000013D049A80F8D9240321052D80F8D814A9
:108CC000059B04F00F0000F23781934C04EB450C38
:108CD000BCF8B0C04CFA00FE1EF0010E00F03E8160
:108CE000012303FA00F0013800EA0C002544049245
:108CF00060F004FC95F8BC50DFF838C2049A2844B0
:108D00000CEBC0050321A971EA715CF830007D61AC
:108D100000F13F4101F57E0104EB9124012394F819
:108D2000C4109AF8082001F01F044909032903FA26
:108D300004F300F00E81042900F00681022900F0FE
:108D4000FE80AB880893B3FA83F3C3F11F03C3F328
:108D5000CC0100EB810103F007030C6A9B000F2597
:108D60009D4024EA05040C620C6A02FA03F32343D3
:108D70000B62022308A909930BF0E2FCDAF8003039
:108D8000029A002A00F0A280B9F87C2400EE102A92
:108D9000B8EEC00AFCEEC07A17EE901A5F4A934212
:108DA00000F08180A2F5806293427CD002F580427F
:108DB000934278D002F58062934274D002F58062CB
:108DC000934270D0D9F8042850084FF6FF73B0FBD7
:108DD000F1F21A44120CB0FBF2F20298002865D0AE
:108DE000B2FBF1F199F87E0404288BB263D007EE50
:108DF000902AF8EE676A66EE887A29EE677A99F823
:108E00007F0406990091A6EEA87A01905146384653
:108E1000C7ED027A87ED037A37F0CCFA002E60DDD9
:108E20007B68D8F8382093425DD0012E59D0D8F80D
:108E30005020934257D0022E53D0D8F86820934246
:108E400051D0032E4DD0D8F8802093424BD0042E21
:108E500047D0D8F89820934245D0052E41D0D8F875
:108E6000B02093423FD0062E3BD0D8F8C820D31A6A
:108E700018BF01235E460122082E3B747A7407F165
:108E800018077FF4DAAE26480BB0BDEC068BBDE8C0
:108E9000F08F9FED248AF0EE488AAEE69FED228A9D
:108EA000F0EE488AA9E6D9F804088EE799F87E041E
:108EB000042819469BD107EE901A07EE102AF8EE07
:108EC000677AF8EE476A67EEA97A96E7B0EE4A0A43
:108ED000049361F059FCFCEEC07A049B17EE901AE3
:108EE0005CE70123C6E70023C4E700BF04D00608FF
:108EF000ACC5A737ACC5A736E1F80308C96C0408B0
:108F0000F9EE0308BD6C0408480000104B31002046
:108F10006F12833A00007A4480CF060800040140B3
:108F200014000010282930386F120339C82C002093
:108F300060310020CC310020C7F814C020E7174969
:108F40004C6C23434B64FCE614490C6B23430B63CA
:108F5000F7E612490C6C23430B64F2E6C7F814E001
:108F60000EE79FED0F8A0F4BC8F8183000230E4A0A
:108F7000069301230293C8F81C200C4BF0EE488A9C
:108F800047E69FED0B8AEEE70A4A084BC8F81C201B
:108F9000C8F82430002077E70B68FFDE0038024075
:108FA0006F12833AC96C0408E1F80308BD6C040829
:108FB00000000000F1F10308F8B5114ED6F804489E
:108FC000054600680F4664080BF0BEFAB4FBF7F1E3
:108FD000B1F5803F03D3012CFAD96408F6E72246A5
:108FE000284689B23FF036FD41F26C03054AF25043
:108FF00028460549BDE8F84000223FF0ABBC00BF61
:10900000C82C002015FD0108343D002010B5044C8B
:1090100004480A4621460AF0D9F8204610BD00BF90
:109020003C3D0020CC82070810B5044C04480A4699
:1090300021460AF0CBF8204610BD00BF3C3D002081
:10904000DC82070810B5044C04480A4621460AF0A1
:10905000BDF8204610BD00BF3C3D0020E882070857
:1090600010B5044C04480A4621460AF0AFF82046E1
:1090700010BD00BF3C3D0020F482070810B5044C31
:1090800004480A4621460AF0A1F8204610BD00BF58
:109090003C3D00200083070810B50C4C94F8CD200F
:1090A0000023C4F880300AB1094AD3675BF046F860
:1090B00020B10423022084F8843010BDD4F8003994
:1090C0006367092384F8843010BD00BFD01B0020E3
:1090D000C03D002070B50D4D95F88430042B04463A
:1090E0000E460AD0082B06D1EB6F83420CD0FFF757
:1090F000D3FF022801D0012070BD0823C5E91F4617
:1091000085F88430022070BD022070BDD01B002085
:1091100010B50AF02FF8104C58B194F88430032B96
:1091200012D894F878300133DBB2072B84F878300A
:1091300003D9002384F8843010BDD4F80039636764
:10914000012384F8843010BDD4F8BC004FF4807142
:109150005EF0A6FDE5E700BFD01B002070B54379A7
:10916000234C002B14BF0123002384F8B03003D11B
:10917000002384F8843070BD1E4D002195F98320B2
:10918000032041F0F3F90028F2D0466830465DF044
:1091900077FA84F8CC000028EAD095F88130003BBB
:1091A00018BF0123304684F8CD305AF09BFB09F0FC
:1091B000E1FF38B994F8783084F88400013384F8FA
:1091C000783070BD5BF0A4F840B194F8783000229C
:1091D000013384F8783084F8842070BDD4F80029F5
:1091E00084F878000123626784F8843070BD00BF82
:1091F000D01B0020C03D002010B55BF089F858B1AD
:109200000B4C94F878300133DBB2072B84F87830BC
:1092100003D9002384F8843010BD09F0ABFF002887
:10922000F7D0D4F800396367012384F8843010BD87
:10923000D01B00202DE9F041874C94F8B050002D50
:1092400000F0F78094F88420844F0226531E082BE8
:1092500040D8DFE803F036389D3F674F153F0500E3
:109260005AF06CFF002840F0EB80636FD4F80029BF
:10927000FA3393422BD2FFF7BFFF94F88420E5E73F
:109280005AF05CFF0028F0D0D4F880300022012B87
:1092900084F8782040F2D880E16F94F8CD00013B4B
:1092A0000131C4E91F1308B16C4BDA67082284F856
:1092B0008420A2F10805B5FA85F56D092846BDE8B8
:1092C000F08184F884605AF039FF002841D194F885
:1092D0008420531EDBB2022B09D8D4F80039616F09
:1092E0005B1AC82BE5D9FFF787FF94F88420042A7E
:1092F000DFD1E3E7236B002BDBD1E66ED4F8003936
:109300006367072284F88420002ED2D0D4E9182184
:10931000236F0120B047DAE7636FD4F80019643394
:109320008B42C6D2D4F82C80B8F1000FF4D15AF099
:1093300005FF0028A1D0E66E84F87880042384F825
:109340008430002E7AD0D4E91821236F4046B047EC
:10935000BDE75AF099FB0028B9D197F88530002B6A
:10936000A3F10203B3FA83F314BF022201225B09C3
:1093700084F8792084F87A305AF086FB00287FF44C
:109380007AAFD7F8D030C4F88830032384F884301B
:109390005AF07AFB00289AD1304BC4F8800093F839
:1093A000B460B3F8B600D3F8B8E0D3F8B8C0D3F8D7
:1093B000B870D3F8B82084F88E6093F8BC10A4F885
:1093C0008C0093F8BD6084F8922093F8BD00D3F828
:1093D000C020C4F89420B3F8C680B3F8C62084F83F
:1093E0009310B3F8C610C2F30B1343EA182303F02B
:1093F0000F0301F00F024FEA1E6E4FEA1C4C3F0AAA
:10940000360900F00F0003F5FA63042184F899008F
:1094100084F88FE084F890C084F8917084F89860A4
:10942000A4F89A3084F89C2084F884102846BDE87B
:10943000F08184F884502846BDE8F08105463DE778
:10944000042384F8843039E7FAD1FFF725FE94F835
:109450008420531E3EE700BFD01B0020C03D0020EB
:109460002DE9F8431A4C94F88460042E0546894689
:1094700090461F4608D0082E02D00020BDE8F88391
:10948000FFF794F80228F8D1D4F8C00044F0ECF8C3
:1094900094F87A3093B969021120FFF729F898B946
:1094A000D4F80039C4F860900522C4E91B876566CA
:1094B00084F8842063670120BDE8F88329461120E1
:1094C000FFF716F80028EBD009F02AFED5E700BF19
:1094D000D01B002070B51E4C94F88430042B064637
:1094E0000D4608D0082B22D1E36F83422DD0FFF721
:1094F0005DF802281BD1D4F8C00044F0B5F8002173
:109500003720FEF7F5FF29461720FEF7F1FFB0B927
:1095100094F87A306BB971021920FEF7E9FF70B93F
:109520000823C4E91F6584F88430022070BD01203F
:1095300070BD31461920FEF7DBFF0028F0D009F09E
:10954000EFFDFFF7E5FD032070BD022070BD00BFF9
:10955000D01B00202DE9F04F95B0CDE902236A4CD5
:109560000646884694F88430042B0DD0082B07D18A
:10957000E36FB34200F0C480FFF718F80228F1D07F
:10958000012015B0BDE8F08FD4F8C00044F06CF8AD
:1095900094F87A30002B40F0998071021820FEF781
:1095A000A7FF002840F0A68094F88450FEF760FFE3
:1095B000082D0CBFFC21FE21D4F8BC90019140F095
:1095C00017FBB9F80C300199054642F20F77B9F84C
:1095D000083098074BD548465EF04AFB94F8C430F3
:1095E000002B52D005A80AF093FE94F8CE20D4F8B0
:1095F000BC30D4F8C810CDF81C8052060C33486833
:109600000592069340220023CDE90C3308920F9374
:109610004FF480620A930E934FF400730B920993F8
:109620000AF0B4FED4F8C83005A958680AF082FEE2
:10963000D4F8C830D4F8BC2059680B6843F0010353
:109640000B6093889BB243F0020393800299E1661A
:109650000399C4F860800122062300206666216712
:1096600084F8682084F8843015B0BDE8F08F01914B
:1096700040F0BEFA431BBB420199A8DD484645F0C5
:1096800069FB94F8C430002BACD1D4F8BC50CDF8B1
:109690000480AB894FF4807B42F20F79019BBBB110
:1096A00013F8017B019340F0A3FA82462B899A07B5
:1096B00010D5BFB2AF8140F09BFA07462B89DB077C
:1096C00012D5BBF1010BAB89E8D1BFE7314665E7A5
:1096D000FF27E8E740F08CFAA0EB0A004845E5DDFB
:1096E000284645F037FBB1E740F082FAC01B4845F9
:1096F000E4DDF5E709F014FDFFF70AFD032040E77C
:10970000FEF7B6FEFC2157E7D01B00202DE9F04FF5
:10971000944C94F8B07087B0002F00F0AF8194F8AB
:10972000842042F20F75531E082B00F28180DFE87F
:1097300013F09300BC004A017F006D000900FA009D
:109740007F00E70094F8C430002B40F02682D4F864
:10975000BC6094F868A0236EB28903EB0A2A4FF428
:10976000807BBAF1000F00F0C9821AF8018B40F03B
:109770003FFA81463389980740F1C8811FFA88F87B
:10978000A6F80C8040F034FA80463389D90740F1BE
:10979000C881BBF1010BB389E3D194F86830013380
:1097A000DBB2022B84F868303FD1D4F8BC6040F0C3
:1097B0001FFAB389804633899A0740F19C8130466D
:1097C00000215EF055FAD4F8BC6040F011FAB3897C
:1097D000804633899B0740F18381304600215EF04B
:1097E00047FAFEF745FE00F01F00052800F0A882AA
:1097F000FFF78EFCE66E002E00F0C9810022236F79
:10980000616E0120B04794F884208CE7206E4FF4FD
:109810000071FEF74DFE012800F0A481022800F03F
:10982000A8810646002800F0ED8194F88420531E9C
:10983000DBB2022B00F22C81D4F80039616F5B1A85
:10984000C82B00F22181A2F10807B7FA87F77F0938
:10985000384607B0BDE8F08FD4F8C00043F004FFED
:1098600000210846FEF744FE064609F059FC012E89
:10987000DBD10023D4F8C00084F8793043F0F4FE43
:1098800040F2AB110820FEF733FE052800F082817C
:10989000012800F0018109F043FC94F87920002AA6
:1098A00000F06182022384F88430D4F8C00043F0D1
:1098B000DBFE94F87930022B0CBF4FF08046002677
:1098C00000213720FEF714FE31462920FEF710FE56
:1098D000064609F025FC002EA7D194F87930022B1A
:1098E00000F0A48184F87A60D4F8C00043F0BCFE94
:1098F00000210920FEF7FCFDB0B309F011FC94E74C
:109900000826FEF7B5FDFF2800F03082013EF8D1B1
:10991000636FD4F80029FA33934286D2FFF7F8FB3D
:1099200094F88420FFE6FEF7A3FDFF284FF0080619
:1099300005D0013EECD0FEF79BFDFF28F9D1D4F80D
:1099400080300022012B84F8782040F21582E26FEB
:1099500008210132013BC4E91F2384F884100A4620
:1099600071E700BFD01B0020C7481021FEF7A0FD03
:1099700006460028C1D101217F20FEF7C9FB01283E
:109980008046BAD130460221FEF7C2FB002800F023
:10999000B8810128B1D116213A20FEF7B9FB013078
:1099A0008002C4F8880009F0BBFBD4F8C00043F083
:1099B0005BFE00210A20FEF79BFD002840F083811A
:1099C000032384F88430102102A8FEF771FD0028DB
:1099D0007FF42BAF9DF815309DF816109DF81020E0
:1099E0009DF809609DF80A001B01DBB243EA1113E0
:1099F00003F5FA63A4F89A30DDF8113001F00F0195
:109A000084F89C101BBA110902F00F0240EA0620EC
:109A100084F8981084F899209DF808109DF80B2080
:109A2000C4F89430039BC4F89030A4F88C0084F8F8
:109A30008E1084F88F2009F073FB94F87A3073B994
:109A4000D4F8C00043F010FE4FF400711020FEF770
:109A50004FFD064609F064FB002E7FF45FAFD4F89B
:109A6000BC0004215EF01CF9002204233846C4F82F
:109A7000802084F8843007B0BDE8F08F384684F841
:109A8000847007B0BDE8F08FFFF742FB94F88420A4
:109A9000042A7FF4D8AEDBE6D4F8BC600DF1080AE6
:109AA000B3893B464FF0040B57464FF0FF099A46E7
:109AB00040F09EF88046338998073AD5A6F80C9076
:109AC00040F096F880463389D90744D5B3899BB2D4
:109AD0000FB107F8013BBBF1010BE9D1574632E06A
:109AE00040F086F8A0EB0800A8427FF772AE30463F
:109AF00045F030F975E640F07BF8A0EB0800A8428D
:109B00007FF759AE304645F025F95CE640F070F835
:109B1000A0EB0900A8427FF72DAE304645F01AF9B8
:109B20003BE640F065F8A0EB0800A8427FF72DAEB9
:109B3000F3E740F05DF8A0EB0800A842BBDD30463B
:109B4000574645F007F99DF80B30AB2B04BF0223B5
:109B500084F879309FE640F04BF8A0EB0800A8426B
:109B6000B1DDECE7636FD4F8002964339342BFF4AE
:109B70005CAE09F0D5FAFFF7CBFAE66E3EB10022F3
:109B80001046236F616EB04794F88420CBE594F8BB
:109B90008420C8E584F879607DE6D4F8C8303B4875
:109BA0005968D3F81CE03A4E3A4B994288BF304688
:109BB0001EF0005F00F095804668DFF8DCC006EA22
:109BC0000E0616EA0C0F3FF43EAE0EEA0C03C3601D
:109BD0000B68D4F8BC6023F001030B603389D8070D
:109BE00003D5B3893389D907FBD433899A07FCD5C8
:109BF00033891B06F9D4B38823F002031B041B0C22
:109C0000B380D4E509F08CFAE56E84F8786004231B
:109C100084F88430002D3FF41BAED4E91821236F63
:109C20003046A84794F88420531E01E6D4F8C000BB
:109C300043F01AFD31463A20FEF75AFCD4F8BC60D6
:109C400001900DF1080AB3893B464FF0040B5746CB
:109C50004FF0FF099A463FF0CBFF804633899A07C1
:109C60001CD5A6F80C903FF0C3FF80463389DB0774
:109C700030D5B3899BB20FB107F8013BBBF1010BA3
:109C8000E9D1574614E000BF701C0020006002407C
:109C9000006402400F6402407D0F7D0F3FF0A8FF7B
:109CA000A0EB0800A842D9DD3046574645F052F8EF
:109CB000019B43B909F034FA029B1BBAC3F38073CA
:109CC00084F87A3010E609F02BFAFFF721FA94F8BD
:109CD000842028E53FF08CFFA0EB0800A842C5DDFA
:109CE000E2E70668DFF8B0C006EA0E0616EA0C0FD7
:109CF0003FF4A9AD0EEA0C03836069E74FF0FF085B
:109D000035E504212C20FEF703FA032106464E20F8
:109D1000FEF7FEF90C2181463620FEF7F9F909F12C
:109D20000209431C03FA09F308FA06F6A3FB06012D
:109D3000430A43EAC153C4F8883009F0F1F934E624
:109D4000E56ED4F800396367072284F88420002D7B
:109D50003FF479ADD4E91821236F0120A84794F886
:109D60008420531E64E584F884206CE509F0D8F95A
:109D7000042384F884306BE508D0042384F884300D
:109D800009F0CEF994F88420531E51E5FEF70EFC3D
:109D900002287FF44AADB0E57D0F7D0F2DE9F04F2D
:109DA000C14C94F8E01083B00546C1F34001D4F8EB
:109DB000E80043F065FC94F8E010D4F8E400C943EF
:109DC00001F001016F1E43F05BFCFBB20193002D1B
:109DD00000F0D080B54EDFF8DC82B54D4FF01009B1
:109DE000D4F8E80043F030FCD4F8E40043F02CFC55
:109DF000B4F8F030002B40F04E8194F8F210D4F813
:109E0000F40043F03DFC4FF0FA0A4FF47A71012060
:109E1000D8F80430C3F30803002B40F00F81EFF3B0
:109E20001183002B40F00A81D6F80029D5F808C02C
:109E3000D6F800399A42F7D1D4F818319C45F3D8B6
:109E4000D4F8147101FB07F3A3EB0C03B3FBF7F396
:109E500001FB0232D8F80430C3F30803002B40F0B2
:109E6000AB80EFF31183002B40F0A680D6F80039C9
:109E7000D5F808B0D6F80079BB42F7D1D4F81871FC
:109E8000BB45F3D8D4F8147101FB07FCACEB0B0C09
:109E9000BCFBF7FC01FB03C39B1AB3F57A7FD9D354
:109EA000BAF1010AB4D1D4F8E80043F0CDFBD4F8FC
:109EB000E40043F0C9FBB4F8F030002B40F0DF8041
:109EC00094F8F210D4F8F40081F0010143F0D8FBCB
:109ED000FA204FF47A714FF0010CD8F80430C3F334
:109EE0000803002B40F08980EFF31183002B40F032
:109EF0008480D6F80029D5F808E0D6F800399A42CF
:109F0000F7D1D4F818319E45F3D8D4F814A101FB49
:109F10000AF3A3EB0E03B3FBFAF301FB0232D8F80A
:109F20000430C3F3080343BBEFF311832BBBD6F814
:109F30000039D5F808B0D6F80079BB42F7D1D4F88B
:109F40001871BB45F3D8D4F814A101FB0AFEAEEB9F
:109F50000B0EBEFBFAFE01FB03E39B1AB3F57A7FFF
:109F6000DDD30138B9D1019B5F1EFBB2FF2B0193FA
:109F70007FF436AF03B0BDE8F08FEFF3118A89F3B9
:109F80001288AF682B68DB0344BFC4F810C1AF6808
:109F9000D6F80039D4F810E15FFA8AFA8AF311880A
:109FA000D4F814A1734401FB0AFEAEEB070EBEFB0E
:109FB000FAFE01FB03E3D0E7EFF3118E89F3128879
:109FC000D5F808B02B68DF0344BFC4F81001D5F8FA
:109FD00008B0D6F80039D4F810C15FFA8EFE8EF3BF
:109FE0001188D4F81471634401FB07FCACEB0B0C33
:109FF000BCFBF7FC01FB03C34EE7EFF3118E89F3C3
:10A000001288D5F808A02B68DA0344BFC4F810C141
:10A01000D5F808A0D6F80039D4F810215FFA8EFEE2
:10A020008EF31188D4F814E11A4401FB0EF3A3EB6C
:10A030000A03B3FBFEF301FB023270E7EFF3118C6E
:10A0400089F31288D5F808E02B68DB0344BFC4F815
:10A050001001D5F808E0D6F80039D4F810215FFADD
:10A060008CFC8CF31188D4F814711A4401FB07F3AB
:10A07000A3EB0E03B3FBF7F301FB0232EAE6D4F8DD
:10A080000C31002B3FF424AFD4F8F830C3F800A013
:10A0900084F809A11CE7D4F80C31002B3FF4B3AECF
:10A0A0003FF096FEAFE600BFC03D0020D01B002071
:10A0B00010E000E000ED00E02DE9F04FBD4CBE4E99
:10A0C00094F8E010D4F8E800DFF8F482BB4D83B0D8
:10A0D000C1F3400143F0D4FA94F8E010D4F8E4005E
:10A0E000C94301F0010143F0CBFA052301934FF07E
:10A0F0001009D4F8E80043F0A7FAD4F8E40043F0DC
:10A10000A3FAB4F8F030002B40F04C8194F8F21030
:10A11000D4F8F40043F0B4FA32274FF47A710120F6
:10A12000D8F80430C3F30803002B40F00F81EFF39D
:10A130001183002B40F00A81D6F80029D5F808C019
:10A14000D6F800399A42F7D1D4F818319C45F3D8A3
:10A15000D4F814E101FB0EF3A3EB0C03B3FBFEF305
:10A1600001FB0232D8F80430C3F30803002B40F09F
:10A17000AB80EFF31183002B40F0A680D6F80039B6
:10A18000D5F808B0D6F800C96345F7D1D4F818C19E
:10A19000E345F3D8D4F814E101FB0EFCACEB0B0C57
:10A1A000BCFBFEFC01FB03C39B1AB3F57A7FD9D33A
:10A1B000013FB5D1D4F8E80043F046FAD4F8E40002
:10A1C00043F042FAB4F8F030002B40F0E08094F80D
:10A1D000F210D4F8F40081F0010143F051FA32207A
:10A1E0004FF47A710127D8F80430C3F30803002B29
:10A1F00040F08B80EFF31183002B40F08680D6F87F
:10A200000029D5F808E0D6F800399A42F7D1D4F8F9
:10A2100018319E45F3D8D4F814A101FB0AF3A3EB3F
:10A220000E03B3FBFAF301FB0232D8F80430C3F398
:10A23000080343BBEFF311832BBBD6F80039D5F8E5
:10A2400008B0D6F800E97345F7D1D4F818E1F34522
:10A25000F3D8D4F814A101FB0AFEAEEB0B0EBEFB43
:10A26000FAFE01FB03E39B1AB3F57A7FDDD30138D5
:10A27000B9D1019B5F1E17F0FF0301937FF439AF43
:10A2800003B0BDE8F08FEFF3118A89F31288D5F897
:10A2900008B02B68DB0344BFC4F81071D5F808B0D0
:10A2A000D6F80039D4F810E15FFA8AFA8AF31188F7
:10A2B000D4F814A1734401FB0AFEAEEB0B0EBEFBF7
:10A2C000FAFE01FB03E3CEE7EFF3118E89F3128868
:10A2D000D5F808B02B68DB0344BFC4F81001D5F8EB
:10A2E00008B0D6F80039D4F810C15FFA8EFE8EF3AC
:10A2F0001188D4F814E1634401FB0EFCACEB0B0CA9
:10A30000BCFBFEFC01FB03C34EE7EFF3118E89F3A8
:10A310001288D5F808A02B68DA0344BFC4F810717E
:10A32000D5F808A0D6F80039D4F810215FFA8EFECF
:10A330008EF31188D4F814E11A4401FB0EF3A3EB59
:10A340000A03B3FBFEF301FB02326EE7EFF3118C5D
:10A3500089F31288D5F808E02B68DA0344BFC4F803
:10A360001001D5F808E0D6F80039D4F810215FFACA
:10A370008CFC8CF31188D4F814C11A4401FB0CF343
:10A38000A3EB0E03B3FBFCF301FB0232EAE6D4F8C5
:10A390000C31002B3FF423AFD4F8F8301F6084F861
:10A3A00009711CE7D4F80C31002B3FF4B5AE3FF037
:10A3B0000FFDB1E6C03D0020D01B002010E000E002
:10A3C00000ED00E000F01F0240090123032803FA1A
:10A3D00002F304D004280CD0022805D07047074AA5
:10A3E000116C0B4313647047044A516C0B43536464
:10A3F0007047024A116B0B431363704700380240E9
:10A4000000285FD00368374A2DE9F04103F13F444B
:10A4100004F57E0402EB9422012492F8C42002F099
:10A420001F055209032A04FA05F456D0042A4FD016
:10A43000022A48D08588B5FA85F0C0F11F00C0F324
:10A44000CC0603EB860600F0070082000F24306A7A
:10A45000944020EA04003062306A01FA02F20243BA
:10A46000002132624FF0010E0A464FF0030C022722
:10A470000EFA02F838EA050002F101021CD1186850
:10A480000CFA01F420EA04001860186807FA01F6D3
:10A4900006431E609E6826EA04069E6098689860DF
:10A4A000586820EA0800586058685860D86820EA60
:10A4B0000400D860D868D860102A01F10201D7D111
:10A4C000BDE8F0817047084A556C2C435464B1E7ED
:10A4D000054A156B2C431463ACE7034A156C2C43F7
:10A4E0001464A7E780CF060800380240002861D036
:10A4F0000368384A03F13F4101F57E0102EB9122E6
:10A500002DE9F04192F8C42002F01F045209012104
:10A51000032A01FA04F158D0042A51D0022A4AD061
:10A520008588B5FA85F2C2F11F02C2F3CC0403EBB1
:10A53000840402F00702216A92000F20904021EA71
:10A5400000012162206A0C2101FA02F2024300217B
:10A55000226208464FF0010E4FF0030C02270EFA5C
:10A5600000F838EA050200F101001DD11C680CFA60
:10A5700001F224EA02041C601E6807FA01F4344365
:10A580001C609E6826EA02069E609E6816439E60D6
:10A590005C6824EA08045C605C685C60DC6824EA4F
:10A5A0000202DA60DA68DA60102801F10201D6D11D
:10A5B000BDE8F0817047084A546C21435164AFE70D
:10A5C000054A146B21431163AAE7034A146C214323
:10A5D0001164A5E780CF06080038024058B183888F
:10A5E0004FF00042B3FA83F332FA03F303D0024987
:10A5F0000A6813430B607047003C0140134B02682C
:10A60000196821EA02011960596821EA02015960BA
:10A6100019680A431A609968026821EA0201996080
:10A62000D96821EA0201D9604179102907D001F1E6
:10A63000804303F59E3319680A431A60704799688E
:10A6400011439960D9680A43DA607047003C0140C1
:10A65000002864D0F0B58388B3FA83F3202B0A4630
:10A6600085B00446C3F11F0143D02D4D2D4E05EB9F
:10A6700081037718C3F81C21002197F8CC703EF0B5
:10A6800095FDB4F804C02268274CBCFA8CFCCCF1D0
:10A690001F0303F0FC0101F1804101F59C3103F03F
:10A6A000030398004FF00F0E02F13F438A680EFA41
:10A6B00000FE22EA0E0203F57E038A60C3F38723BD
:10A6C000834088684FF0004222FA0CF203433D4475
:10A6D0008B6002A8626101234FF400618DF80E3097
:10A6E0000292ADF80C10FFF789FF95F85C31F02B62
:10A6F00001D805B0F0BD3E44F02196F8DC308DF86D
:10A70000043003224FF4807301A885F85C118DF8A2
:10A710000520ADF8063009F0CFFE05B0F0BD70475A
:10A72000C03D002080CF0608003C014010B4B8B105
:10A730000D4CD4F86431102B05D15DF8044B052184
:10A7400000203FF01BB803EB4302224482F869115A
:10A7500001210B4482F8680182F86A11C4F864315F
:10A760005DF8044B704700BFC03D0020C078202139
:10A77000DCE700BF2DE9F04FDFF87CA32DED028B65
:10A780009AF8AC110022CAE96722CAE9692297B097
:10A79000CAF8982119B19AF8AD218AF898219AF847
:10A7A000AE211AB19AF8AF218AF8A7219AF8B221FE
:10A7B0001AB19AF8B3218AF8A2219AF8B0211AB1F5
:10A7C0009AF8B1218AF89D219AF8B43105935A1E5E
:10A7D000D3B257B204937B1C00F0AA80BC4ABD4E92
:10A7E00052F83780029602EBC702002312790193D8
:10A7F00008EE102A1D4634469946267839463046DA
:10A8000045F0D6FE83463046BBF1000F1ED042F025
:10A810003BFCEA1D1321D2B220B14FF0000E827131
:10A8200080F807E03EF0C2FC207845F0F3FE4FF0E0
:10A83000070309F1010223714FF0010384F802902C
:10A840006070CDF804B05FFA82F9E3700135042D31
:10A8500004F10504D1D118EE100A029ECDF80C9037
:10A86000FFF7B0FD9C499D4A4868024042F44032DF
:10A870004A600FB9019B5BB9994C4820FFF7A2FDD4
:10A88000204602215DF0EEFEA26842F00102A260C5
:10A890009148934A4168BAF8B64141F400014160D9
:10A8A000516821F480515160916B21F4401141F4C1
:10A8B00080119163D16841F46001D160956B85F49A
:10A8C0004011C1F3015101EB81011F2000FA01FC8D
:10A8D00025EA0C0C112505FA01F141EA0C019163FE
:10A8E000D16841F4E011D160956BC5F30151C1F11C
:10A8F0000401C9B201EB810188404FF0100C25EA38
:10A9000000000CFA01F108439063E4B1BAF8B81101
:10A91000CAF8C041A1B1BAF8BA21CAF8C41162B1EB
:10A92000019B7048521A90FBF2F2CAF8C8216BB929
:10A9300017B0BDEC028BBDE8F08F6B4A1288EFE7D1
:10A940006A4A1188E7E76A4A1488DFE740460399B4
:10A950005DF088FE5F4B012003F114090723F278B4
:10A96000441CE4B252B375783279A5F10A0101EBC7
:10A97000410105EB450C092D03FA01FE03FA0CFB1E
:10A9800002FA01F140F28E80D8F80C2022EA0E0E75
:10A9900041EA0E01C8F80C10421E02EB82021F2190
:10A9A000062801FA02FC05FA02F261D8D8F8341040
:10A9B00021EA0C010A432046C8F834200536B14587
:10A9C000CDD1D8F80820049942F40072C8F80820C4
:10A9D000D8F8082042F48072C8F80820D8F8082077
:10A9E000574442F00102C8F8082097F9BC21022020
:10A9F0003FF0BCFD044600289AD040685BF040FE62
:10AA0000059A06215BF04EFE606809F0BFFC07A8BE
:10AA100009F07EFC039EA368364A0793012E8CBF83
:10AA20004FF48060002000230D9008F14C054FF496
:10AA30000060089509920A934FF480720C930E906F
:10AA40004FF4003360680B9607A94FF40055CDE929
:10AA50000F52119309F06EFC6268136843F0010312
:10AA60001360D8F8083043F08043C8F808305FE737
:10AA7000C11FA0F10D0201EB81014FF01F0E02EB8F
:10AA800082020C280EFA01FC0EFA02F005FA01F11E
:10AA900013D8D8F8302022EA0C0211432046C8F817
:10AAA00030108BE7D8F8101002FA0CF221EA0B0BE9
:10AAB00042EA0B02C8F810206EE7D8F82C1005FA0D
:10AAC00002F221EA00010A432046C8F82C2075E76B
:10AAD00064D00608583F002000230140E030FCFF0E
:10AAE00000200140803801002E7AFF1F2C7AFF1FC2
:10AAF0002A7AFF1F8C3F0020C03D00202DE9F84F2F
:10AB00002E4F00EBC00407EB8404D4F8D8612EB1BB
:10AB1000054694F8E90100F0FF0820B14FF0000865
:10AB20004046BDE8F88F89469A4693463FF060F864
:10AB30004FEA49010123C9B284F8EA1184F8EBB164
:10AB400084F8ED3184F8EE8184F8EC3184F8E93151
:10AB500084F8E881B288C4F8F0A191058146C4F870
:10AB6000F4A11DD43388DA0510D442F20F7405E045
:10AB70003FF03EF8A0EB0903A34215DC33889B05A8
:10AB8000F6D433889BB243F480733380B3889BB28E
:10AB900043F440734FF00108B3804046BDE8F88F9E
:10ABA00098464046BDE8F88FB7F8403201339BB273
:10ABB0002846A7F840325DF0EDF9B1E7C03D00202E
:10ABC00070B5464E96F8424204EB440306EBC303CD
:10ABD000650093F84432032B6ED8DFE803F059295F
:10ABE0001E02254406EBC505D5F84802002870D1A1
:10ABF00096F8A4329C425FD0013404F003029342E1
:10AC000086F8422258D002EB420406EBC404022329
:10AC1000C4F8480284F8443270BD2B1906EBC30314
:10AC2000D3F8482272B1013AC3F84822002070BD1F
:10AC30002B1906EBC303D3F84822002AF3D10222D2
:10AC400083F84422254406EBC50595F85032013BB4
:10AC5000DBB285F850328BBB214B96F8A462D3F857
:10AC60003012D5F84C02621C02F003024B1E032482
:10AC7000B242034485F84442B3FBF1F0C5F8480200
:10AC80001AD0994218D80138C5F84802012070BD81
:10AC900044F05CFB80B1124B2C44D3F8302206EB1D
:10ACA000C404012102F51C5384F844120F33B3FB92
:10ACB000F2F3C4F8483270BD012070BD084BD3F8E0
:10ACC0003022012002F2E733B3FBF2F3C5F8483239
:10ACD00070BD0138C5F84802002070BDC03D00209D
:10ACE00088010020054B93F8A522002AFBD1D3F858
:10ACF000083E03491B6801F10C001847C03D0020C5
:10AD0000684000202DE9F84F3249DFF8D4B091F8BF
:10AD1000851001240229074619461046CBF82C401D
:10AD20004FF000022C4C1D4618BF7F02FDF768F95A
:10AD30002A4B63626B02A362E36A40F2FF5943F05D
:10AD400093034FF400704FF48A62E3620121C4F868
:10AD50003890A0601020E26058F0E2FF012D40F230
:10AD600051434E46C4F83890CA4640F252488EBF0E
:10AD70004FF0120998464FF011090A25C4F838A07F
:10AD80000121A7604846C4F80C8058F0C9FF03466B
:10AD90004FF0000C40F2774201213720A6632BB917
:10ADA00000231846CBF82830BDE8F88FA663C4F816
:10ADB00008C0E26058F0B4FF013DA6630028EFD060
:10ADC00015F0FF05DAD10346CBF82C50CBF828302C
:10ADD000BDE8F88FC03D0020002C014000E1F505E2
:10ADE000D01B00202DE9F843184C94F88460042E01
:10ADF0000546894690461F4608D0082E02D00020FE
:10AE0000BDE8F883FEF748F90228F8D101234A4645
:10AE100028460021FFF776FF50B1FEF7EDF9E56E09
:10AE2000002DECD00022236F616E1046A847E6E7A4
:10AE3000D4F80039C4F860900522C4E91B87656620
:10AE400084F8842063670120BDE8F883D01B0020CC
:10AE50002DE9F84F2F49DFF8C49091F885101E4670
:10AE600002292D4B07464FF0010418BF4702012E5F
:10AE700040F259481C6398BF4FF48B683B46934699
:10AE8000474640F2FF55B0468CBF4FF0190A4FF0CD
:10AE9000180A0A241E4640F2FF53C9F8383001212F
:10AEA000C9F808605046C9F80C7058F039FF0346DD
:10AEB0004FF0000C40F2774201213720C9F838509A
:10AEC000A3B9584641460122FDF79AF84646134A6F
:10AED000134B536276029662D36A43F09103D362B6
:10AEE0000D4B002108469962BDE8F88FC9F838502B
:10AEF000C9F808C0C9F80C2058F012FF013CC9F885
:10AF000038500028DDD014F0FF04C4D1024B1C637C
:10AF1000BDE8F88FC03D0020D01B0020002C014070
:10AF200000E1F5052DE9F047374C82B005460E46A5
:10AF30001746984694F8840004280CD0082806D1B7
:10AF4000E36FAB4207D0FEF7A7F80228F2D001204A
:10AF500002B0BDE8F087DFF8B8A02666DAF87C908A
:10AF60006566C9F34F210F294FEA592223D8D4F837
:10AF700080300193FBB194F8CD00E0B1B9F5005FEA
:10AF800013D0224831464FF40072484461F046FF26
:10AF900009F50072C2F34F211029CAF87C204FEA4C
:10AFA000522202D0019B012B21D192B2013A174EBD
:10AFB000AD1A0B4600E0012332462846062601253D
:10AFC0000021E766C4F8708084F8685084F88460D3
:10AFD000FFF73EFF0028BBD0FEF70EF9E66E86B104
:10AFE0002846236F616E0022B0470320B0E7E26F6E
:10AFF000013B01320421C4E91F2384F8841002209C
:10B00000A6E70320A4E700BFD01B0020F05E0020CD
:10B01000C03D002010B50C4C94F80C3E022B11D111
:10B02000D4F8140E42F026FBD4F8140E08B12123F4
:10B03000C38001213EF0BAF8BDE810400348082162
:10B0400043F03EBE10BD00BFC03D0020CC4B0020F1
:10B0500073B50D4E05460C46FF230A4601463046A1
:10B060008DF8073043F04EFF01230DF1070245F044
:10B070008001304643F014FF9DF80700031B58423F
:10B08000584102B070BD00BFCC4B00202DE9F04705
:10B090002D4D95F80C3E022B82B004460F46164605
:10B0A0001DD0012B03D0002002B0BDE8F08795F938
:10B0B000108EB8F1FF3FF6D0B8F1030FF3DC00912A
:10B0C000134695F8111E024640465DF0F5F800283B
:10B0D000E9D0404602B0BDE8F0475DF09DB9D5F833
:10B0E000143E13B11A689B885383D5F810AE3EF016
:10B0F0007FFDBAF80C30804642F20F79BAF808307A
:10B100009B0714D5214650465CF0B2FD3346D5F876
:10B11000100E3A4600215CF0F5FDD5F8143E83B1DF
:10B120001A689B881383012002B0BDE8F0873EF0C7
:10B130005FFDA0EB08034B45E0DD504643F00AFEFF
:10B14000E4E70120B0E700BFC03D002030B405783F
:10B15000022D14D0012D02D0002030BC70470446CF
:10B1600090F90400084B421C83F84C5EF4D003288D
:10B17000F2DC0A4603F64C63617930BCBEE430BCB5
:10B18000012243F0BFBE00BFC03D0020094B93F831
:10B190007E34042B08D9053B032B08D801231A461B
:10B1A00000B103701046704700230122F8E7002326
:10B1B0001A46F5E7C82C0020F0B40D6800240CE016
:10B1C000BCF1050F18D8A0F137030A2B14D104EBFA
:10B1D000840415F8010B03EB4404A0F13003DEB244
:10B1E000092EA0F16107A0F1410CF0D9052FE7D895
:10B1F000A0F157030A2BEAD00D601460F0BC704731
:10B200009FED737A07EE901A20EE070AF8EE677A40
:10B2100027EE800AFDEEC07A17EE903A2033402BDD
:10B2200000F2C780DFED6B7AB4EEE70AF1EE10FAB8
:10B23000F0EE407A0CDD9FED686ADFED686AB0EEF3
:10B24000677AB4EEE67AF1EE10FA77EEC67AF6DCBB
:10B250009FED637AF4EEC77AF1EE10FA0CD59FED0C
:10B260005E6ADFED606AB0EE677AB4EEE67AF1EE20
:10B2700010FA77EE867AF6D49FED5B7AF4EEC77A11
:10B28000F1EE10FA00F38D809FED587AF4EEC77A54
:10B29000F1EE10FA44BF9FED527A77EE677A27EE0F
:10B2A000A76ADFED535A9FED537ADFED536AA6EE9E
:10B2B000257A67EE865AE6EE076AB6EE007AE5EE84
:10B2C000A67A27EE877ADFED486A70EE267ABDEE21
:10B2D000E76A16EE103A2033402B67D8B4EEE60A40
:10B2E000F1EE10FA0CDDDFED3C5A9FED3C6AF0EE1A
:10B2F000676AF4EEC66AF1EE10FA77EEE57AF6DCEC
:10B30000DFED376AF4EEE67AF1EE10FA0CD5DFEDF8
:10B31000325A9FED346AF0EE676AF4EEC66AF1EED7
:10B3200010FA77EEA57AF6D4DFED2F6AF4EEE67A1E
:10B33000F1EE10FA40DDDFED276A76EEE77A67EE90
:10B34000A75A9FED2B5A9FED2B6ADFED2B6AA5EED6
:10B35000856A27EEA55AE5EE866AB8EE006AE5EE44
:10B36000267A67EE867AC7EE206A002383614361FE
:10B370000362C361B7EE006A76EE865A76EE666ABD
:10B3800086EE257A67EE277A66EE876AC0ED017A47
:10B39000C0ED037A80ED007A80ED027AC0ED046A98
:10B3A00070479FED0C7A77EE677A78E7DFED137AD6
:10B3B000D9E79FED127A86E7DFED0C6AF4EEE67AC4
:10B3C000F1EE10FA44BFDFED066A76EEE77AB6E7F3
:10B3D00027D4D236DB0F4940DB0FC940E4CB1641FE
:10B3E000DB0F49C0E4CB16C1DB0FC93FDB0FC9BF80
:10B3F00092E741B99730083C15A82ABE000000002A
:10B400002DE9F0418C4B82B093F84D2E0190002A2B
:10B4100040F00C8193F8702EB3F8721EDFED876A4E
:10B42000B3F8748E864D07EE102A07EE901AB8EE28
:10B43000C76AB7EE007AB3F86E1EA5F80081F0EE89
:10B44000475A4FEA4804E6EE665A8C42B8BF0C46AB
:10B45000A6EE267AA6B20121F8EEE77AA5F80461F5
:10B4600067EEA67AC5ED3D5A85ED3E7AC5ED3F7A89
:10B4700083F84D1E002A00F0D680DDED017A9FEDA5
:10B48000710AF8EE677AA4B280EE270A5FF0C2F97B
