:020000040800F2
:100000000000012051A10508EDA10508B12E04084A
:10001000152F0408EDA10508EDA10508000000005A
:10002000000000000000000000000000EDA1050835
:10003000EDA1050800000000EDA10508E5D90308C1
:10004000EDA10508EDA10508EDA10508EDA1050844
:10005000EDA10508EDA10508493004085D3004084C
:100060005930040855300408513004081588050833
:1000700005880508F5870508E5870508D18705087F
:10008000BD870508A9870508EDA10508EDA10508AC
:10009000EDA10508EDA10508EDA105084D30040806
:1000A00075630508FD630508656305082564050893
:1000B000ED630508DD630508CD630508958B05082C
:1000C000A18B05087D8B0508898B0508EDA1050826
:1000D000EDA105087DDA03086DDA03085DDA03088F
:1000E00045300408EDA10508EDA105085563050894
:1000F00085630508EDA10508AD630508958705082A
:10010000EDA1050879560508BD630508EDA10508B0
:100110004DDA03083DDA0308EDA10508F1E2000815
:10012000818705086D8705085987050845870508F3
:1001300031870508000000000000000000000000FA
:1001400000000000000000000000000089E7000837
:100150001D87050809870508F58605082DDA0308B7
:10016000658B0508718B0508EDA10508EDA1050853
:10017000EDA10508EDA10508000000000000000049
:10018000EDA10508EDA10508EDA10508EDA1050803
:10019000EDA10508EDA1050800000000EDA105088E
:1001A000000000000000000000000000EDA10508B4
:1001B000EDA10508EDA10508000000000000000009
:1001C000000000000000000000000000000000002F
:1001D000000000000000000000000000EDA1050884
:0801E000A89C050001000000CD
:1001E8000E02010002000000C04E0120304F012025
:1001F80000000000902D070814020100050000000F
:10020800642D0120344F012000000000922D0708C2
:100218002320010010000000544E01203C4F012013
:1002280000000000577202081220010011000000AF
:100238001C4F01204C4F012000000000982D07089A
:100248000D10010070000000DC4D0120604F0120FE
:1002580000000000B1610308FD0101002400000056
:10026800604D0120D04F012000000000D3C40308D6
:10027800FB010100010000001C4D0120F44F01208A
:1002880000000000D9CC0408FC01010009000000AE
:10029800E84B0120F84F012000000000E1CC0408E1
:1002A800F701010006000000BC4B012004500120AA
:1002B80000000000AA2D0708F90101000400000051
:1002C800AC4B01200C500120000000003DC5030884
:1002D8003400010010000000D84A0120105001200D
:1002E80000000000457A0208110201000800000021
:1002F800B04A01202050012000000000B02D07085E
:100308001212010004000000A84A01202850012010
:1003180000000000B82D0708183001003400000064
:10032800744A01202C50012000000000BDD70408A9
:10033800000201000B000000F84601206050012077
:1003480000000000BDCD0408FF11010006000000F8
:100358009C4601206C50012000000000B9CC040824
:100368000812040014000000A8460120745001205F
:1003780000000000C5CD04081302010004000000BD
:100388005C2D01208850012000000000BC2D0708CA
:10039800FA010100030000007C4601208C50012076
:1003A80000000000A5CD04080A9001002C00000000
:1003B8004C4601209050012000000000F97102080D
:1003C800204201000600000004460120BC50012024
:1003D80000000000697A02080610010024000000ED
:1003E800E0450120C4500120000000001DCD040894
:1003F8000C0201000400000080450120E8500120A3
:100408000000000095CD0408FE0101001400000062
:10041800A0360120EC5001200000000021CE040885
:100428000B3001001A0000003C8B01200C8C0120CD
:1004380000000000C02D07081F5001002400000024
:10044800008B0120288C012000000000DC2D07080B
:100458000502010004000000B08B01204C8C012033
:1004680000000000002E0708030101000A00000038
:100478006A8A0120508C01200000000071160108D2
:100488001B1001000C00000020910120849801201D
:1004980000000000BD7C010821020100F0000000FE
:1004A800508F0120909801200000000061920108FF
:1004B8003710010030000000F097012080990120DA
:1004C80000000000042E07081610010006000000B6
:1004D800C0920120B099012000000000342E0708C6
:1004E8002F1001002200000060980120B899012017
:1004F800000000003A2E0708232201001000000027
:1005080024920120DC990120000000005C2E0708DD
:100518001E0001000900000014920120EC9901203E
:10052800000000006C2E0708052001000C000000E8
:1005380094920120F899012000000000782E070805
:10054800FD1701007E000000108E0120049A012092
:100558000000000029760108F5A1010070000000E4
:10056800D88E0120849A012000000000119801080B
:10057800261001000E000000049B0120F49A0120BF
:100588000000000079740108140001000500000053
:1005980040B0012064B0012000000000842E07084C
:1005A800012001000C00000030A301206CB00120E4
:1005B800000000008A2E07080C400600E400000036
:1005C800E8A1012078B001200000000061050308BF
:1005D8000E200300BC01000004A001205CB1012032
:1005E800000000007D7A02081300010004000000EA
:1005F80040AD012018B3012000000000982E070824
:100608000101010004000000389F01201CB30120F3
:1006180000000000000000000001010004000000CC
:10062800309F012020B30120000000009C2E070805
:1006380002010100030000002C9F012024B30120C7
:1006480000000000A5050308220201001C010000AB
:100658008CAA012028B301200000000075D70408E7
:10066800010201000B000000449F012044B4012056
:1006780000000000ADCD04080202010003000000E4
:10068800ACA3012050B401200000000000000000CD
:100698001B0201001000000084A3012054B40120B3
:1006A80000000000F9CC04081500100070000000DC
:1006B8006CC001202CC101200000000000000000D7
:1006C8002A000800600000007CBF01209CC10120B6
:1006D800000000001D7A02082C0004001000000031
:1006E8000CC20120FCC1012000000000F9780208BA
:1006F80029201400780000001CBD01201CC2012024
:1007080000000000000000001A0001000E000000B8
:10071800C4BC012094C2012000000000A02E0708DC
:100728002B00120024000000A0BC0120A4C201205C
:1007380000000000CD780208190201001000000036
:1007480054BB0120C8C2012000000000C9CC040825
:100758001C0202001C00000028BA0120D8C2012097
:10076800000000009DD50408283001001600000094
:1007780044BA0120F4C2012000000000757B020881
:100788000A0201001400000094CD0120F0CD0120E0
:10079800000000002D0503081010010002000000F1
:1007A80024C7012004CE012000000000AE2E070857
:1007B800F82101000600000024C8012008CE01200D
:1007C80000000000B02E070803000100010000002F
:1007D80034C8012010CE01200000000000000000F5
:1007E8001900010005000000D8C6012014CE012020
:1007F80000000000B62E0708020001000C000000EF
:10080800E4CE0120C0D0012000000000000000005C
:10081800F62101000C00000080D00120CCD001207E
:1008280000000000BC2E070825201E002C01000037
:10083800F0CE0120D8D00120000000000000000008
:10084800290201004000000024CE012004D201202A
:1008580000000000C82E0708280204000400000059
:10086800C8D9012044DD01200000000019CD04088A
:100878002702040004000000C4D9012048DD01203B
:10088800000000000DCD0408160215003F0000000E
:10089800B0D301204CDD0120000000006DCC04081D
:1008A8001A0201003C00000074D301208CDD0120F5
:1008B8000000000019D80408031201003D000000E0
:1008C80000DC0120C8DD012000000000082F070817
:1008D800381001000100000040D3012008DE01208B
:1008E80000000000462F0708270001000400000050
:1008F800CCDE0120D0E0012000000000482F0708CE
:100908000400080080000000D0DF012050E0012032
:1009180000000000000000000B2201003D00000064
:10092800C8E40120D0EE0120000000004C2F070889
:100938000D12010014000000E8ED012010EF012065
:10094800000000008C2F07081E02010006000000AE
:1009580094E8012024EF012000000000A02F0708E0
:100968001D02020006000000B0EE01202CEF01205D
:10097800000000000000000006120400180000003B
:10098800B8EE012034EF0120000000002DD6040845
:100998001F020800100000005CEF01204CEF01204E
:1009A8000000000071CC04081002010001000000E2
:1009B800240F0220200F022000000000A62F0708A5
:1009C80000C20100000008000A0600020000004002
:1009D8000100000009026400030100C0320904009C
:1009E800000103000000092111010001223600075F
:1009F80005830308000A080B01020202010009042A
:100A08000100010202010005240010010524010073
:100A180002042402020524060102070582030800D5
:100A2800FF09040200020A00000007050102400055
:100A38000007058102400000351B0108351A01082E
:100A48008D4F0108000000009D0F0108E94B0108C7
:100A5800C90F0108000000000000000000000000AD
:100A68007D0F01088D0F01086D0F01085D0F01084A
:100A78001A03000000000000000000000000000051
:100A8800000000000000000000000000040309044A
:100A9800FFFFFFFF120100020000004083042A57F5
:100AA80000020102030100001201000202000040DE
:100AB80083044057000201020301000012010002F2
:100AC800EF020140830456320002010203010000D4
:100AD80000600240106002400000000000000000BA
:100AE800000B0000000000000000000000000000F3
:100AF8000060024028600240010000000000000081
:100B0800060C0000000000000000000000000000CB
:100B18000060024040600240020000000000000047
:100B2800100D0000000000000000000000000000A0
:100B3800006002405860024003000000000000000E
:100B4800160E000000000000000000000000000079
:100B580000600240706002400400000000000000D5
:100B6800200F00000000000000000000000000004E
:100B7800006002408860024005000000000000009C
:100B88002610000000000000000000000000000027
:100B980000600240A0600240060000000000000063
:100BA80030110000000000000000000000000000FC
:100BB80000600240B860024007000000000000002A
:100BC800362F0000000000000000000000000000B8
:100BD80000640240106402400000000000000000B1
:100BE80000380000000000000000000000000000C5
:100BF8000064024028640240010000000000000078
:100C0800063900000000000000000000000000009D
:100C1800006402404064024002000000000000003E
:100C2800103A000000000000000000000000000072
:100C38000064024058640240030000000000000005
:100C4800163B00000000000000000000000000004B
:100C580000640240706402400400000000000000CC
:100C6800203C000000000000000000000000000020
:100C78000064024088640240050000000000000093
:100C880026440000000000000000000000000000F2
:100C980000640240A064024006000000000000005A
:100CA80030450000000000000000000000000000C7
:100CB80000640240B8640240070000000000000021
:100CC80036460000000000000000000000000000A0
:100CD8000000000004010000000700000000000000
:100CE80000000000000200001000000000000000EA
:100CF80000000000070000007D000000306B0608BF
:100D0800386B06080000000031610308A086010066
:100D180004000000000000000000000000000000C7
:100D280000000000000000000000000000000000BB
:100D380000000000000000000000000000000000AB
:100D4800306B0608406B06080000000045D0030819
:100D5800E80300000400000000000000000000009C
:100D6800000000000000000000000000000000007B
:100D7800000000000000000000000000000000006B
:100D880000000000486B060800000000000000009A
:100D9800C50B00007D000000FF00000000000000FF
:100DA800000000000000000000000000000000003B
:100DB800000000000000000000000000000000002B
:100DC8000000000000000000B8F70608000000005E
:100DD80000000000DD0300007D000000FF000000AF
:100DE80000000000000000000000000000000000FB
:100DF80000000000000000000000000000000000EB
:100E0800000000000000000000000000087F060845
:100E18000000000000000000410D00007D000000FF
:100E2800FF000000000000000000000000000000BB
:100E380000000000000000000000000000000000AA
:100E4800000000000000000000000000000000009A
:100E5800506B0608000000000000000011CD0308D8
:100E6800E80300000300000000000000000000008C
:100E7800000000000000000000000000000000006A
:100E8800000000000000000000000000000000005A
:100E980000000000546B060800000000000000007D
:100EA80035110308102700000300000000000000AF
:100EB800000000000000000000000000000000002A
:100EC800000000000000000000000000000000001A
:100ED8000000000000000000C0F306080000000049
:100EE8007DBA0208750604085F7600000500000058
:100EF80000000000000000000000000000000000EA
:100F080000000000000000000000000000000000D9
:100F18000000000000000000000000005CF7060868
:100F280000000000000000009140040810270000A5
:100F380001000000000000000000000000000000A8
:100F48000000000000000000000000000000000099
:100F58000000000000000000000000000000000089
:100F6800606B06080000000000000000A9C3030829
:100F7800E803000005000000000000000000000079
:100F88000000000000000000000000000000000059
:100F98000000000000000000000000000000000049
:100FA800000000006C6B0608000000000000000054
:100FB800FD0C0308204E00000300000000000000A4
:100FC8000000000000000000000000000000000019
:100FD8000000000000000000000000000000000009
:100FE80000000000000000007C6B06080000000004
:100FF80000000000293A0308204E0000030000000A
:1010080000000000000000000000000000000000D8
:1010180000000000000000000000000000000000C8
:101028000000000000000000000000008C6B0608B3
:10103800000000000000000081C90308400D030003
:101048000300000000000000000000000000000095
:101058000000000000000000000000000000000088
:101068000000000000000000000000000000000078
:101078009C6B060800000000000000005D88030863
:101088001027000001000000000000000000000020
:101098000000000000000000000000000000000048
:1010A8000000000000000000000000000000000038
:1010B80000000000A46B060800000000000000000B
:1010C800D9230208102700000300000000000000D8
:1010D8000000000000000000000000000000000008
:1010E80000000000000000000000000000000000F8
:1010F8000000000000000000A86B060800000000C7
:101108000000000091990208A0860100010000007B
:1011180000000000000000000000000000000000C7
:1011280000000000000000000000000000000000B7
:10113800000000000000000000000000B06B06087E
:1011480000000000000000000DC2030850C30000AA
:101158000100000000000000000000000000000086
:101168000000000000000000000000000000000077
:101178000000000000000000000000000000000067
:10118800B86B060800000000000000005DC50308F9
:10119800A86100000100000000000000000000003D
:1011A8000000000000000000000000000000000037
:1011B8000000000000000000000000000000000027
:1011C80000000000C46B06080000000000000000DA
:1011D80019DB0308A00F0000010000000000000058
:1011E80000000000000000000000000000000000F7
:1011F80000000000000000000000000000000000E7
:101208000000000000000000D06B0608000000008D
:101218000000000015DE0108102700000100000092
:1012280000000000000000000000000000000000B6
:1012380000000000000000000000000000000000A6
:10124800000000000000000000000000DC6B060841
:10125800000000000000000081D501081A410000CC
:101268000100000000000000000000000000000075
:101278000000000000000000000000000000000066
:101288000000000000000000000000000000000056
:10129800E06B06080000000000000000A916010825
:1012A80010270000010000000000000000000000FE
:1012B8000000000000000000000000000000000026
:1012C8000000000000000000000000000000000016
:1012D80000000000EC6B06080000000000000000A1
:1012E8005D51020850C3000001000000000000002A
:1012F80000000000000000000000000000000000E6
:1013080000000000000000000000000000000000D5
:101318000000000000000000F06B0608000000005C
:101328000000000009230108400D03000000000030
:1013380000000000000000000000000000000000A5
:101348000000000000000000000000000000000095
:10135800000000000000000000000000F86B060814
:1013680000000000000000006D610308400D03004C
:101378000000000000000000000000000000000065
:101388000000000000000000000000000000000055
:101398000000000000000000000000000000000045
:1013A800006C06080000000000000000CD320208B2
:1013B80050C300000300000000000000000000000F
:1013C8000000000000000000000000000000000015
:1013D8000000000000000000000000000000000005
:1013E800000000000C6C060800000000000000006F
:1013F800CD60030840420F0000000000000000001C
:1014080000000000000000000000000000000000D4
:1014180000000000000000000000000000000000C4
:101428000000000000000000186C06080000000022
:10143800000000006963030850C3000000000000BA
:101448000000000000000000000000000000000094
:101458000000000000000000000000000000000084
:10146800000000000000000000000000246C0608D6
:101478000000000000000000D9B801081027000093
:101488000000000000000000000000000000000054
:101498000000000000000000000000000000000044
:1014A8000000000000000000000000000000000034
:1014B800000000003D8C0008E5A800089D8B00088E
:1014C80025AA00081D8D0008558600082D860008ED
:1014D80011860008E19B00086D8F0008C190000884
:1014E80045910008CD91000809930008418600083D
:1014F8001986000809860008010000000000803FE6
:101508000A06000200000040010000000907200050
:10151800010104C03209040000020806500507054D
:101528008102400000070501024000000902200076
:10153800010104C03209040000020806500507052D
:101548008102400000070501024000000902200056
:10155800010104C03209040000020806500507050D
:101568008102000200070501020002000A060002CB
:10157800000000400100000009022200010100E013
:1015880032090400000103010200092111010001D0
:101598002236000705830308000A0000090222001A
:1015A800010100E0320904000001030102000921E1
:1015B8001101000122360007058303080007000017
:1015C80009022200010100E03209040000010301C0
:1015D80002000921110100012236000705830308D2
:1015E800000A00000A060002000000400100000096
:1015F80009074300020104C0320904000001020285
:101608000100052400100105240100010424020240
:1016180005240600010705820308001009040100DB
:10162800020A0000000705010240000007058102C8
:101638004000000009024300020100C03209040012
:101648000001020201000524001001052401000127
:10165800042402020524060001070582030800107D
:1016680009040100020A0000000705010200020047
:10167800070581020002000009024300020100C0C0
:1016880032090400000102020100052400100105CE
:101698002401000104240202052406000107058232
:1016A8000308001009040100020A000000070501F0
:1016B80002400000070581024000001400FF0000FE
:1016C800000000000000AA550701000001AA550506
:1016D8000100002D202D2D202D2D2D2D202D2D2DDF
:1016E8002D000000000000000000000000000000C5
:1016F8000000080014D90508FF1FFF1F0501090590
:10170800A101A10005010930093109320933093560
:101718000934093609371581257F7508950881022E
:101728000509190129081500250195087501810287
:10173800C0C00000092111010001223600AA550B82
:10174800010000AA5505010000AA55090200000081
:10175800AA5503009F00000001000000C01200000D
:1017680001000000000001007EFF0000FFFFFFFFF6
:10177800FF000000FFFFFFFF3C9B0120000000006E
:10178800149B01200000000001FF01FF0100000080
:10179800E001010045EC0108000000000000000025
:1017A80074E0050808FF00000000000000000000C9
:1017B8000000000058F905080000000000000000C3
:1017C8000000000010FA05080000000000000000FA
:1017D80000000000BCF9050800000000000000003F
:1017E80069070208C2A6012001010000613F020842
:1017F8000000000000000000E4FA0508B1420208F9
:1018080000000000000000009CFA05082D202D2D86
:10181800202D2D2D2D202D2D2D0000000000000045
:10182800000000000000000000000000FFFFFFFFB4
:10183800951102080000000000000000E8F8050803
:1018480001000000FA000000010000000100000093
:101858002CA301200000F401010000002AA30120AC
:101868000000F4010100000028A301200000F40199
:101878000100000026A301200000F401010000007F
:1018880024A301200000F4010100000022A301208C
:101898000000F4010100000020A301200000F40171
:1018A8000100000061F5010825F5010800000000AD
:1018B800B4E2050810A30120053201001EA301208F
:1018C8006400F401010000001CA301206400C409A5
:1018D800010000000EA30120E803D007010000006A
:1018E8000CA30120E803D007010000000AA301208F
:1018F800E803D0070100000008A301201E00B80B70
:101908000100000016A3012005000F0001000000DF
:1019180018A3012003000A000100000006A301200B
:101928001E00F401010000001AA3012002000000BB
:1019380040E3050804A3012014006400010000002E
:1019480012A301203200E8030100000002A30120D5
:101958000000C80001000000E5A1012000C8010046
:10196800E4A1012000500100E3A10120005A010078
:10197800E1A10120020000004CE30508E875060813
:10198800F0750608C0A601200100C4090000000087
:10199800BEA601200100C40900000000BCA6012069
:1019A8000100C40900000000BAA601200100C40912
:1019B80000000000B6A601200100C40900000000D4
:1019C800B8A601200100C40900000000B4A6012047
:1019D8000100C40900000000B2A601200100C409EA
:1019E80000000000659F012000C80100649F0120DD
:1019F80000C80100629F01200000FFFF0A000000EC
:101A0800609F01200100C800010000005E9F0120C6
:101A180032003075320000005C9F01207EFF140008
:101A2800050000005A9F012005002C010500000058
:101A3800589F0120055A0500559F012000FF01000D
:101A4800579F012002000000BC0F0120539F012076
:101A58000300000084DA0508549F012000FF0100FC
:101A6800569F012002000000BC0F0120529F012058
:101A78000300000084DA0508A49E0120FF7F01000E
:101A8800A09E012000000000FFFFFFFF01000000F2
:101A98009C9E012000000000FFFFFFFF01000000E6
:101AA800989E012000000000FFFFFFFF01000000DA
:101AB800B5F4010845F401080000000058E30508E2
:101AC80040A30120EE02CA08010000003EA3012045
:101AD80000C80100640000003DA3012000C8010007
:101AE800640000003CA301200200000064E4050833
:101AF8003E9F01200000803E050000003C9F012021
:101B080080C1803E05000000369F01200083007DD3
:101B180005000000349F012080C1803E05000000C0
:101B28002F9F012000FF0100289F01206400F4017D
:101B380001000000269F01206400F401010000005C
:101B4800249F01206400F40101000000229F01206D
:101B58000400000070E40508219F01200200000035
:101B680084E40508F39F01200D00000090E40508B7
:101B7800F09F012000640100EE9F01203200102731
:101B88000A000000EC9F01200D00000090E4050809
:101B9800EB9F01200D00000090E40508EA9F01205A
:101BA80002000000C8E40508000000000000000072
:101BB80000000000D4E4050845A30120410000000E
:101BC8000CE5050843A301200300000014E60508FE
:101BD80044A301200400000024E60508F59F012025
:101BE8000300000038E60508F49F01200300000008
:101BF80038E60508D2A10120000A0100D0A1012081
:101C08000000E80301000000CEA101200000E80365
:101C180001000000CCA10120000A0100CAA1012096
:101C28000000E80301000000C8A101200000E8034B
:101C380001000000C0A101200000E803010000002D
:101C4800C6A101200000E80301000000C4A1012092
:101C58000100E80301000000C2A101200105010004
:101C6800E0A101200200000048E60508DEA10120ED
:101C78000000F40101000000DCA101200000F401D3
:101C880001000000DAA101200000F40101000000B9
:101C9800D8A101200000F40101000000D6A1012014
:101CA8000000E80301000000D4A101200000E803BF
:101CB80001000000F2A20120006401000A000000F7
:101CC800F1A20120006401000A000000DFA2012047
:101CD80019640100DEA201200200000054E6050894
:101CE800DCA20120E803D0070A000000DAA20120E4
:101CF800006401000A000000CFA201200064010076
:101D0800CEA2012000640100D6A2012000640100D7
:101D18000A000000D5A20120006401000A000000AA
:101D2800D4A20120006401000A000000D9A2012009
:101D380000FF01000A000000D8A2012000FF0100F6
:101D48000A000000D7A2012000FF01000A000000DD
:101D5800D3A2012001FF01000A000000D2A2012045
:101D680001FF01000A000000D1A2012001FF0100CB
:101D78000A000000FE9F01200000F401010000009D
:101D8800FC9F01200000E80301000000FA9F0120E9
:101D98000000E80301000000F89F01200000E803AC
:101DA80001000000F69F01200000E8030100000088
:101DB80013A70120009601000CA7012000C801000C
:101DC8000BA70120006401000AA70120006401009C
:101DD80009A701200064010008A701200064010090
:101DE80007A70120FF08010006A7012001640100E0
:101DF800BDF2010881F201080000000060E6050854
:101E08000FA70120013201000EA7012001000000E8
:101E1800D0E605080DA7012004000000D8E6050853
:101E280005A701200096010004A701200064010015
:101E380002A701201400E8030100000000A7012008
:101E4800000030750A000000FEA6012000C801004D
:101E5800FDA6012000C80100FCA6012000C8010061
:101E6800FBA601200032010012A701200014010086
:101E780011A70120004B010010A701200400000059
:101E8800ECE60508FAA60120006401000A0000003B
:101E9800FDA2012032C805000A000000FCA20120B2
:101EA80001000000FCE60508FFA2012032C8050079
:101EB8000A000000FEA2012001000000FCE605085F
:101EC800FBA2012032C805000A000000FAA2012086
:101ED80032C805000A000000F9A2012032C8050036
:101EE8000A000000F8A2012032C805000A0000001C
:101EF800F7A2012032C805000A000000F6A201205E
:101F080032C805000A000000F5A2012032C8050009
:101F18000A000000F4A201200200000004E70508FE
:101F280022A701200000D007010000001CA7012003
:101F380000C801001BA7012000C801001AA7012042
:101F480000C8010020A701200000D0070100000000
:101F580019A7012000C8010018A7012000C8010026
:101F680017A7012000C801001EA701200000D00704
:101F78000100000016A7012000C8010015A70120D4
:101F880000C8010014A7012000C8010065F001087D
:101F98004DF001087111020810E70508E79F0120BC
:101FA800005A0100E69F012000C80100E49F0120BB
:101FB800E803D00701000000000000000000000056
:101FC80005150208ACE70508519F01200300000031
:101FD80000E80508509F0120000301004F9F0120E1
:101FE8000003010089EF01083DEF0108000000002F
:101FF80010E80508FDEE0108B5EE01080000000034
:10200800ACE80508D5EF01085511020800000000EA
:102018002CE90508409F01200103010009EC010893
:10202800E1EB010800000000ACEC050809F6010826
:10203800DDF50108000000002CED050825EE01087B
:10204800CDED0108000000009CED050875F00108C1
:10205800F94702080000000054EE0508D9160208E6
:1020680035F6010800000000FCEE0508C5F001087F
:10207800000000000000000098EF0508A9F1010821
:1020880049F1010800000000FCEF050845F20108CD
:1020980009F2010800000000B4F0050869700208A0
:1020A800F9F201080000000040F1050801A3012031
:1020B800010601000DF10108D9F001080000000037
:1020C80058F20508836F0208F912020800000000A0
:1020D800C8F20508A1F3010829F30108000000006F
:1020E80044F40508AD700208D91302080000000086
:1020F80040F5050800A30120010301001DF00108B7
:10210800EDEF01080000000014F60508F5100208BC
:10211800000000000000000078F605087DEE0108C8
:102128003D1102080000000014F705080000000037
:102138000000000000000000B0F705081DF40108C9
:10214800D11402080000000030F805080000000063
:10215800000000000000000058FA0508DC8A012091
:102168009CFF2C01000000003CAC0120E0150C177E
:10217800000000003EAC01200200000090FA0508B3
:102188001C9F012088136F17010000001E9F01206B
:1021980088136F1700000000AA4E012000000000FD
:1021A80000000000A84E0120000000000000000010
:1021B800A64E01200000000000000000A44E0120EF
:1021C8000000000000000000A24E012000000000F6
:1021D80000000000A04E01200000000000000000E8
:1021E8009C0D01200000000000000000A59E0120B9
:1021F8000300000080FB0508149F012088136F1757
:1022080001000000A68B012088136F170000000052
:102218000DED0108000000000000000090FB05081B
:102228007DA6012001000000E4FB0508A88B012021
:1022380001000000F0FB05089E8B01200200000051
:10224800F8FB050800000000000000000000000086
:1022580004FC0508F5EC010800000000000000007F
:10226800A0FC0508000000000000000000000000BD
:10227800F4FC050800000000000000000000000059
:1022880064FD0508209F0120020000009CFD050850
:10229800A28B0120E0150C170000000001F11F3F80
:1022A800D60100002CB8012080B8012001000000F0
:1022B8000001010100010100FFFFFFFF0000803F56
:1022C8000000000000000000000000000000000006
:1022D80000000000000000000000000000000000F6
:1022E800000000000000803F000000000000000027
:1022F800000000000000803F000000000000000017
:10230800000000000000803F000000000000000006
:1023180000000000010000000000FA430000FA433A
:102328000000803F798A03080000000000000000D8
:102338000000000000000000E0CD012008000000BF
:1023480000000000D0CD0120080000000985000829
:10235800ED840008A9840008000000009D8400089E
:10236800898400087584000800000000000000004F
:102378000000000000000000658400080000000064
:10238800558400082D8A0008FD850008C5850008C9
:10239800D98500087D8500086985000855850008ED
:1023A800B598000851840008CD830008A1E500080D
:1023B800FFFFFFFF02000000685E0C000100000044
:1023C800A00F0000B80B000002FFFF01FF00000093
:1023D800FFFF0000B4F3060800000802050304002C
:1023E80000000000BCF30608010008020504040010
:1023F80000000000BC9506080200FE010110030061
:10240800000000005C7906080300140200030000C5
:1024180000000000C4F3060804001F0202000800C0
:1024280000000000CCF3060805001F0202010800A6
:1024380000000000FFFFFFFF0B000000811A0108E9
:10244800E1190108E54C0108000000000000000047
:10245800B94A0108F14A0108000000000000000024
:1024680000000000010F0108F10E0108E10E01084B
:10247800D10E010869DF04083DDF0408E1DE040825
:102488006DCE0408FDDE0408A1DE04085DCE040854
:102498008C1B012065DE040885DE040855DE04086F
:1024A80095CE040811DE0408C9DD040891CE04089D
:1024B800681B012095D8040875CE040871CE04085D
:1024C80069CE0408E5D8040865CE040861CE04087E
:1024D800545C0608FFFFFFFF010000001F0000001A
:1024E8001C0000001F0000001E0000001F0000006C
:1024F8001E0000001F0000001F0000001E0000005A
:102508001F0000001E0000001F0000000068214C92
:1025180001250000345806080100000050C30000DF
:1025280001010000F4650608008002021F00000097
:1025380053544D202020202050726F647574202041
:102548002020202020202020302E30310080020240
:102558001F00000053544D202020202050726F642B
:10256800757420202020202020202020302E30317B
:1025780001FF0100F4010000B001000002000000AA
:1025880009000000FF000000CC1B01200000000033
:102598000000000000000000000000000000000033
:1025A8000000000000000000000000000000000023
:1025B8000000000000000000000000000000000013
:1025C8000000000000000000000000000000000003
:1025D80000000000000000000000000000000000F3
:0C25E800000000000000000000000000E7
:0C25F40001000000F43000202000000076
:08280000082800080040000850
:10800000026C03463AB11A6CD20608D50022012050
:1080100083F83C207047426480F83C20F3E71A6CF8
:1080200049494A4811401A6841F00201F0B4196404
:108030004168474D21F44031416041685C6821430B
:1080400041605168186921F48071D3F808C0DF6875
:10805000516054689E6A44EA0024AE4254605468F9
:1080600024F040745460506840EA0C0050609068FE
:1080700020F400609060916841EA0701916054D05B
:108080009068DC6A20F07060906091680E439660A2
:10809000906820F040509060916821439160906812
:1080A0009C6920F002009060916841EA440191606F
:1080B00093F82010002941D05468596A44F40064B0
:1080C000481E5460516821F460415160516841EA92
:1080D00040315160D06A0025DC6920F470005E698F
:1080E000611ED0622846D46A44EA0154D46294687E
:1080F00024F400749460946893F8301044EA4124A6
:108100009460946824F480649460916841EA8621C4
:1081100091605D641A6C22F0030242F001021A645D
:10812000002283F83C20F0BC7047916821F0706118
:108130009160916821F040519160B0E7516821F45D
:1081400000615160C6E700BFFDEEFFFF0023014064
:108150000100000F0129F0B42A4C4FF000062A4D0F
:1081600094BF002701272368EE626662A6626763F8
:10817000676B47EA42076763EE63EC6B002A38D10E
:1081800044F49574EC631C6824F001041C601C68C2
:10819000E407FCD4490289085960D8601968EAB933
:1081A00021F04001196019498B421DD018494FF444
:1081B0007410C860196841F01E011960596941F0D6
:1081C00080015961196841F00101196022B90E4A14
:1081D000D36A43F00803D362F0BC704741F040011A
:1081E00019600A498B42E1D14FF0746041F8500C9C
:1081F000E0E744F01A04EC63EC6A44F00804EC6233
:10820000C1E700BF301C0120002C0140586402402F
:108210000064024011480023024611780632032907
:1082200016D00133062BF8D10D49CA6D052A0ED0A0
:1082300002EB4203013200EB4303CA65032040F224
:10824000EB3140F2FF32187059809A8070477047C6
:1082500003EB430300EB4303F0E700BF681C01207E
:10826000301C0120124B30B41D6E6B6A28B943EAF2
:1082700001430020AB6230BC7047AC6A013803EBAD
:1082800014440BD0002303F14002013305EB8202BA
:10829000DBB25268834204EB1244F4D3403044EA28
:1082A000014405EB80004460002030BC704700BFF3
:1082B000301C0120037870B42BB30246C0F10105D5
:1082C000531912F8014FDBB2002CF9D101335B00D6
:1082D0000E4C03220B8084F8643484F86524017802
:1082E00079B1022300265A1CE518023354FA82F2AF
:1082F00085F86414DBB282F8646410F8011F002969
:10830000F1D170BC70470223E2E700BF301C0120AE
:10831000F0B40F4BC40800F0070700221E5D03EB0A
:10832000D005BE40F6B2C7F1080300278B4228BF34
:108330000B46C3F108049A40C91A46FA04F415F82A
:10834000016F42EA0402EED11046F0BC704700BF54
:10835000D421012030B5EFF31181802383F31288FB
:108360000A4AD2F8E035D2F8E445D2F8E005D2F86E
:10837000E455CAB282F31188013BA84294BF4FF47E
:10838000006000201B1B184430BD00BF301C0120C2
:10839000012380F851307047014BD3F8E80570474E
:1083A000301C012001207047024BC3F8EC25C3F8B4
:1083B000F0157047301C0120024BC3F8F425C3F8B8
:1083C000F8157047301C012070477047212870B5A0
:1083D00005D0222829D0202810D0002070BD0029E7
:1083E000FBD0072AF9D1184B18791C685A799B7968
:1083F000087100200C604A718B7170BD0029ECD0AF
:10840000072AEAD11148104B0C680E794D79D0F843
:10841000F02589791C601E715D719971002ADCD08C
:108420002146D0F8EC059047D7E70029D5D0022A9D
:10843000D3D1064AD2F8F835002BCED00988D2F82D
:10844000F4059847C9E700BF00000120301C012057
:108450000020704703460A2201481A80704700BF77
:10846000080001200346642201481A80704700BFBB
:1084700014000120012901D000207047014BD3F8DE
:108480009030184700000120012901D008F048BDB4
:10849000014BD3F88C30184700000120014BD3F872
:1084A000883018470000012010B40B780A460446B3
:1084B00003F00303012B05D0022B0BD000205DF845
:1084C000044B70478B8843B9204611465DF8044B36
:1084D0000CF0D6BC8B88832BF6D0034B5DF8044B95
:1084E000D3F88030184700BF0000012038B5054B95
:1084F00004460D46DB6F98472946204609F088FA66
:10850000002038BD0000012038B5054B04460D465B
:108510009B6F98472946204609F0F6FA002038BD9F
:1085200000000120F0B4002452004E1C2746030F27
:10853000B0F1204F4FEA001003F1300503F137038B
:1085400034BF0D550B5537550234A242EFD1F0BC64
:10855000704700BF024808B5FFF7ACFE014808BDF0
:10856000886A060894200120024808B5FFF7A2FE99
:10857000014808BD986A0608942001200B481A2279
:108580000B4B00681B680A80C01801D1094870476E
:10859000094B0822094910B51C68FFF7C3FF0422E4
:1085A00007492046FFF7BEFF024810BD107AF01FB2
:1085B000187AF01FB0000120147AF01FB2000120D9
:1085C000C2000120024808B5FFF774FE014808BD4B
:1085D000A46A06089420012008B520B90448FFF7D2
:1085E00069FE044808BD0448FFF764FE014808BD61
:1085F000B06A060894200120D46A060804230148C2
:108600000B807047CC00012000487047BC2101203E
:1086100000487047BC210120034B93F888050328CC
:1086200094BF002001207047301C0120034B93F8B9
:108630008805032894BF002001207047301C0120CA
:10864000034B93F88805003818BF0120704700BF1E
:10865000301C0120034B93F88805003818BF012017
:10866000704700BF301C012098B182680C4B12B1DA
:1086700007229A70704718780421DA6003281A617B
:108680001A750CBF80224FF480729970C3E90122E1
:108690007047034B012241F2E4715A705A547047FB
:1086A000007101200378022B0FD0006908B9012066
:1086B00070470E4B1B78032B12D080B24FF6F77326
:1086C000984294BF002001207047084941F65002AB
:1086D00043688A58B3EB422F2CBF0120002070471B
:1086E000034B984294BF0020012070470071012085
:1086F000F7FFFF0F30B40378022B13D0104A41F676
:108700004801436841F63C04555802F5C2510069DE
:108710002B400968023812595B0A01FB003030BC5B
:1087200010447047064B41F6300441F6340142686C
:108730001859595800EB410030BC00EB52207047EB
:108740000071012038B540F48062074C0B4640F2BE
:10875000FF55012100F03F00A563A360E2604CF0EB
:10876000DFFDA56338BD00BF002C01402DE9F843B3
:10877000884600294FD04718461E284C802507F10F
:10878000FF39EFF3118185F31288D4F8E025C9B2DF
:10879000D4F8E405D4F8E035D4F8E4C581F31188C1
:1087A000634594BF4FF400630023121A1344012B56
:1087B0001AD1012035F00CF9EFF3118185F31288FD
:1087C000D4F8E025C9B2D4F8E405D4F8E035D4F8FB
:1087D000E47581F31188BB4294BF4FF4006300231A
:1087E000121A1344012BE4D0EFF3118285F312889F
:1087F000D4F8E435D2B216F8011F234483F8FC15EF
:10880000D4F8E4350133C3F30A03C4F8E43582F342
:1088100011884E45B5D14046BDE8F883301C012093
:10882000F8B5002390F8505080F85030DDB1104971
:1088300041F270028A5C032A17D10E4E00F13C040B
:1088400056F8507C29462046FFF790FF56F8503CDA
:108850002D1A0444DB1B322B01D8002DF2D1B5FABE
:1088600085F04009F8BD0120FCE71846FAE700BF93
:10887000301C0120282D0120002280F85120CFE754
:1088800090F85020531C0244DBB280F8503082F83C
:108890003C1090F851200AB1132B00D9C0E7704763
:1088A000F8B5144641F270030A4A0D46D35C032B17
:1088B0000FD1094E56F8507C002C0ADD214628467F
:1088C000FFF754FF56F8503C241A0544DB1B322BAB
:1088D000F2D9F8BD301C0120282D012030B40D46FE
:1088E000044C134601462A46D4F8C00530BC4EF06D
:1088F000F3BC00BF301C01202DE9F84F454B9842D6
:108900000DD003F568530833984248D00023424AFB
:10891000184693811383C2E90433BDE8F88F3E4CB7
:10892000022300263D4FA4F14805DFF8FC8044F8FF
:108930004C3CD7F8D0303146B34206F1010602D0A4
:10894000A06A47F0CDFD94F82C302846A26A414633
:1089500085F82430283545F8082C47F0BDFF54F839
:108960004C3C9E42E5DB0023A37654F84C3C0120AE
:1089700054F83C1C34F8442C54F8405C12FB03F2CD
:1089800001FB03F334F8386CA281636134F8422CA4
:10899000234B216325612683E281A360BDE71E4C42
:1089A00002224FF0000B1D4FA4F148054FF4806ADE
:1089B0004FF040094FF4006844F84C2CD7F8D02011
:1089C000012659465A45B34402D0A06A47F088FDB3
:1089D0004FF00062A16A4FF4003094F82CC0296275
:1089E00085F824C0A5F804A0A5F81090A5F8068085
:1089F000AE74C5E90202FFF70DFC28466E7647F01B
:108A0000B9FE54F84C2C074B934545F8283BD5DB71
:108A1000A676AAE71971EF00282D01200000012099
:108A20007CD3050850D305081940EF0010B50C465B
:108A300047F038FB50B9074B93F83430012B4FF017
:108A400012030CBF04480548238010BD12230448BC
:108A5000238010BD282D0120FC000120E80001200A
:108A6000D4000120024B0146D3F8C0054EF04EBDA4
:108A7000301C01200023FF2010B5104CC4F88435B1
:108A8000FFF7F0FFFD20FFF7EDFFFF20FFF7EAFF04
:108A9000FF2808D1FFF7E6FFFF2804D104230220B6
:108AA00084F8883510BD064A0923002052F8502C5E
:108AB00084F88835C4F8782510BD00BF301C01202B
:108AC000282D012070B5092405460E46FF20FFF72A
:108AD000C9FFFF2803D1013CF8D1012070BDFE2859
:108AE00001D0022070BD324629460020FFF7F6FE75
:108AF000FF20FFF7B7FFFF20FFF7B4FF002070BD96
:108B000030B5952383B008240A0E05468DF805304C
:108B100040F040000B0C8DF80410E1408DF800008F
:108B20008DF801208DF802308DF80310FF20FFF73B
:108B300099FFFF2802D0013CF8D165B90622002137
:108B400068460924FFF7CAFEFF20FFF78BFFFF28C6
:108B500002D1013CF8D1FF2003B030BD10B50D4C5F
:108B6000002394F8DD25C4F884350AB10A4A9363DA
:108B70004CF0E0FD20B10423022084F8883510BDBC
:108B8000054A092352F8502C84F88835C4F8782512
:108B900010BD00BF301C0120282D012070B50F4DE5
:108BA00004460E4695F88835042B0BD0082B07D1C8
:108BB000D5F8803583420ED0FFF7D0FF022801D0D0
:108BC000012070BD08230220C5F88465C5F88045E2
:108BD00085F8883570BD022070BD00BF301C0120B3
:108BE00010B509F041FF124C58B194F88835032BA9
:108BF00014D894F87C350133DBB2072B84F87C352C
:108C000003D9002384F8883510BD0A4B012253F89C
:108C1000503C84F88825C4F8783510BD06483AF0F1
:108C200083FB0021024604F2BC504EF0B3F8E0E7AB
:108C3000301C0120282D0120801A060070B54379D0
:108C4000234C002B14BF0123002384F8B43503D137
:108C5000002384F8883570BD1E4D0021032095F94E
:108C60003F203AF08FFA0028F2D0466830464EF0A6
:108C700047FF84F8DC050028EAD095F83D303046FF
:108C8000003B18BF012384F8DD354EF083FF09F067
:108C9000EBFE38B994F87C3584F88805013384F804
:108CA0007C3570BD4CF01EFE40B194F87C3500223E
:108CB000013384F8882584F87C3570BD55F8502C34
:108CC000012384F87C05C4F8782584F8883570BDC4
:108CD000301C0120282D012010B54CF003FE58B1A6
:108CE0000C4C94F87C350133DBB2072B84F87C35CF
:108CF00003D9002384F8883510BD09F0B5FE00289B
:108D0000F7D0054B012253F8503C84F88825C4F86D
:108D1000783510BD301C0120282D01202DE9F84F99
:108D2000904C94F8B455002D00F0028194F88825F9
:108D300002278D4E531E082B3ED8DFE803F0343651
:108D4000AA3D6849163D05004CF0F4FC002840F0AF
:108D50000181D4F8783556F8502CFA33934228D252
:108D6000FFF7BAFF94F88825E4E74CF0E3FC00280D
:108D7000EFD0D4F884350022012B84F87C2540F212
:108D8000ED80D4F88015013B94F8DD550131C4F82D
:108D90008435C4F880150DB1734B9A6308230546DA
:108DA00084F8883511E084F888754CF0C3FC0028FD
:108DB00050D194F88825531EDBB2022B3ED9082AE5
:108DC00018BF042A0CBF012500252846BDE8F88FEE
:108DD000236B002B3AD1644B0722D4F8705553F81B
:108DE000503C84F88825C4F87835002DEDD0D4F8AF
:108DF00074350120D4F86425D4F86815A847D8E75D
:108E0000D4F8783556F8502C643393421ED2D4F8F7
:108E10002C80B8F1000FF3D14CF08CFC0028A1D0CD
:108E20000423D4F8705584F87C8584F88835002DA7
:108E300000F08E804046D4F87435DBE74A4BD4F816
:108E4000782553F8503C9B1AC82B76D80025284625
:108E5000BDE8F88F4CF002F90028AAD196F841300D
:108E6000002BA3F10203B3FA83F314BF0222012201
:108E70005B0984F87D2584F87E354CF0EFF80028F6
:108E80007FF46EAFD6F890200323C4F88C2584F8C5
:108E900088354CF0E3F800288BD1334A4FF0040EAC
:108EA000C4F88405032392F874B0B2F87610906F7A
:108EB00084F892B5976F4FEA106C966FA4F89015EE
:108EC0003F0CD2F878A0360A92F87C9092F87D5048
:108ED00092F87D00D2F8808025FA0EF5B2F886B0BF
:108EE00000F00F00B2F88610B2F88620C1F30B1123
:108EF00084F893C502F00F0C84F8947541EA1B21A5
:108F0000724684F8956501F00F0184F896A584F8FF
:108F1000979501F5FA6184F89C5584F89D05C4F88D
:108F20009885A4F89E1584F8A0C584F888E543E7E1
:108F3000284684F88855BDE8F88FFFF7CDFE94F8F1
:108F40008855082D18BF042D0CBF012500253CE7CE
:108F500005463AE7042384F8883536E7FAD1FFF767
:108F6000FDFD26E7301C0120282D01202DE9F041D0
:108F70004379434D002B14BF0122002285F8B4250C
:108F800003D185F88835BDE8F08190F8018004466A
:108F90000F4608F1FF3676B230463AF061FA022306
:108FA000C5F8C00585F8BC3523787BBBE478002C78
:108FB00044D13448C5F8D0453AF0B6F9002102460C
:108FC00031484DF0E7FE4FF47A7034F001FDD5F8EA
:108FD000D00537F0E5FA00210A222C4C0846FFF7AD
:108FE0007DFC01E0013C35D0D5F8C0054EF084FA97
:108FF0000028F7D1264B012285F87C0553F8503C18
:1090000085F88825C5F87835BDE8F08106EB860639
:10901000414600203E4496F903203AF0B3F8064654
:1090200030B140684EF06CFDB26885F8DE25C8B9F5
:10903000002385F8D435E478002CBAD0204637F0E8
:10904000A3F9044608B11E23C3800D21204637F042
:1090500041FAAEE795F87C3585F88845013385F807
:109060007C3590E7431E0B49002201EB4313172187
:10907000C5F8D8354EF078FD012385F8D43595E74D
:10908000301C0120801A0600EC210120A18601007D
:10909000282D01201001012010B5074CD4F8C0057F
:1090A0004EF02AFA0028F9D10A2034F085FC034852
:1090B000BDE810403AF02AB9301C0120EC21012013
:1090C0002DE9F8431C4D04468946904695F888657D
:1090D0001F46042E08D0082E02D00020BDE8F883D9
:1090E000FFF7C8FC0228F8D114483AF013F995F8B4
:1090F0007E35BBB961021120FFF702FDC0B9104AED
:1091000005230120C5F8649552F8502CC5F8684530
:10911000C5F87085C5F87475C5F8782585F8883563
:10912000BDE8F88321461120FFF7EAFC0028E6D0CD
:10913000FFF7B2FFD1E700BF301C0120EC21012076
:10914000282D012070B51F4D06460C4695F8883530
:10915000042B09D0082B24D1D5F8803583422ED09A
:10916000FFF788FC02281CD117483AF0D3F80021F9
:109170003720FFF7C5FC21461720FFF7C1FCC0B917
:1091800095F87E357BB971021920FFF7B9FC80B9DB
:1091900008230220C5F88445C5F8806585F8883520
:1091A00070BD012070BD31461920FFF7A9FC0028D1
:1091B000EED0FFF771FFFFF713FD032070BD022013
:1091C00070BD00BF301C0120EC2101202DE9F043CF
:1091D000054691B00E4690461F46484C94F88805C7
:1091E00004280DD0082807D1D4F88035AB427FD0B1
:1091F000FFF740FC0228F1D0012011B0BDE8F08358
:109200003F483AF087F894F87E35002B62D1690226
:109210001820FFF775FC002864D194F88895FF208A
:10922000FFF720FCB9F1080F0CBFFC20FE20FFF770
:1092300019FC94F8D41500294ED094F8DE250021AD
:10924000D4F8C0354FF0400E52064FF4806C4FF406
:1092500000700C330A92D4F8D825CDF80CE0CDF884
:1092600018C009900491106805910F91CDE907117C
:10927000CDE90B11CDE90D11117ACDE901360AF0D6
:1092800041F8D4F8D83501AA197A186809F0F4FF22
:10929000D4F8D8351B491A7A1868895CD4F8C025E7
:1092A000435843F001034350536843F002035360B3
:1092B000012206230020C4F86465C4F86855C4F888
:1092C0007085C4F8747584F86C2584F8883511B0FD
:1092D000BDE8F08329469BE74FF480723046FFF7E4
:1092E000FDFAE5E7FFF7D8FEFFF77AFC032084E7F5
:1092F000FF20FFF7B7FBFC2099E700BF301C0120DF
:10930000EC21012064D805082DE9F04F9B4C87B073
:1093100094F8B465002E00F0CB8194F8882504F20F
:10932000BC57DFF85C8204F2A459531E082B3FD8C7
:10933000DFE813F05000780059013E002C000900CE
:10934000B8003E00A30094F8D435002B00F0DA807A
:10935000D4F8D8150B7C08681F2B40F2FF81203B06
:109360002021456899400D4200F098811022C1608B
:1093700002FA03F3C360D4F8C0058368DD0740F147
:10938000B480C3688368D907FBD4AEE04FF40071A2
:10939000D4F86405FFF796FB012800F0A8810228A5
:1093A00000F0AD81002800F0C48194F88825531E98
:1093B000DBB2022B00F27281714BD4F8782553F89E
:1093C000503C9B1AC82B00F279810026304607B02A
:1093D000BDE8F08F384639F09DFF00210846FFF7C1
:1093E0008FFB0546FFF758FE012DDED14FF0000A36
:1093F000384684F87DA539F08DFF40F2AB11082086
:10940000FFF77EFB052800F08E81012800F06181C6
:10941000FFF742FE94F87D35002B00F0EE81022329
:1094200084F88835384639F075FF94F87D35002189
:109430003720022B0CBF4FF080450D46FFF760FB35
:1094400029202946FFF75CFB0546FFF725FE002D86
:10945000ABD194F87D35022B00F08B8184F87E55DA
:10946000384639F057FF00210920FFF749FB002853
:1094700000F08880FFF710FE97E70825FF20FFF730
:10948000F1FAFF2800F0B381013DF7D1D4F8783527
:1094900058F8502CFA33934287D2FFF7A1FB94F887
:1094A000882542E7FF200825FFF7DCFAFF2806D0D1
:1094B000013DEBD0FF20FFF7D5FAFF28F8D1D4F813
:1094C00084350022012B84F87C2540F2B081D4F849
:1094D0008025013B08210132C4F8843584F88815C1
:1094E000C4F88025E0E0D4F8C0054EF005F8002867
:1094F000F9D1D4F8C03594F8D4155A6822F0020294
:109500005A60C9B9D4F864354FF4807294F86C0588
:10951000002103EB0020FFF7E1F994F86C350133EB
:10952000DBB2022B84F86C357FF43FAFD4F8C03542
:109530009A68D20703D5DA689A68D207FBD400206C
:10954000FFF790FA0020FFF78DFAFF20FFF78AFA65
:1095500000F01F00052800F05481FFF741FBD4F80C
:109560007055002D00F0DC800022D4F87435D4F85A
:1095700068150120A84794F88825D6E6301C0120FC
:10958000282D012010214846FFF79CFA824600282A
:109590007FF470AF01217F20FEF7BAFE0128054657
:1095A0007FF468AF50460221FEF7B2FE002800F0BB
:1095B000FF8001287FF45EAF16213A20FEF7A8FE57
:1095C00001308002C4F88C05FFF766FD384639F09B
:1095D000A1FE00210A20FFF793FA002840F0E18065
:1095E000032384F88835102102A8FFF76BFA0028BE
:1095F0007FF4DBAE9DF815309DF816201B019DF819
:1096000009009DF80A5002F00F01DBB245EA00257F
:10961000DDF8110043EA12139DF8102000BA84F817
:10962000A01503F5FA639DF80B10C4F89805A4F88B
:109630009E3513099DF8080002F00F0284F89C354E
:10964000039BA4F89055C4F8943584F89D2584F8BC
:10965000920584F89315FFF71FFD94F87E35002BD3
:1096600064D17848BA4639F055FE4FF400711020A5
:10967000FFF746FA0546FFF70FFD002D7FF40DAF0B
:10968000714839F051FE0021024650464DF082FBF0
:1096900000230422C4F8843584F88825042A18BFDE
:1096A000082A0CBF01260026304607B0BDE8F08F1F
:1096B000304684F8886507B0BDE8F08FFFF790FA70
:1096C00094F88865042E18BF082E0CBF01260026CA
:1096D000EAE75046042202A9FFF700F99DF80B3093
:1096E000AB2B7FF495AE022384F87D3590E6D4F859
:1096F000783558F8502C64339342BFF456AEFFF7D8
:10970000CBFCFFF76DFAD4F870554DB10022D4F8B8
:109710007435D4F868151046A84794F8882504E6EF
:1097200094F8882501E684F87D5571E6DFF814A1E8
:10973000A6E70190FFF7B0FC04230198D4F8705518
:1097400084F87C0584F88835002DADD0D4F87435C4
:10975000D4F86425D4F86815A84726E620210568C2
:1097600099400D429AD01022816002FA03F383607F
:1097700001E6384639F0CEFD29463A20FFF7C0F918
:109780000346284604221D4602A9FFF7A7F845B95B
:10979000FFF782FC029B1BBAC3F3807384F87E350B
:1097A0005EE6FFF779FCFFF71BFA94F88825BCE525
:1097B00004212C20FEF7ACFD032182464E20FEF74B
:1097C000A7FD83460C213620FEF7A2FD0BF1020B0C
:1097D000421C05FA0AF502FA0BF2A2FB0501420A45
:1097E00042EAC152C4F88C25FFF756FCEEE6FFF7BB
:1097F00053FC042384F8883556E71E4684F88835E0
:1098000052E7124B0722D4F8706553F8503C84F8A5
:109810008825C4F87835002E3FF446AFD4F8743567
:109820000120D4F86425D4F86815B047BDE503D00D
:10983000042384F888351DE6FFF71CF902287FF41D
:10984000B4AD17E6EC21012040787D01282D0120E0
:10985000154BDB68C3F3022310B4C3F107041A1DD0
:10986000042C28BF0424062A4FF0FF328CBF033B90
:109870000023A240002821EA020101FA03F108DBDB
:1098800009010A4BC9B2034483F800135DF8044B85
:10989000704700F00F000901054BC9B20344197667
:1098A0005DF8044B704700BF00ED00E000E100E010
:1098B000FCEC00E030B5264C0022264841F287310E
:1098C000D4F8E03083B0244DA0FB030304F1A000E2
:1098D000C4F8A050DB0C013BC4E92B12C4E92932C7
:1098E00009F0B6FF1D4B062137201A6C42F020020A
:1098F0001A641B6C03F020030193019BFFF7A8FF80
:10990000D4F8A0304FF400001549164A4860D968D1
:1099100041F00101D96099680A40062A06D0B2F5E3
:10992000803F03D01A6842F001021A600E4B41F2E8
:109930008C0200200D499A5803F2FC54C3F8F80534
:10994000C2F81002C3F8F005C2E9811403B030BDBB
:10995000282D012083DE1B43001400400038024004
:1099600000E100E007000100301C01200C2E012066
:1099700038B50F4B0F4AD3F8E030A2FB03239B0905
:10998000013BB3F1807F10D20B4A0024F0200B4939
:109990000725536081F82300214694604FF0FF3083
:1099A0001560FFF755FF204638BD012038BD00BFC8
:1099B000282D0120D34D621010E000E000ED00E002
:1099C0002DE9F041D0F800E00C46DFF8588084B073
:1099D000DEF804501746DFF850C0194605EA0805BE
:1099E000DDF82880064603932C43424644EA0C0CDB
:1099F000CEF804C00BF046FE78B931680246039BEE
:109A000030468F624021CDF800800BF06BFE0038AD
:109A100018BF012004B0BDE8F081012004B0BDE80A
:109A2000F08100BF009800FC00200180F8B5134FC2
:109A300004460D460AE09B69DB0602D50BF0E2FD09
:109A4000D0B9D7F8E4385B1B0A2B08D823682A461C
:109A50000A2120469E69B606EDD50020F8BD636C4C
:109A60002021002201200B4384F84020636484F805
:109A7000411084F84220F8BD0120F8BD282D0120B6
:109A80004309012200F01F0084B0013B02FA00F0FC
:109A9000032B0BD8DFE803F015021E0C124B5A6C97
:109AA00002435A645A6C10400090009B04B0704707
:109AB0000D4B1A6B02431A631A6B10400390039B01
:109AC000F4E7094B5A6B02435A635A6B10400290F9
:109AD000029BEBE7044B1A6C02431A641A6C1040A9
:109AE0000190019BE2E700BF0038024058B1838833
:109AF0004FF00042B3FA83F332FA03F303D0024982
:109B00000A6813430B607047003C01402DE9F047A1
:109B100088B0884615461E46074639F089FA041E65
:109B200026DBDFF8749005F00303DFF870A009EB83
:109B3000860609EB04010AEB84043868B26E91F8DA
:109B4000586000211343C4F8E888C5F34112BC886B
:109B5000C5F38105079103A904930394CDE9052575
:109B60000BF03EFE0AEB060393F82829F02A02D8F0
:109B700008B0BDE8F087B144F022032199F97400E0
:109B800083F828290190FFF763FE01980CF0E4FDAB
:109B900008B0BDE8F08700BF50D30508282D01208C
:109BA00010B4B8B10D4CD4F83039102B05D10521C3
:109BB00000205DF8044B39F00BBA03EB430222445A
:109BC00082F83519012182F834090B4482F83619DC
:109BD000C4F830395DF8044B704700BF282D0120D0
:109BE0002021C078DCE700BF2DE9F04FBD4C0023F9
:109BF00087B004F6641894F87829C4F86439C8E981
:109C00000133C8E903331AB194F8793984F8643917
:109C100094F87A391BB194F87B3984F8733994F845
:109C20007E391BB194F87F3984F86E3994F87C3909
:109C30001BB194F87D3984F8693994F88039013B77
:109C40005FB2DBB2009701933B46013300F04781DE
:109C5000A54EB0220023A54802FB076106F5417915
:109C6000A0F1280502937C3106F5237A53F0AEF972
:109C70000122029B2E46BA40CB4602951F461D4646
:109C80009146307880B39A494FF0300C03E08B4511
:109C90002AD011F808CF6045F9D14A7812EA090FA5
:109CA000F5D036F071FBFB1DDBB210B100218371E2
:109CB000C171032136F00EFC30780023302101E021
:109CC0001AF83310884200F0A9810133102BF7D124
:109CD0004FF0000C6B1C01210720B570DDB20B4664
:109CE00086F801C0F170307101370536042FC8D1F4
:109CF00094F89009AB4603930127029DFFF7C0FE3D
:109D00004FF440317B4E0022C4F8B0B9C4F8981922
:109D10003046D4F88C19C4F8AC79C4F8A47984F826
:109D2000C479C4F89C29C4F8BC29C4F8C029C4F873
:109D3000A02984F8B429C4F8B829C4F8A829C4F81B
:109D40009419FEF75DF9009B002B40F0E580039B22
:109D5000002B00F0E180A6F108004EF06FFF012318
:109D600008F114084FF0000AEA78002A40F00E814A
:109D700005354545F8D1009B02200199234493F90C
:109D8000882939F0FFF90546002800F0A88000274F
:109D900040684DF0B5FE06213A46DFF874814DF07B
:109DA000E3FEBBF1010F4FF400638CBF4FF4806101
:109DB0003946D5E90102C4F8EC194FF400554FF4C7
:109DC0008071C4F8E029C4F8F0394FF4003203235D
:109DD000C4F8DC094046C4F8E479C4F8043AC4F88D
:109DE000E879C4F8007AC4F8087AC4F80C7AC4F8A0
:109DF000F459C4F8F819C4F8FC290CF00BFC94F8D9
:109E0000D039C4F8CC89012B0597C4F8146A66D000
:109E10000123D4F8945984F8D039AB68DE0713D401
:109E2000D4F8E0303449AA68B3FBF1F342F0010200
:109E300003EB4303AA600593059B2BB1059B013BF4
:109E40000593059B002BF9D1AB68D80747D5D4F80B
:109E5000D4292A4B134043F48073C4F8D4396B6877
:109E6000590507D5D4F8D43923F4405343F480532B
:109E7000C4F8D439D4F8D43913F4805340F01C8199
:109E8000C4F8D8391E4800231E496FF02202C4F8D6
:109E90001C0A1D4884F8D0395B46C4F8181A05F12D
:109EA0004C01C4F8280A2A606E68184A46F0806699
:109EB00017486E60AE6846F48076AE600CF01EFB0C
:109EC000144B5A68D20640F00481D4F894399A6849
:109ED00012F0405F03D19A6842F080429A6007B066
:109EE000BDE8F08F282D012050D30508B43601209D
:109EF000DCD50508BC36012040420F00FEF8FFFF0C
:109F0000C1130108C5130108B11301080C0000209A
:109F10000437012000230140B02200217C4848275B
:109F200053F0C6F8B0220021794853F0C1F8794BBC
:109F3000384684F8407AC4F83C3AFFF7A1FD4FF464
:109F4000403000230121D4F83C2AC4F8480A724862
:109F5000C4F85C1AC4F8541A84F8741AC4F84C3A59
:109F6000C4F86C3AC4F8703AC4F8503AC4F8603A8D
:109F700084F8643AC4F8683AC4F8583AC4F8442AF1
:109F8000FEF73EF862484EF059FEE8E694F8D00934
:109F90005A1C69780128D2B22F79CDF810A03BD095
:109FA0004FF00100092984F8D00952D94FF0030E6F
:109FB0006FF01D00D4F894C94FF007091EFB010093
:109FC000DCF80CE009FA00F907FA00F02EEA0907BC
:109FD000CCF80C70DCF80C703843CCF80C00062B75
:109FE0004FF0050020D86FF0040710FB0373D4F87E
:109FF00094791F2000FA03FC786B01FA03F320EA3E
:10A000000C007863786B03437B63D4F89439414840
:10A01000834234D084F8D0A91346A9E63F4A02EB24
:10A02000C30393F890C255E60C2B32D86FF0220789
:10A0300010FB0373D4F894091F2707FA03FC076B7E
:10A0400001FA03F327EA0C070763076B3B4303633B
:10A05000DBE7D4F8940901EB41094FF0070ED0F883
:10A0600010C007FA09F70EFA09FE2CEA0E0CC0F828
:10A0700010C0D0F810C047EA0C070761AFE71229FB
:10A0800021D01129C6D126494B6843F400034B6007
:10A09000C0E76FF0400710FB0373D4F894091F2743
:10A0A00007FA03FCC76A01FA03F327EA0C07C76241
:10A0B000C76A3B43C362A8E7D4F8D83923F0060344
:10A0C000C4F8D839DEE616494B6843F480034B6088
:10A0D000A0E7D4F894290F498A420DD05B68DB06CB
:10A0E0003FF5FDAE0F4B9A427FF4F9AE9A6812F03D
:10A0F000405F7FF4F4AEEEE6936813F0405F03D167
:10A10000936843F080439360054B5B68E7E600BFCC
:10A1100064370120002001406C37012050D305082E
:10A1200000230140002201402DE9F041D0F800E079
:10A130000C46DFF8588084B0DEF804501746DFF88C
:10A1400050C0194605EA0805DDF828800646039345
:10A150002C43424644EA0C0CCEF804C00BF092FAB1
:10A1600078B931680246039B30468F628021CDF872
:10A1700000800BF0B7FA003818BF012004B0BDE82A
:10A18000F081012004B0BDE8F08100BF009800FC20
:10A1900000200181034690F83C00012800F03E8138
:10A1A0000220F0B4012483F83D0083F83C40142AD7
:10A1B00045D8DFE812F04D004400440044007B0025
:10A1C000440044004400DA00440044004400AA0073
:10A1D00044004400440006014400440044001500CB
:10A1E0001A688E68156A0F6825F48015AB4C1562E5
:10A1F000106A556820F40010D2F854C040EA0650A6
:10A20000A74E0CEA0404B24244EA072400F0088195
:10A2100006F58066B24200F003814E6855605465D1
:10A22000D6651062506D0C6940F400605065506D49
:10A2300020F480605065516D41EA0421516500228F
:10A240000121104683F83D1083F83C20F0BC704794
:10A250001A68D1F808C0156A0F6825F00105914CFD
:10A260001562106A5668956920F002002C408C4DEA
:10A2700040EA0C00AA4244EA070400F0DD8005F53C
:10A280008065AA4200F0D8804D685660946155639D
:10A29000106290690C6940F008009061906920F0AC
:10A2A00004009061916921439161C8E71A68D1F86F
:10A2B00008C0156A0F6825F010057B4C1562106AFE
:10A2C0005668956920F020002C40754D40EA0C102E
:10A2D000AA4244EA072400F0C38005F58065AA423B
:10A2E00000F0BE804D68566094619563106290697D
:10A2F0000C6940F400609061906920F48060906186
:10A30000916941EA0421916199E71A688E68156A9A
:10A310000F6825F48055644C1562106A556820F466
:10A320000050D2F81CC040EA06305D4E0CEA04042E
:10A33000B24244EA072400F08D8006F58066B242FE
:10A3400000F088804E685560D46116641062D06950
:10A350000C6940F40060D061D06920F48060D06165
:10A36000D16941EA0421D16169E71A68D1F808C0CE
:10A37000156A0F6825F480754A4C1562106A566894
:10A38000D56920F400702C40454D40EA0C20AA42CB
:10A3900044EA070473D005F58065AA426FD04D6882
:10A3A0005660D461D5631062D0690C6940F0080032
:10A3B000D061D06920F00400D061D1692143D1611E
:10A3C0003DE71A688E68156A0F6825F48035374CAA
:10A3D0001562106A556820F40030D2F854C040EA83
:10A3E00006402F4E0CEA0404B24244EA07041DD092
:10A3F00006F58066B24219D04E6855605465966580
:10A400001062506D0C6940F008005065506D20F0EE
:10A4100004005065516D2143516510E702207047DB
:10A4200025F480254E6945EA8625F6E625F4803533
:10A430004E6945EA0625DFE726F4407C20F0080057
:10A440008E69CF684D693843354320F0040045EAF2
:10A450000C0619E725F480454E6945EA861571E733
:10A4600026F4406C20F080008E69CF684D6940EA88
:10A470000710354320F040004CEA850632E726F409
:10A48000405C20F400608E69CF684D6940EA072087
:10A49000354320F480604CEA051680E7FF8FFFFE0D
:10A4A000000001408CFFFEFFFF8CFFFE8FFFFEFFD0
:10A4B0000246006810F0400034D11F49F0B4D1E9E1
:10A4C000C435D1F81C732B431468D1F828533B438F
:10A4D000D1F83073D1E9C86CB7F5005F43EA0603E1
:10A4E000164E43EA0C0306EA0406D1F82C4343EA6D
:10A4F0000503D1F8185343EA0403114C45EA1C45FF
:10A5000043EA070343EA06031360536804EA0304BB
:10A5100045EA040555600BD0D36923F40063F0BC11
:10A52000D3617047D369012023F40063D36170477E
:10A53000B1F834331361EFE7000001204000FFFF62
:10A54000FBF0FFFFF8B5D8214D4D01FB0051D1F8CC
:10A55000EC3A002B7AD0044691F8F60AFFF790FA0D
:10A5600091F8F62A0121530902F01F02013B01FA7A
:10A5700002F2032B08D8DFE803F077027D71414B2C
:10A58000596A21EA02025A62D823661C03FB04536B
:10A59000F6B293F8F00A35F0F7FE074610B1122331
:10A5A000C6718371D82303FB045393F8F10A35F085
:10A5B000EBFE10B11323C6718371D82303FB045340
:10A5C00093F8F20A35F0E0FE10B11423C6718371DE
:10A5D000D82303FB045393F8FA2AC2BB93F8F32A57
:10A5E00038462E2135F022FFD82000FB04540225E6
:10A5F00094F8F10A35F0C8FE94F8F42A2E2135F0CB
:10A6000015FF94F8F20A35F0BFFE94F8F52A0E21F2
:10A6100035F00CFFD4F8EC0A036823F04003036024
:10A6200008F0D6FDD4F8EC0A174A01214368C2F8B5
:10A630001C5343F48053C2F820134360FFF738FFE4
:10A64000D4F8EC2A136843F040031360F8BD93F884
:10A65000F32A38464E2135F0E9FEC5E7094B196962
:10A6600021EA02021A618FE7064B596921EA0202C8
:10A670005A6189E7034B196A21EA02021A6283E7E9
:10A68000282D01200038024000000120F8B5474E77
:10A6900096F84C4E04EB4403650006EBC30393F8B5
:10A6A000503E032B77D8DFE803F0492A1F022544E8
:10A6B00006EBC505D5F8543E002B6ED196F8B02EAA
:10A6C000944268D0013404F003018A4286F84C1E9B
:10A6D00061D001EB41040222184606EBC404C4F821
:10A6E000543E84F8502EF8BD2B1906EBC303D3F863
:10A6F000542E72B1013A0020C3F8542EF8BD2B1924
:10A7000006EBC303D3F8542E002AF3D1022283F8B8
:10A71000502E254406EBC50595F85C3E013BDBB2A7
:10A7200085F85C3EF3B1224B0120D3F8382302F2C6
:10A73000E733B3FBF2F3C5F8543EF8BD39F09EFBA6
:10A7400048B31B4A42F20F732C440121D2F838233C
:10A7500006EBC404134484F8501EB3FBF2F3C4F8B0
:10A76000543EF8BD124B601C0327D5F8581ED3F891
:10A770003823384096F8B04E531E85F8507E001BA3
:10A780000B4418BF01209A42B3FBF2F188BF0020AE
:10A79000C5F8541E30B90120F8BD013B0020C5F8B2
:10A7A000543EF8BD0139C5F8541EF8BD282D0120CE
:10A7B0000000012003689B0AA3F58013522B00D9E7
:10A7C00070470E4A134470B593F80C4384B00D2CB7
:10A7D00012D800294FF0000309494FF0010514BFBA
:10A7E0001E460226427901EB84106946CDE90065D8
:10A7F000CDE9023308F02CFF04B070BD50D305083A
:10A80000DC3B012033492DE9F84F91F841101C46FB
:10A81000012507460229DFF8C4A0104619464FF06B
:10A820000002DFF8BC9018BF7F02CAF82C50FDF779
:10A8300091FC294A630240F2FF5BC9F824204FF4DF
:10A840000075C9F828304FF48A62D9F82C300121FC
:10A8500010205E4643F09303C9F82C30C9F838B095
:10A86000C9F808504D46C9F80C204AF059FD012C92
:10A87000C9F838B04FF00A048CBF4FF052084FF0BF
:10A8800051084FF0000939464046FDF75BFF013C97
:10A89000034640F2774201213720E4B223B918463B
:10A8A000CAF82830BDE8F88FAE63C5F80890EA60B2
:10A8B0004AF036FDAE63034608B1002CE3D1002B0D
:10A8C000EDD000221846CAF82C20CAF82830BDE87E
:10A8D000F88F00BF282D012000E1F505301C012074
:10A8E000002C01402DE9F843DFF8788004460F463C
:10A8F000914698F888551E46042D08D0082D02D0A0
:10A900000020BDE8F883FEF729F90228F8D10123D9
:10A910003A4620460021FFF775FF68B1FEF7DCF9E3
:10A92000D8F87045002CEBD00022D8F87435D8F850
:10A9300068151046A047E3E7094A05230120C8F837
:10A94000647552F8502CC8F86845C8F87095C8F876
:10A950007465C8F8782588F88835BDE8F88300BFA5
:10A96000282D0120301C01202A492DE9F04F91F8B3
:10A9700041100124DFF8A8B00746022983B0CBF8C4
:10A9800030409A4618BF4702012B4FF00A04224D6F
:10A9900040F2FF568CBF4FF059084FF058084FF067
:10A9A0000009009239464046FDF7CCFE013C0346C3
:10A9B00040F2774201213720E4B2BBB900985146FA
:10A9C00001220193154CFDF7C5FB13494FEA4A22BA
:10A9D0000020019B4C628A62CA6A42F09102CA62FC
:10A9E000CBF82800184603B0BDE8F08FAE63C5F879
:10A9F0000890EA604AF094FCAE63034608B1002C6C
:10AA0000D0D1002BDAD000221846CBF8302003B08A
:10AA1000BDE8F08F282D0120002C014000E1F50554
:10AA2000301C01202DE9F84F05460E4690461F4682
:10AA3000394C94F8880504280CD0082807D1D4F89C
:10AA40008035AB4206D0FEF789F80228F1D001200C
:10AA5000BDE8F88FDFF8C8A0C4F86465DAF838906C
:10AA6000C4F86855C9F34F234FEA59220F2B2BD84E
:10AA7000D4F884B5BBF1000F26D094F8DD1519B3D6
:10AA8000B9F5005F41D025484FF400723146484483
:10AA900052F09CFA09F50072C2F34F23CAF838202D
:10AAA000520A102B31D0BBF1010F2ED0D4F88025E3
:10AAB0000BF1FF33042102200132C4F8843584F8FD
:10AAC0008815C4F88025C3E701234FF00109284603
:10AAD000062532460021C4F87085C4F8747584F8E0
:10AAE0006C9584F88855FFF73FFF0028B0D0FEF73B
:10AAF000F3F8D4F870556DB14846D4F87435D4F8ED
:10AB000068150022A8470320A2E792B2034E013A3B
:10AB1000AD1ADAE703209BE7301C01200051012029
:10AB2000282D01200378012B01D00020704790F9D7
:10AB30000420084902EB420201EB421292F8D111C3
:10AB4000202901D018467047D2F890319869C0F397
:10AB5000C0307047203E012030B5044683B0012349
:10AB60000D460DF107020848214638F04FFD9DF8CB
:10AB7000072035EA020304D02A432146024839F06F
:10AB800023F803B030BD00BF1C41012073B50D4E4A
:10AB90000546FF230C460A46014630468DF807302D
:10ABA00038F006FC01230DF1070245F08001304624
:10ABB00038F0E6FB9DF80700031B5842584102B0ED
:10ABC00070BD00BF1C410120F0B5104D83B004469C
:10ABD0000F4695F8FC621346022E08D00A4601463D
:10ABE00005F53F7003B0BDE8F04038F00FBD05F546
:10ABF0003F7001924CF09EF8019B3A46214605F5C4
:10AC00003F7003B0BDE8F04038F0BABB203E0120F1
:10AC100038B50378022B04D00122BDE8384038F063
:10AC20001DBF04460D464CF085F8012229462046FA
:10AC3000BDE8384038F0BCBB10B50B4CD4F810035D
:10AC400035F0AEFCD4F8100308B12123C3800121F4
:10AC500035F040FC054838F067FB03210246044804
:10AC6000BDE810404CF096B8203E01208096980038
:10AC70001C41012037B50023384C8DF8073094F87B
:10AC8000543303F0FD02012A05D194F85C2312B974
:10AC90000C2284F85C23022B314D1DD0032B30D0C5
:10ACA00001220B2128464AF0B5F8042032F090FE2C
:10ACB00001230DF10702002128464AF0CCF8C0B369
:10ACC0009DF80730482B34D1264BC4F84833264B27
:10ACD000C4F84C3303B030BDD4F8680335F060FCE1
:10ACE000D4F8680308B13523C380012135F0F2FBA5
:10ACF0001E4838F019FB0321024628464CF04AF85A
:10AD0000CEE71B4B46F2A8123721D4F85803C3F8FC
:10AD1000482712224AF054F80D222421D4F858036F
:10AD20004AF04EF830226A21D4F858034AF048F825
:10AD3000B6E794F85433022B03D0032B07D000203E
:10AD4000C8E7D4F8680338F0C1FA0020C2E710223F
:10AD50003721D4F858034AF033F8F0E7203E0120B9
:10AD600074410120AF4E0508314F050880969800C8
:10AD700000000120F8B506466748684C0F4638F0D9
:10AD8000D3FA014600234FF4F072A4F89C1304F5A3
:10AD90006870202184F89E3384F89F3352F088F93C
:10ADA00004F5B0604FF4F072202152F081F994F86C
:10ADB0006107002800F0A48094F86237002B00F0AF
:10ADC0009F8035F0E1FA0546C4F8780735F0C4FBFA
:10ADD000002800F095800DB12323EB800D2128463B
:10ADE00035F078FBD4F8780735F0DAFB94F8620791
:10ADF000013840B238F034FB02230546464884F857
:10AE00006437C4F8685738F08FFA034628465B0069
:10AE100099B24CF039F8424838F07CFAFF218C2086
:10AE20004CF09CFB05463E4838F070FA1B2D6AD169
:10AE30000122D4F8783784F89E230BB12322DA80DC
:10AE4000374838F067FA40210A204CF087FBFF2191
:10AE50008A204CF083FB03463148C3F3801384F807
:10AE60007C3738F053FA94F86037012B3CD0022B32
:10AE700033D053B3B4F89C2394F87D37182B07D103
:10AE800094F87C37A4F88077A4F88427A4F8823754
:10AE9000032123484BF07EFF214838F03BFA022182
:10AEA00000204CF05BFB1E4838F030FA7278B37823
:10AEB00000203178C2F12002C3F1100384F8892701
:10AEC00084F88A3784F88817F8BD134838F02CFACC
:10AED000400082B2A4F89C23CEE70F4838F024FA51
:10AEE0000246A4F89C23C7E70B48002FF6D094F83D
:10AEF0007C37002BF2D138F017FA400082B2F0E72D
:10AF00006FF00100F8BDD4F87807202135F0E2FA9F
:10AF10004FF0FF30F8BD00BF80969800203E012022
:10AF2000844501200146014838F012BAAC450120A1
:10AF300030B40023314D32494CF25034C5F8BC379F
:10AF4000304AD1F8E40804E0D1F8E4381B1AA342EF
:10AF50000FD8D368DB03F7D4D16811F4F9710BD1A2
:10AF6000D06810F0010002D001230846D36030BC45
:10AF70007047032030BC7047D3689B0705D5D5F8D0
:10AF8000BC3743F02003C5F8BC371E4BDB68DC063A
:10AF900005D5D5F8BC3743F01003C5F8BC37194BBD
:10AFA000DB68980605D5D5F8BC3743F00803C5F82B
:10AFB000BC37144BDB68590605D5D5F8BC3743F0D0
:10AFC0000403C5F8BC370F4BDB681A0605D5D5F866
:10AFD000BC3743F00203C5F8BC370A4BDB68DB051E
:10AFE00005D5D5F8BC3743F04003C5F8BC37054B51
:10AFF0004FF4F9720120DA6030BC7047203E012026
:10B00000282D0120003C0240094B93F8C237042B45
:10B0100008D9053B032B08D801231A4600B1037059
:10B020001046704700230122F8E700231A46F5E78F
:10B03000203E01202DE9F04FDFF8E4916B4BD9ED74
:10B04000037A09F24C62F8EE677A2DED028B93F8E1
:10B05000E43785B0C2ED007A002B52D1DFF8C4A1ED
:10B06000C9F8543699F85806E0B1604B0021DFED7D
:10B07000605AB3F8E837DFED5F6A07EE103A5E4BCF
:10B0800067EEA66AB8EE477A03EBC00285EE876AE0
:10B0900036EE266A86EE867A1960083303ED017A69
:10B0A0009A42F9D19AF8342A9AF800304F49134459
:10B0B000DFED524A91F8E21713FB00F39FED505A6F
:10B0C00006EE101ADFED4F6ADBB24F4AB8EEC66AE1
:10B0D00007EE103AB8EEC77AC4EE865A27EE057A24
:10B0E000E7EE276AF7EE667AFCEEE77AC2ED005AE1
:10B0F00017EE903A89F8A83705B0BDEC028BBDE891
:10B10000F08F3A4803EBC301DFF818A1B0F8E62747
:10B11000890090F8E50707EE102A9FED3C6A06EEDD
:10B12000900ACAED047AB8EEC77A0122FCEEE77AFB
:10B130000291F8EEE66A8AF8003027EE067A0023DC
:10B1400017EE901A9FED328A019089F85026C9F8BF
:10B1500054A603938AED037ACAED016A99F858362A
:10B160006BB32C4B4FF0000B039A9E18029BA6F179
:10B1700014043546002706EB030807EE907A2846AC
:10B1800024350122B8EEE70ADAED030A009152F005
:10B19000C7F8019B454584ED0B8A04F1240484ED36
:10B1A000018A1F4484ED048A84ED038A0099E4D166
:10B1B0000BF1010B99F858266C369345D6DB039BAF
:10B1C00003F55873B3F5226F0393C7D1D9ED037A12
:10B1D0009FED116AB8EE677AD9F854360F4AC6EE79
:10B1E000076AD2ED007AC3ED026A3BE7203E0120F8
:10B1F00083F9223EBD3786350C4601205555554012
:10B200006E12833A48E1FA3EB00700200AD7233C89
:10B2100000000000083100200060EA4858060020C5
:10B220000C000020F4300020934A07EE900A9FEDB6
:10B23000930AB2F85038F8EE677AB2F84A18B2F8C2
:10B240004E2880EE270A2DE9F04F2DED068B85B0B4
:10B250001C468B4FF6EE008A03935B00A7F8AC27E1
:10B2600007F5FB668B42A7F8B047B8BF0B469DB207
:10B27000A7F8B4374FF006FE07EE104A4FEA45082C
:10B28000DFED807AB8EEC7AA07F2BC72814601955D
:10B2900007F6F80407F61825B0FBF8F8B8F1010F27
:10B2A000B8BF4FF001085FFA88F8B0FBF8F399B225
:10B2B00087F8B88708EE101AB8EE488A28EE278A71
:10B2C0008AEE080A82ED008A30EE280A4FF0DAFD95
:10B2D000DDED017A0228F8EEE77AB8BF022087EEAA
:10B2E000880AC3B2009387F8C03730EE280A4FF0BF
:10B2F000C9FD07EE909AF2EE085A9FED637AF8EED8
:10B30000E77A2328009B07F5F962A8BF232097F866
:10B31000A8AE85EEA76AD2ED016A5FFA80FBABEBBF
:10B32000030987F8C4B709F10103029376EE077A9F
:10B3300086EE277A82ED007ABAF1000F2AD107F65D
:10B34000AC69DFED529A9FED529A07EE90AA0AF18E
:10B35000010A09F10809F8EEE78A68EEA98AB0EE59
:10B36000680A44F0A7FDB0EE408AB0EE680A44F0E7
:10B37000B5FDB0EE680A44F0B1FD28EE098A20EE72
:10B38000090ABAF1240F09ED028A09ED010ADCD19C
:10B39000DFED406A029B00203F494FF0000EDDF8D0
:10B3A00000C093FBF8F909F10109334606F8080CCF
:10B3B00006F807CC06F806BC06F8048C06F8059CCF
:10B3C00043F804EB9C42FBD12346D1F860A3D1F8AB
:10B3D0006423C3F800A0083343F8042CAB42F8D12F
:10B3E00006F5127603F512752C4B04F512749E4285
:10B3F000DBD107EE908AB7EE005A019BF8EEE75AD0
:10B40000039A97F8D8059B1A254C85EE256A07EE16
:10B41000100A07EE903A0123C4ED7B6A04F15C0543
:10B4200087F8A83E2346203487F8DD85B8EE477AB2
:10B43000F8EEE77AC7EE876AB6EE007A83ED006A27
:10B4400088B12246002307EE903AB0EE4A6A0133F3
:10B45000F8EEE77AD9B277EE877A8842A7EEA66A45
:10B46000A2EC016AEFD81434AC42E9D105B0BDECCE
:10B47000068BBDE8F08F00BF203E012000247449F8
:10B480000C000020398E633C83F9223DC3B8B23DE5
:10B4900072F97F3FBC297E3F50D30508BC0E0020C7
:10B4A000EC050020084800230246117806320229E4
:10B4B00004D00133062BF8D10020704703EB43037F
:10B4C00000EB4300704700BF681C01200021094BBE
