:020000040800F2
:10000000F0FF001071CE0608A5F6000849F80408B4
:1000100011CF060811CF060811CF06080000000016
:10002000000000000000000000000000A1F6000831
:100030009DF600080000000099F60008FDF804088D
:1000400011CF060811CF060811CF060811CF0608F8
:1000500011CF060811CF0608712E05089D2F05083F
:10006000612F0508252F0508E92E0508AD8E060825
:100070009D8E06088D8E06087D8E0608698E060800
:10008000558E0608418E060811CF060811CF0608C6
:1000900011CF060811CF060811CF0608AD2E0508AE
:1000A000898C0408098D0408798C04082D8D0408B6
:1000B000FD8C0408ED8C0408DD8C040865BB060883
:1000C0006DBB060859BB060861BB060811CF0608C0
:1000D00011CF06084DFD040891FC0408D5FB040867
:1000E000352E050811CF0608610F0108698C040838
:1000F000998C0408598C0408BD8C04082D8E0608C0
:1001000011CF060805690608CD8C040811CF060832
:1001100019FB04085DFA0408890704087507040838
:10012000198E0608058E0608F18D0608DD8D060875
:10013000C98D060811CF060811CF060811CF060891
:1001400011CF060811CF060811CF060805F00008E8
:10015000B58D0608A18D06088D8D0608A1F9040845
:100160004DBB060855BB060811CF060811CF06087F
:1001700011CF060811CF060811CF060811CF0608C7
:0801800011CF060811CF06089B
:0801880020CA0600010000007E
:100190000E020100020000007C610020EC610020E2
:1001A000000000005831080814020100050000009A
:1001B0004C3C0020F0610020000000005A3108088B
:1001C0001302010004000000BC260020F86100209A
:1001D000000000006031080812200100110000003A
:1001E000D8610020FC610020000000006431080894
:1001F0000D1001007000000000600020106200205F
:10020000000000001D1704080902010001000000A1
:10021000685F00208062002000000000763108083E
:10022000FD010100240000000C5F0020846200201A
:10023000000000008F010508FB0101000100000023
:10024000C85B0020A8620020000000006994050837
:10025000FC01010009000000945A0020AC6200205B
:100260000000000071940508F7010100060000007D
:10027000885A0020B8620020000000007831080889
:10028000F901010004000000845A0020C06200202F
:100290000000000039020508160215003F000000AA
:1002A0006C2F0020C462002000000000FD930508B0
:1002B0003400010010000000785900200463002081
:1002C00000000000998D02081102010008000000E2
:1002D0005059002014630020000000007E310808FF
:1002E0001212010004000000485900201C63002085
:1002F00000000000863108081830010034000000BA
:10030000145900202063002000000000419E0508D1
:10031000000201000B0000009855002054630020EB
:10032000000000004D950508FF11010006000000C7
:10033000405500206063002000000000499405083B
:10034000081203000F0000004C55002068630020D5
:100350000000000055950508FA01010003000000A7
:10036000304F00207863002000000000359505081C
:100370000A9001002C000000004F00207C63002048
:1003800000000000D56802082042010006000000BD
:10039000B84E0020A863002000000000BD8D0208B8
:1003A0000610010024000000482F0020B063002048
:1003B00000000000AD9405080C02010004000000DC
:1003C0007C4E0020D4630020000000002595050825
:1003D000110001000C000000FE3E0020D863002048
:1003E00000000000B9160408FE010100140000001E
:1003F000C43D0020E463002000000000AD95050826
:100400000B3001001A00000080B4002000BB002067
:10041000000000008C3108081F500100240000007B
:100420009CB300201CBB002000000000A83108087D
:10043000050201000400000010B6002040BB0020AF
:1004400000000000CC310808030101000A00000090
:10045000C8B3002044BB002000000000251C010898
:10046000010201000B000000C0C00020E0D100200C
:10047000000000003D950508020201000300000095
:10048000B8C00020ECD100200000000000000000F7
:100490001B02010010000000A4C00020F0D10020C9
:1004A00000000000899405081B1001000C000000EA
:1004B00010BE002000D2002000000000458B010883
:1004C00021020100F000000090BC00200CD20020AE
:1004D00000000000E9A00108371001003000000012
:1004E00080C10020FCD2002000000000D0310808AC
:1004F000161001000600000068C000202CD3002068
:1005000000000000003208082F1001002200000047
:10051000BCD1002034D300200000000006320808BF
:100520002322010010000000A0BF002058D30020AB
:1005300000000000283208081E0001000900000029
:1005400094BF002068D30020000000003832080863
:10055000052001000C00000038C0002074D30020EA
:100560000000000044320808FD1701007E00000072
:1005700050BB002080D3002000000000C58401088B
:10058000F5A101007000000018BC002000D400207C
:10059000000000006D9801082320010010000000F9
:1005A000DEC0002070D40020000000002D69020889
:1005B000261001000E00000090D4002080D40020FE
:1005C000000000001983010814000100050000006C
:1005D00084E00020A8E0002000000000503208085D
:1005E000012001000C00000034D90020B0E0002000
:1005F00000000000563208080E200300BC01000075
:1006000008D60020BCE0002000000000E1F5020850
:1006100013000100040000005CDD002078E20020EF
:10062000000000006432080801010100040000001D
:100630004CD500207CE200200000000000000000FB
:10064000000101000400000044D5002080E20020E9
:1006500000000000683208080201010003000000E9
:1006600040D5002084E200200000000051C00308B3
:10067000220201001C01000018DB002088E200209B
:1006800000000000F99D05080C400600E400000091
:10069000ECD70020A4E300200000000011C00308F4
:1006A0001500100070000000DCF0002050F1002068
:1006B0000000000000000000030001000100000035
:1006C000D4F00020C0F10020000000000000000075
:1006D0002A00080060000000ECEA0020C4F10020BD
:1006E00000000000718D02082C00040010000000C2
:1006F00034F2002024F2002000000000398B0208B0
:100700002B0012002400000068F2002044F20020B8
:10071000000000000D8B0208292014007800000062
:1007200068EE00208CF200200000000000000000B5
:1007300019020100100000000CEE002004F300205C
:100740000000000059940508F62101000C0000008B
:1007500050EC002014F30020000000006C32080868
:100760001C0202001C000000E4EB002064F30020E7
:1007700000000000E59B050828300100160000007D
:1007800000EC002080F3002000000000C990020867
:1007900004120100020000004CED002098F300203C
:1007A00000000000783208080F020100010000007C
:1007B00048ED00209CF30020000000007A32080879
:1007C000F821010006000000FCF5002050F6002092
:1007D000000000007C320808101001000200000038
:1007E00020F6002058F600200000000082320808A1
:1007F000190001000500000070F500205CF60020E3
:1008000000000000843208081A0001000E000000F9
:100810000CF5002064F60020000000008A32080871
:10082000290201004000000024F900207CFF002084
:1008300000000000983208080A02010014000000BD
:100840002CFF0020DCFF002000000000DDBF0308BB
:10085000020001000C0000007400012030020120A1
:10086000000000000000000025201E002C010000F8
:10087000800001203C020120000000000000000078
:100880001A0201003C000000A80401205C0A0120BB
:10089000000000009D9E0508031201003D000000BD
:1008A00000090120980A012000000000D832080841
:1008B00038100100010000008C030120D80A01203B
:1008C0000000000016330808040008008000000043
:1008D000B00B0120300D01200000000000000000DE
:1008E0002802040004000000700B0120B00D01205C
:1008F00000000000A994050827020400040000007D
:100900006C0B0120B40D0120000000009D9405082F
:100910001F020800100000005C0B0120B80D012030
:1009200000000000019405080B2201003D000000BA
:10093000301201204418012000000000183308087C
:100940000D1201001400000020180120841801205D
:1009500000000000583308081E02010006000000D5
:10096000280F012098180120000000006C330808AF
:100970000702010002000000C8170120A018012092
:1009800000000000723308081D020200060000008B
:1009900068170120A41801200000000000000000DA
:1009A000061203001200000078170120AC39012064
:1009B00000000000B19C050839000100050000009E
:1009C0008C170120C039012000000000ED930508BC
:1009D00027000100040000009C120120C8390120FA
:1009E000000000007433080810020100010000003C
:1009F000907301208C7301200000000078330808F8
:100A00000403090412010002EF020140830456327C
:100A10000002010203010000120100020202004074
:100A2000830440570002010203010000FFFFFFFFA3
:100A3000000004010000000000000002100000009F
:100A4000070000007D000000E09D0708E89D070802
:100A500000000000D9C00308A086010004000000C7
:100A60000000000000000000000000000000000086
:100A70000000000000000000000000000000000076
:100A8000000000000000000000000000E09D0708DA
:100A9000F09D0708000000009D820408E8030000A4
:100AA0000400000000000000000000000000000042
:100AB0000000000000000000000000000000000036
:100AC0000000000000000000000000000000000026
:100AD000F89D07080000000000000000F5C10308B1
:100AE0007D000000FF00000000000000000000008A
:100AF00000000000000000000000000000000000F6
:100B000000000000000000000000000000000000E5
:100B100000000000B02C08080000000000000000E9
:100B2000C1CC03087D000000FF00000000000000B1
:100B300000000000000000000000000000000000B5
:100B400000000000000000000000000000000000A5
:100B5000000000000000000008B4070800000000CA
:100B600000000000257703087D000000FF00000062
:100B70000000000000000000000000000000000075
:100B80000000000000000000000000000000000065
:100B9000000000000000000000000000009E0708A8
:100BA0000000000000000000617D0408E803000070
:100BB0000300000000000000000000000000000032
:100BC0000000000000000000000000000000000025
:100BD0000000000000000000000000000000000015
:100BE000049E07080000000000000000655803088C
:100BF00010270000030000000000000000000000BB
:100C000000000000000000000000000000000000E4
:100C100000000000000000000000000000000000D4
:100C200000000000C4280808000000000187020836
:100C300059C904085F7600000500000000000000AC
:100C400000000000000000000000000000000000A4
:100C50000000000000000000000000000000000094
:100C60000000000000000000542C080800000000F4
:100C70000000000009FE0408102700000100000029
:100C80000000000000000000000000000000000064
:100C90000000000000000000000000000000000054
:100CA000000000000000000000000000109E070887
:100CB0000000000000000000E16F0408E8030000ED
:100CC000050000000000000000000000000000001F
:100CD0000000000000000000000000000000000014
:100CE0000000000000000000000000000000000004
:100CF0001C9E07080000000000000000A5C90308B2
:100D0000204E000003000000000000000000000072
:100D100000000000000000000000000000000000D3
:100D200000000000000000000000000000000000C3
:100D3000000000002C9E07080000000000000000DA
:100D40008DC70308204E00000300000000000000D3
:100D50000000000000000000000000000000000093
:100D60000000000000000000000000000000000083
:100D700000000000000000003C9E0708000000008A
:100D800000000000D1710408400D030003000000C2
:100D90000000000000000000000000000000000053
:100DA0000000000000000000000000000000000043
:100DB0000000000000000000000000004C9E07083A
:100DC0000000000000000000993504081027000012
:100DD0000100000000000000000000000000000012
:100DE0000000000000000000000000000000000003
:100DF00000000000000000000000000000000000F3
:100E0000549E07080000000000000000F5EA0108F9
:100E10001027000003000000000000000000000098
:100E200000000000000000000000000000000000C2
:100E300000000000000000000000000000000000B2
:100E400000000000589E070800000000000000009D
:100E500045A70208A0860100010000000000000074
:100E60000000000000000000000000000000000082
:100E70000000000000000000000000000000000072
:100E80000000000000000000609E07080000000055
:100E900000000000CD7B040850C3000001000000EA
:100EA0000000000000000000000000000000000042
:100EB0000000000000000000000000000000000032
:100EC000000000000000000000000000689E07080D
:100ED00000000000000000009D790408A0860100C9
:100EE0000000000000000000000000000000000002
:100EF00000000000000000000000000000000000F2
:100F000000000000000000000000000000000000E1
:100F1000749E0708000000000000000085750408AA
:100F2000A8610000010000000000000000000000B7
:100F300000000000000000000000000000000000B1
:100F400000000000000000000000000000000000A1
:100F500000000000809E0708000000000000000064
:100F6000E93D0208A0860100010000000000000029
:100F70000000000000000000000000000000000071
:100F80000000000000000000000000000000000061
:100F900000000000000000008C9E07080000000018
:100FA00000000000999C0408A00F00000100000050
:100FB0000000000000000000000000000000000031
:100FC0000000000000000000000000000000000021
:100FD000000000000000000000000000989E0708CC
:100FE000000000000000000001D7010810270000E9
:100FF00001000000000000000000000000000000F0
:1010000000000000000000000000000000000000E0
:1010100000000000000000000000000000000000D0
:10102000A49E070800000000000000001D16040830
:10103000A00F000001000000000000000000000000
:1010400000000000000000000000000000000000A0
:101050000000000000000000000000000000000090
:1010600000000000B09E0708000000000000000023
:101070006DCE01081A4100000100000000000000D0
:101080000000000000000000000000000000000060
:101090000000000000000000000000000000000050
:1010A0000000000000000000B49E070800000000DF
:1010B000000000005D1C0108102700000100000076
:1010C0000000000000000000000000000000000020
:1010D0000000000000000000000000000000000010
:1010E000000000000000000000000000C09E070893
:1010F00000000000000000001548020850C3000076
:1011000001000000000000000000000000000000DE
:1011100000000000000000000000000000000000CF
:1011200000000000000000000000000000000000BF
:10113000C49E070800000000000000006D2B01089D
:10114000400D03000000000000000000000000004F
:10115000000000000000000000000000000000008F
:10116000000000000000000000000000000000007F
:1011700000000000CC9E07080000000000000000F6
:10118000D9160408400D0300000000000000000014
:10119000000000000000000000000000000000004F
:1011A000000000000000000000000000000000003F
:1011B0000000000000000000D49E070800000000AE
:1011C00000000000F1FA010850C300000300000015
:1011D000000000000000000000000000000000000F
:1011E00000000000000000000000000000000000FF
:1011F000000000000000000000000000E09E070862
:1012000000000000000000002D0C040840420F0008
:1012100000000000000000000000000000000000CE
:1012200000000000000000000000000000000000BE
:1012300000000000000000000000000000000000AE
:10124000EC9E07080000000000000000751704086D
:1012500050C300000000000000000000000000007B
:10126000000000000000000000000000000000007E
:10127000000000000000000000000000000000006E
:1012800000000000F89E07080000000000000000B9
:10129000C9710108102700000000000000000000D4
:1012A000000000000000000000000000000000003E
:1012B000000000000000000000000000000000002E
:1012C000000000000000000049830008458300087A
:1012D0004183000835830008318300083D830008FE
:1012E0003983000800000000398C0008B5A200080E
:1012F000FD8B000805A40008118D0008B9830008C3
:10130000A583000889830008DD22010881210108E6
:10131000358F0008A98F000895DB000849DD00081B
:101320004114010891830008818300080100000036
:101330000000803FC5450108C94A0108414601082F
:10134000DD140108C1160108ED1401080915010892
:10135000B5140108A51401080000000000000000F9
:1013600009022000010104C032090400000208063D
:1013700050050705810240000007050102400000FA
:1013800009026400030100C03209040000010300E7
:10139000000009211101000122360007058303091D
:1013A000000A080B01020202010009040100010207
:1013B000020100052400100105240100020424029A
:1013C000020524060102070582030800FF09040242
:1013D00000020A0000000705010240000007058125
:1013E0000240000009024300020100C0320904006B
:1013F0000001020201000524001001052401000182
:10140000042402020524060001070582030800FFE8
:1014100009040100020A0000000705010240000063
:101420000705810240000000FF000000140000FFDB
:101430000000000000000000AA55070100000100A4
:101440000060024010600240000000000000000048
:10145000000B000000000000000000000000000081
:10146000006002402860024001000000000000000F
:10147000060C00000000000000000000000000005A
:1014800000600240406002400200000000000000D6
:10149000100D00000000000000000000000000002F
:1014A000006002405860024003000000000000009D
:1014B000160E000000000000000000000000000008
:1014C0000060024070600240040000000000000064
:1014D000200F0000000000000000000000000000DD
:1014E000006002408860024005000000000000002B
:1014F00026100000000000000000000000000000B6
:1015000000600240A06002400600000000000000F1
:10151000301100000000000000000000000000008A
:1015200000600240B86002400700000000000000B8
:10153000362F000000000000000000000000000046
:10154000006402401064024000000000000000003F
:101550000038000000000000000000000000000053
:101560000064024028640240010000000000000006
:10157000063900000000000000000000000000002C
:1015800000640240406402400200000000000000CD
:10159000103A000000000000000000000000000001
:1015A0000064024058640240030000000000000094
:1015B000163B0000000000000000000000000000DA
:1015C000006402407064024004000000000000005B
:1015D000203C0000000000000000000000000000AF
:1015E0000064024088640240050000000000000022
:1015F0002644000000000000000000000000000081
:1016000000640240A06402400600000000000000E8
:101610003045000000000000000000000000000055
:1016200000640240B86402400700000000000000AF
:10163000364600000000000000000000000000002E
:10164000AA55050100002D202D2D202D2D2D2D20FA
:101650002D2D2D2D000000000000000000000000D6
:101660000000000000080000A4070708FF1FFF1F7C
:1016700005010905A101A10005010930093109325F
:10168000093309350934093609371581257F75086D
:1016900095088102050919012908150025019508F9
:1016A00075018102C0C0000009022200010100E0B2
:1016B00032090400000103010200092111010001A7
:1016C0002236000705830309000A0000000000001D
:1016D000010203040102030406070809AA550B01CD
:1016E0000000AA5505010000AA550902000000AA41
:1016F0005503009F01000000C0120000F8BA00204E
:1017000000000000D0BA002000000000010000002E
:101710000100000000000100E0017EFFFFFFFFFF6D
:10172000FF000000FFFFFFFF0801FF01FFFFFFFFB9
:101730000100000081060208000000000000000017
:101740006C0F0708425702000000010642570200D2
:101750000000010600000000000000000000000082
:10176000182A070800000000000000000000000028
:10177000D02A070800000000000000000000000060
:101780007C2A07080000000000000000E1110208A8
:1017900066DA002001010000CD2602088128020837
:1017A000000000004C2C0708192602080000000069
:1017B00000000000B02B0708692A020800000000A2
:1017C00000000000682B07082D202D2D202D2D2D29
:1017D0002D202D2D2D000000000000000000000035
:1017E0000000000000000000FFFFFFFF351A0208A4
:1017F0000000000000000000A82907080100000008
:10180000FA000000010000000100000030D90020B3
:101810000000F401010000002ED900200000F401B6
:10182000010000002CD900200000F401010000009C
:101830002AD900200000F4010100000028D900206E
:101840000000F4010100000026D900200000F4018E
:101850000100000024D900200000F4010100000074
:10186000F10F0208B50F020800000000741307080A
:1018700014D900200532010022D900206400F401AF
:101880000100000020D900206400C409010000000C
:1018900012D90020E803D0070100000010D9002071
:1018A000E803D007010000000ED90020E803D007AC
:1018B000010000000CD900201E00B80B0100000040
:1018C0001AD9002005000F00010000001CD90020DB
:1018D00003000A00010000000AD900201E00F401E4
:1018E000010000001ED900200200000000140708BB
:1018F00008D90020140064000100000016D900205F
:101900003200E8030100000006D900200000C800F2
:1019100001000000E9D7002000C80100E8D700203E
:1019200000500100E7D70020005A0100E5D7002051
:10193000020000000C140708F4AA0708FCAA070814
:1019400064DA00200100C4090000000062DA00200F
:101950000100C4090000000060DA00200100C40991
:10196000000000005EDA00200100C4090000000051
:101970005ADA00200100C409000000005CDA0020EF
:101980000100C4090000000058DA00200100C40969
:101990000000000056DA00200100C4090000000029
:1019A0006BD5002000C801006AD5002000C80100E6
:1019B00068D500200000FFFF0A00000066D5002067
:1019C0000100C8000100000064D50020320030751D
:1019D0003200000062D500207EFF140005000000E8
:1019E00060D5002005002C01050000005FD5002017
:1019F000055A05005CD5002000FF01005ED50020DF
:101A000002000000C01000205AD500200300000092
:101A1000A00907085BD5002000FF01005DD500206C
:101A200002000000C010002059D500200300000073
:101A3000A0090708B4D40020FF7F0100B0D4002023
:101A400000000000FFFFFFFF01000000ACD40020F9
:101A500000000000FFFFFFFF01000000A8D40020ED
:101A600000000000FFFFFFFF01000000450F02081B
:101A7000D50E0208000000001814070844D9002001
:101A8000EE02CA080100000042D9002000C801008F
:101A90006400000041D9002000C80100640000007B
:101AA00040D90020020000002415070852D500206C
:101AB0000000803E0500000050D5002080C1803E1F
:101AC000050000004AD500200083007D05000000CD
:101AD00048D5002080C1803E0500000043D500208D
:101AE00000FF01003CD500206400F401010000006B
:101AF0003AD500206400F4010100000038D5002030
:101B00006400F4010100000036D50020040000004C
:101B10003015070835D500200200000044150708DD
:101B2000F9D500200D00000050150708F6D500205B
:101B300000640100F4D50020320010270A000000E4
:101B4000F2D500200D00000050150708F1D5002047
:101B50000D00000050150708F0D50020020000001D
:101B600088150708000000000000000000000000C9
:101B70009415070849D9002041000000CC1507083A
:101B800047D9002003000000D416070848D90020D8
:101B900004000000E4160708FBD500200300000045
:101BA000F8160708FAD5002003000000F816070809
:101BB000D6D70020000A0100D4D700200000E80397
:101BC00001000000D2D700200000E803010000005F
:101BD000D0D70020000A0100CED700200000E80383
:101BE00001000000CCD700200000E8030100000045
:101BF000C4D700200000E80301000000CAD700207D
:101C00000000E80301000000C8D700200100E8033D
:101C100001000000C6D7002001050100E4D7002024
:101C20000200000008170708E2D700200000F401B6
:101C300001000000E0D700200000F40101000000D6
:101C4000DED700200000F40101000000DCD70020F6
:101C50000000F40101000000DAD700200000E803D2
:101C600001000000D8D700200000E80301000000B8
:101C7000F6D80020006401000A000000F5D800201A
:101C8000006401000A000000E3D80020196401008C
:101C9000E2D800200200000014170708E0D8002056
:101CA000E803D0070A000000DED80020006401002D
:101CB0000A000000D3D8002000640100D2D8002020
:101CC00000640100DAD80020006401000A0000006E
:101CD000D9D80020006401000A000000D8D80020F4
:101CE000006401000A000000DDD8002000FF0100B0
:101CF0000A000000DCD8002000FF01000A000000FC
:101D0000DBD8002000FF01000A000000D7D8002027
:101D100001FF01000A000000D6D8002001FF0100E9
:101D20000A000000D5D8002001FF01000A000000D1
:101D300004D600200000F4010100000002D60020BB
:101D40000000E8030100000000D600200000E803C6
:101D500001000000FED500200000E80301000000A3
:101D6000FCD500200000E80301000000B7DA0020E5
:101D700000960100B0DA002000C80100AFDA0020B0
:101D800000640100AEDA002000640100ADDA00203A
:101D900000640100ACDA002000640100ABDA00202E
:101DA000FF080100AADA0020016401004D0D0208BD
:101DB000110D02080000000020170708B3DA002008
:101DC00001320100B2DA002001000000901707087C
:101DD000B1DA00200400000098170708A9DA0020F3
:101DE00000960100A8DA002000640100A6DA0020B5
:101DF0001400E80301000000A4DA002000003075A0
:101E00000A000000A2DA002000C80100A1DA0020C8
:101E100000C80100A0DA002000C801009FDA0020FD
:101E200000320100B6DA002000140100B5DA00200B
:101E3000004B0100B4DA002004000000AC170708D2
:101E40009EDA0020006401000A00000001D9002091
:101E500032C805000A00000000D90020010000007F
:101E6000BC17070803D9002032C805000A0000008B
:101E700002D9002001000000BC170708FFD800208D
:101E800032C805000A000000FED8002032C8050054
:101E90000A000000FDD8002032C805000A0000003A
:101EA000FCD8002032C805000A000000FBD8002042
:101EB00032C805000A000000FAD8002032C8050028
:101EC0000A000000F9D8002032C805000A0000000E
:101ED000F8D8002002000000C4170708C6DA002066
:101EE0000000D00701000000C0DA002000C8010097
:101EF000BFDA002000C80100BEDA002000C80100DF
:101F0000C4DA00200000D00701000000BDDA002084
:101F100000C80100BCDA002000C80100BBDA0020C4
:101F200000C80100C2DA00200000D0070100000054
:101F3000BADA002000C80100B9DA002000C80100A8
:101F4000B8DA002000C80100F50A0208DD0A02081C
:101F5000111A0208D0170708EDD50020005A010019
:101F6000ECD5002000C80100EAD50020E803D00726
:101F70000100000000000000000000002112020823
:101F80006C18070858D5002003000000C018070887
:101F900057D500200003010056D5002000030100A2
:101FA000190A0208CD09020800000000D01807082D
:101FB0008D09020845090208000000006C19070895
:101FC000650A0208F519020800000000EC1907086C
:101FD00054D50020010301004D0602082B0602081B
:101FE000000000006C1D0708CD100208A1100208B7
:101FF00000000000EC1D0708B50802085D08020893
:10200000000000005C1E0708050B0208FD330208F3
:1020100000000000141F0708E51E0208F91002085E
:1020200000000000BC1F0708550B0208000000005C
:102030000000000058200708390C0208D90B0208DC
:1020400000000000BC200708D50C0208990C02080B
:10205000000000007421070861670208890D02086A
:10206000000000000022070805D900200106010039
:102070009D0B0208690B02080000000018230708E6
:102080007D660208B91B02080000000088230708CB
:10209000310E0208B90D02080000000004250708EF
:1020A000A5670208991C0208000000000026070826
:1020B00004D9002001030100AD0A02087D0A0208CC
:1020C00000000000D4260708F512020800000000F6
:1020D00000000000382707080D090208DD19020872
:1020E00000000000D42707080000000000000000E6
:1020F0000000000070280708AD0E0208911D0208BC
:1021000000000000F02807080000000000000000A8
:1021100000000000182B070838B400209CFF2C0199
:1021200000000000C8DC0020E0150C1700000000D3
:10213000CADC002002000000502B070831D5002027
:10214000020000005C2B07082CD5002088136F17B5
:10215000010000002ED5002088136F17000000003A
:10216000FA6000200000000000000000F86000207D
:102170000000000000000000F660002000000000E9
:1021800000000000F46000200000000000000000DB
:10219000F26000200000000000000000F06000205D
:1021A0000000000000000000800E00200000000081
:1021B00000000000B5D4002003000000B02C070888
:1021C00024D5002088136F170100000006B60020F8
:1021D00088136F17000000003D0702080000000090
:1021E00000000000C02C070855DA002001000000A4
:1021F000142D070808B6002001000000202D070854
:10220000FEB5002002000000282D07080000000095
:102210000000000000000000342D07082507020818
:102220000000000000000000D02D070800000000A2
:102230000000000000000000242E0708000000003D
:102240000000000000000000942E070830D5002098
:1022500002000000CC2E070802B60020E0150C1783
:102260000000000010E6002064E6002001F11F3F9E
:10227000D60101010001010100FF0100FFFFFFFF86
:102280000000803F0000000000000000000000008F
:10229000000000000000000000000000000000003E
:1022A00000000000000000000000803F000000006F
:1022B00000000000000000000000803F000000005F
:1022C00000000000000000000000803F000000004F
:1022D0000000000000000000010000000000FA43C0
:1022E0000000FA430000803FA93704080000000006
:1022F000000000000000000000000000CCFF0020F3
:102300000800000000000000BCFF002008000000E2
:102310001D450108D1150108B54401080000000061
:10232000A11401089D4D0108054401085140010810
:10233000000000000000000061140108598300083B
:102340004D830008898B0008A58B00086D8B000861
:10235000518B0008358B0008D5440108AD150108E4
:1023600009440108000000007914010855400108E3
:10237000D9430108B13F010800000000000000003F
:102380006D140108FFFFFFFF685E0C00FFFFFFFFF9
:1023900002010000A00F0000B80B000002FFFF01C7
:1023A000FF000000FFFF0000FFFFFFFFB828080844
:1023B000000008020503030000000000C028080810
:1023C00001000802050403000000000054CB0708C8
:1023D0000200FE0101100300000000005CAE0708CF
:1023E000030014020003000000000000C8280808D1
:1023F00004001F020200080000000000D0280808A6
:1024000005001F0202010800000000001A0300007E
:1024100000000000000000000000000000000000BC
:102420000000000000000000040309041201000283
:1024300000000040830420570002010203010B004A
:1024400009A50508DDA4050881A405081996050855
:102450009DA4050841A4050815960508E81C002060
:10246000F9A5050819A60508E9A50508F9950508BF
:10247000A5A505085DA50508E9950508C41C00206B
:10248000199F050801960508FD950508F5950508AD
:10249000659F0508F1950508ED950508C08E0708AC
:1024A000394D01088D150108194C01080000000084
:1024B00000000000B1430108C14201080000000013
:1024C000000000000000000055140108A196050856
:1024D0009596050869A6050885A605084D96050880
:1024E0004DA6050831A60508FFFFFFFF1F000000ED
:1024F0001C0000001F0000001E0000001F00000064
:102500001E0000001F0000001F0000001E00000051
:102510001F0000001E0000001F0000000068214C8A
:1025200001000000609807080C1D00200125000034
:10253000B48D07080100000050C3000000800202B3
:102540001F00000053544D202020202050726F6443
:10255000757420202020202020202020302E303193
:10256000008002021F00000053544D202020202034
:1025700050726F647574202020202020202020209D
:10258000302E3031231C01081F1C0108171C0108C4
:10259000FD190108D52A0108012B0108292A010883
:1025A0000D1C0108FD1B0108ED1B0108DD1B0108C6
:1025B0008919010800000000010101FF010000006D
:1025C000F4010000FFFF0000541D00200000000087
:1025D00000000000000000000000000000000000FB
:1025E00000000000000000000000000000000000EB
:1025F00000000000000000000000000000000000DB
:1026000000000000000000000000000000000000CA
:1026100000000000000000000000000000000000BA
:0C262000000000000000000000000000AE
:0828000000C00F0800001008E1
:10800000F0B401292A4C2B4D23684FF0000694BF91
:1080100000270127EE626662A6626763676B47EA24
:1080200042076763EE63EC6B002A38D144F4957421
:10803000EC631C6824F001041C601C68E407FCD499
:10804000490289085960D8601968EAB921F04001ED
:10805000196019498B421DD018494FF47410C8603B
:10806000196841F01E011960596941F08001596198
:10807000196841F00101196022B90E4AD36A43F030
:108080000803D362F0BC704741F0400119600A490F
:108090008B42E1D14FF0746041F8500CE0E744F0BE
:1080A0001A04EC63EC6A44F00804EC62C1E700BF18
:1080B000B81D0020002C01405864024000640240BA
:1080C0000A4BB3F89C204AB1D3F89810C889904263
:1080D00004D0D3F894000280CA8100BFD3F8A03046
:1080E00013B11A689B885383704700BFB81D0020E6
:1080F0001248002302461178032902F1060218D023
:108100000133062BF7D10E4AD2F8D430052B0FD00D
:10811000591C03EB4303C2F8D41000EB43030320C4
:1081200040F2EB3140F2FF32187059809A8070476C
:10813000704703EB430300EB4303F0E7681E0020A6
:10814000B81D002070B4C3080D4CE25C00F00706B7
:10815000B24004EBD004D2B20020C6F108038B4237
:1081600028BF0B46C3F108052A419840C91A40EAC6
:1081700002004FF0000614F8012FEED170BC7047DA
:10818000301E0020084AD2E9363199420AD0D1186F
:10819000013391F8E0100170C3F30A03C2F8D8303C
:1081A0000120704700207047B81D0020064AD2F811
:1081B000E038D2F8E428934294BF4FF400600020E6
:1081C000013B9B1A18447047B81D0020012380F81A
:1081D0005130704707B501A8FFF7D4FF0028FAD047
:1081E0009DF8040003B05DF804FB044BD3E93603AB
:1081F000984288BF03F50063181A7047B81D002025
:1082000001207047024BC3F8E828C3F8EC18704708
:10821000B81D0020024BC3F8F028C3F8F4187047CB
:10822000B81D00207047704730B4134DD5E9362390
:108230009A4286BF03F50064A21A9A1A0A44B2F55C
:10824000006F13D8A9B101444A1E013810F8014F3C
:10825000E918824203F1010381F8E040C3F30A0305
:10826000F4D1C5F8DC30002030BC7047022030BCAF
:1082700070470846F8E700BFB81D0020212838B530
:108280000C4605D022282ED0202813D0002038BD3F
:108290000029FBD0072AF9D11A4BD3F8F80893F834
:1082A000FC1893F8FD2893F8FE3820602171627164
:1082B000A371EBE70029E9D0072AE7D1114DD5F8E2
:1082C000EC381BB10968D5F8E8089847206821798F
:1082D0006279A379C5F8F80885F8FC1885F8FD28B7
:1082E00085F8FE38D2E70029D0D0022ACED1054A3F
:1082F000D2F8F438002BC9D00988D2F8F008984792
:10830000C4E700BFB81D0020024B0020C3F80009DD
:10831000704700BFB81D0020044B00200522C3F8A1
:108320000029C3F8F408C3F8EC087047B81D002012
:10833000704700BF704700BF704700BF704700BF65
:10834000704700BF704700BF704700BF042301485B
:108350000B8070478801002010B4074A074B92F841
:108360000409122403F114020C8001280CBF1846E2
:1083700010465DF8044B7047B81D00208C010020AA
:1083800000487047181E002000487047181E002043
:10839000034B93F85C00032894BF00200120704732
:1083A000B81D0020034B93F85C00032894BF002005
:1083B00001207047B81D0020034B93F85C00003883
:1083C00018BF0120704700BFB81D0020A0B182680F
:1083D0000D4B12B107229A7070471978DA600329A1
:1083E0004FF004000CBF80214FF48071C3E90111EC
:1083F0001A611A7598707047034B41F2E4710122BB
:108400005A545A70704700BFF89300200378022B2B
:1084100010D0006908B9012070470C4B1B78032B62
:108420000EBF0B4B80B24FF6F773984294BF0020FB
:10843000012070470549436841F650028A58B3EB62
:10844000422F2CBF01200020704700BFF89300206E
:10845000F7FFFF0F0378022B14D030B4104A4368A3
:10846000006941F6480402F5C2511559096841F600
:108470003C042B4012595B0A023801FB00301044C7
:1084800030BC7047064B426841F6340141F630007B
:108490005958185800EB410000EB5220704700BFBC
:1084A000F8930020F8B51A4C94F80839002BFBD14A
:1084B00059B301444E1E451ED4F8E428D4F8E01800
:1084C00015F8017F531CC3F30A038B422CBF4FF4F2
:1084D00000600020C91A22440144012982F80C7965
:1084E000C4F8E4380FD1012047F00AF9D4F8E03895
:1084F000D4F8E4188B4294BF4FF4006200225B1A58
:108500001344012BEFD0B542D6D10020F8BD00BFF7
:10851000B81D0020094B0846D3F8001910B559B111
:10852000D3F80039052B07D1054C002A636903DD18
:108530001146FFF7B7FF636910BD00BFB81D0020EB
:10854000B02E002010B590F85010002380F8503065
:1085500079B10B4CD4F800296AB1D4F80029052A66
:108560000BD1084C3C306369FFF79CFF6369012025
:1085700010BD0120FCE71046FAE71846F8E700BFF7
:10858000B81D0020B02E0020002280F85120D9E72D
:1085900090F85020531C0244DBB280F8503082F82F
:1085A0003C1090F851200AB1132B00D9CAE770474C
:1085B0002DE9F84F454B98420ED003F56853083328
:1085C000984247D0424B0020C3E91D00A3F8700039
:1085D000A3F87C00BDE8F88F3D4C3E4FDFF80081EA
:1085E0000223A36104F11C060025FB6AAB42294665
:1085F00005F1010503D0D4F88C0055F0BDFC94F8CA
:108600009030D4F88C2086F82430326230464146CF
:1086100055F0E4FEA3699D4206F12806E5DB002340
:1086200084F87E30D4E90903A169228CA58DC4F8B1
:10863000943012FB01F203FB01F3A4F87020618C6B
:10864000254AA4F87C50C4E91D03A4F87210E26620
:108650000120BFE71E4C1F4F0223A36104F11C053C
:108660004FF0000B4FF4806A4FF040094FF4006860
:10867000FA6A01265A455946B34403D0D4F88C000F
:1086800055F07AFCD4F88C1094F89020296285F883
:1086900024204FF400314FF00062C5E90212A5F822
:1086A00004A0A5F81090A5F80680AE74FFF720FD91
:1086B00028466E7655F0E4FDA269084B45F8283B44
:1086C0009345D5DB84F87E60ACE700BF1971EF00FD
:1086D000B02E00208801002024040708F8030708B2
:1086E0001940EF002DE9F04FCE4DDFF87093DFF821
:1086F000788307460E4693460FCD4C462DED068BEC
:108700000FC40FCD0FC495E807008BB098F89A30CE
:10871000CDF80CB084E80700CDE90676042B00F212
:108720005881DFE813F0B401560151010500C4017E
:108730009FEDBD8ADFEDBD8ABD49C9F81C10BD495A
:10874000BD4BBE4AC9F818100399002918BF13463B
:1087500038EE887AF5EE006A86EE87AAC9F82430EA
:10876000B74FB84B04930026DFEDB77A9FEDB79A69
:1087700028EE278AF0EE679A079BB34200F01E812D
:10878000049A12F8013B049208EB0302013392F8B9
:108790009F405FFA83FB002C00F08C81AC4B0022E1
:1087A00003E00132152A00F0858102EB42015500F9
:1087B000585CA042F5D1414491F8BD10002900F069
:1087C0008181204640F0BCFC02680592824610463A
:1087D00040F0A2FC9AF8051040F0D2FC0378002B80
:1087E00040F0688108EB05002509013D0321052DB6
:1087F00080F8FDB080F8FC10059A04F00F0000F23C
:108800000B81944C04EB450CBCF884C04CFA00FE80
:108810001EF0010300F00081012202FA00F001388D
:1088200000EA0C00254464F075F995F89050DFF8E3
:108830003CC228440CEBC0050321A97185F807B0A0
:108840005CF830007D6100F13F4303F57E0304EBEB
:108850009324012294F898309AF8081003F01F042A
:108860005B09032B02FA04F200F00281042B00F0F2
:108870000981022B00F00181AB880893B3FA83F3DE
:10888000C3F11F03C3F3CC0200EB820203F0070322
:10889000146A9B000F259D4024EA05041462146AA3
:1088A00001FA03F32343136208A9022309930CF08E
:1088B000BDFDDAF80020039B002B00F09280B8F891
:1088C000983000EE103AB8EEC00AFCEEC07A17EE0F
:1088D000901A614B9A4200F08180A3F580639A421E
:1088E0007CD003F580439A4278D003F580639A42A6
:1088F00074D003F580639A4270D0D8F828245008C9
:108900004FF6FF73B0FBF1F21A44120CB0FBF2F217
:108910000398002870D0B2FBF1F198F89A0004286F
:108920008BB26ED007EE902AF8EE676A66EE887A10
:1089300029EE677A98F89B0006990091A8EEA67A2E
:10894000019051463846C7ED027A87ED037A37F039
:1089500003FC002E62DD7B68D9F8382093425FD09B
:10896000012E5BD0D9F85020934259D0022E55D019
:10897000D9F86820934253D0032E4FD0D9F88020E5
:1089800093424DD0042E49D0D9F89820934247D035
:10899000052E43D0D9F8B020934241D0062E3DD0C9
:1089A000D9F8C820D31A18BF012301360122082E96
:1089B0003B747A7407F118077FF4DEAE27480BB0DA
:1089C000BDEC068BBDE8F08F9FED258AF0EE488A5E
:1089D000B2E69FED248AF0EE488AADE6D8F8280486
:1089E0008EE7B0EE4A0A059265F038FBFCEEC07ADD
:1089F000059A17EE901A6CE798F89A000428194621
:108A000090D107EE901A07EE102AF8EE677AF8EE8A
:108A1000476A67EEA97A8BE77B614CE70123C4E7DD
:108A20000023C2E750040708ACC5A737ACC5A7367A
:108A300011C1030825020508B9BB0308190205087E
:108A4000400000105A2F00206F12833A00007A4431
:108A50006C2F0020F8030708000401400C000010F0
:108A6000282930386F120339B02E0020D82F00206B
:108A7000154B1C6C22431A64FEE6134B5C6C2243BC
:108A80005A64F9E6104B1C6B22431A63F4E69FED1F
:108A90000F8A0F4BC9F8183000230E4A06930123A2
:108AA0000393C9F81C200C4BF0EE488A50E69FED6A
:108AB0000B8AEEE70A4A084BC9F81C20C9F8243093
:108AC00000207CE70B68FFDE003802406F12833A1B
:108AD0002502050811C1030819020508000000005D
:108AE000B1BE0308F8B5104ED6F828440546006814
:108AF0000F4664080CF09EFBB4FBF7F1B1F5803F24
:108B000003D3012CFAD96408F6E72246284689B235
:108B100040F094F9054BC6F8903C28460449BDE85E
:108B2000F840002240F00AB9B02E0020E92C0208DB
:108B3000403B002010B5044C04480A4621460BF087
:108B4000BBF9204610BD00BF483B00205C9D0708D4
:108B500010B5044C04480A4621460BF0ADF92046F6
:108B600010BD00BF483B00206C9D070810B5044CA9
:108B700004480A4621460BF09FF9204610BD00BF6D
:108B8000483B0020789D070810B5044C04480A466D
:108B900021460BF091F9204610BD00BF483B002054
:108BA000849D070810B5044C04480A4621460BF082
:108BB00083F9204610BD00BF483B0020909D070868
:108BC00010B50C4C94F8AD200023A36512B10A4AED
:108BD000C2F8983D5DF0F6FE20B10423022084F82F
:108BE0005C3010BD044B5B69E364092384F85C309E
:108BF00010BD00BFB81D0020B02E002070B50D4D77
:108C000095F85C30042B04460E460AD0082B06D19A
:108C10006B6D83420CD0FFF7D3FF022801D00120F7
:108C200070BD0823C5E9154685F85C30022070BD8B
:108C3000022070BDB81D002070B54379224C002B76
:108C400014BF0123002384F8883003D1002384F863
:108C50005C3070BD1D4D002195F99F2D032049F01A
:108C600091FA0028F2D0466830465EF059FD84F84B
:108C7000AC000028EAD095F89D3D003B18BF0123C9
:108C8000304684F8AD305EF02BFE0BF0BFF838B9FB
:108C900094F8503084F85C00013384F8503070BD93
:108CA0005DF07AFF40B194F850300022013384F82F
:108CB000503084F85C2070BD6B69E364012384F854
:108CC000500084F85C3070BDB81D0020B02E00202C
:108CD00010B55DF061FF58B10B4C94F85030013382
:108CE000DBB2072B84F8503003D9002384F85C30C2
:108CF00010BD0BF08BF80028F7D0044A012352690D
:108D0000E26484F85C3010BDB81D0020B02E002055
:108D10002DE9F041844C94F88850002D00F0F28049
:108D200094F85C20814E0227531E082B3FD8DFE8C1
:108D300003F035379A3E654E143E05005DF042FE65
:108D4000002840F0E680E36C7269FA3393422BD23C
:108D5000FFF7BEFF94F85C20E6E75DF033FE0028E5
:108D6000F1D0A36D0022012B84F8502040F2D58071
:108D7000616D94F8AD00013B0131C4E9151310B1E8
:108D80006A4BC3F8982D082284F85C20A2F10805EC
:108D9000B5FA85F56D092846BDE8F08184F85C7068
:108DA0005DF010FE002840D194F85C20531EDBB229
:108DB000022B09D85D4BE16C5B695B1AC82BE5D9C6
:108DC000FFF786FF94F85C20042ADFD1E3E7236BEA
:108DD000002BDBD1554B666C5B69E364072284F89A
:108DE0005C20002ED2D0D4E90E21A36C0120B04724
:108DF000DAE7E36C716964338B42C7D2D4F82C8014
:108E0000B8F1000FF5D15DF0DDFD0028A2D0666C51
:108E100084F85080042384F85C30002E77D0D4E9A5
:108E20000E21A36C4046B047BEE75DF071FA002802
:108E3000BAD196F8A13D002BA3F10203B3FA83F354
:108E400014BF022201225B0984F8512084F85230B9
:108E50005DF05EFA00287FF47BAF354A0323926C05
:108E6000226684F85C305DF053FA00289CD12F4BC9
:108E7000A06593F8D46DB3F8D60DD3F8D8EDD3F838
:108E8000D8CDD3F8D87DD3F8D82D84F8666093F880
:108E9000DC1DA4F8640093F8DD6D84F86A2093F873
:108EA000DD0DD3F8E02DE266B3F8E68DB3F8E62DDC
:108EB00084F86B10B3F8E61DC2F30B1343EA1823D2
:108EC00003F00F0301F00F024FEA1E6E4FEA1C4C35
:108ED0003F0A360900F00F0003F5FA63042184F815
:108EE000710084F867E084F868C084F8697084F8D9
:108EF0007060A4F8723084F8742084F85C102846FE
:108F0000BDE8F08184F85C502846BDE8F081054654
:108F100041E7042384F85C303DE7FAD1FFF750FEC7
:108F200094F85C20531E42E7B81D0020B02E0020AC
:108F3000583C00202DE9F843194D95F85C60042E4B
:108F40000446894690461F4608D0082E02D00020CD
:108F5000BDE8F8830AF07AFE0228F8D1FFF7B0F8EE
:108F600095F8523093B9610211200AF0C5FE98B904
:108F70000C4BC5F838905A69EC630523C5E9118795
:108F8000EA6485F85C300120BDE8F88321461120B1
:108F90000AF0B2FE0028EBD00AF00CFFD7E700BFC2
:108FA000B81D0020B02E002070B51D4D95F85C3026
:108FB000042B06460C4608D0082B20D16B6D83424B
:108FC0002BD00AF043FE022819D1FFF779F80021CF
:108FD00037200AF091FE214617200AF08DFEB0B925
:108FE00095F852306BB9710219200AF085FE70B9FC
:108FF0000823C5E9156485F85C30022070BD0120A6
:1090000070BD314619200AF077FE0028F0D00AF032
:10901000D1FE0AF00DFF032070BD022070BD00BF1D
:10902000B81D00202DE9F84FB34C94F8001E0546FA
:10903000C1F34001D4F8080E49F0B4FE94F8001EC4
:10904000D4F8040EC94301F0010149F0ABFE002D34
:1090500000F0C3806E1EA94FA94D5FFA86FB4FF04A
:109060001008D4F8080E49F081FED4F8040E49F037
:109070007DFEB4F8103E002B40F0358194F8121EAE
:10908000D4F8140E49F08EFE4FF0FA094FF47A70BE
:109090004FF0010C7B68C3F30803002B40F0FB800A
:1090A000EFF31183002B40F0F6806269A9686369D1
:1090B0009A42FAD1D4F8383E9942F6D8D4F8346EB0
:1090C00000FB06F35B1AB3FBF6F300FB02327B688E
:1090D000C3F30803002B40F09F80EFF31183002BB4
:1090E00040F09A806369D5F808A061698B42F9D194
:1090F000D4F8381E8A45F5D8D4F8346E00FB06F152
:10910000A1EB0A01B1FBF6F100FB03139B1AB3F5C7
:109110007A7FDCD3B9F10109BCD1D4F8080E49F04B
:1091200025FED4F8040E49F021FEB4F8103E002BC1
:1091300040F0CD8094F8121ED4F8140E81F0010195
:1091400049F030FE4FF0FA0C4FF47A704FF0010EF8
:109150007B68C3F30803002B7ED1EFF31183002B50
:109160007AD16269A96863699A42FAD1D4F8383E23
:109170009942F6D8D4F8349E00FB09F35B1AB3FB8E
:10918000F9F300FB02327B68C3F308033BBBEFF348
:10919000118323BB6369D5F808A061698B42F9D1BB
:1091A000D4F8381E8A45F5D8D4F8349E00FB09F16E
:1091B000A1EB0A01B1FBF9F100FB03139B1AB3F514
:1091C0007A7FE0D3BCF1010CC2D10BF1FF365FFA1C
:1091D00086FBBBF1FF0F7FF444AFBDE8F88FEFF3E0
:1091E000118988F31288AE682B68DB0344BFC4F88A
:1091F00030EEAE686369D4F8301E5FFA89F989F3FE
:109200001188D4F8349E0B4400FB09F1891BB1FB93
:10921000F9F100FB0313D1E7EFF3118E88F3128805
:10922000D5F808A02B68D90344BFC4F830CED5F8D0
:1092300008A06369D4F8301E5FFA8EFE8EF31188A1
:10924000D4F8346E0B4400FB06F1A1EB0A01B1FB2C
:10925000F6F100FB031359E7EFF3118188F312884D
:10926000D5F808902B68DA0344BFC4F830EED5F87F
:1092700008906369D4F8302EC9B281F31188D4F80C
:10928000341E1A4400FB01F3A3EB0903B3FBF1F313
:1092900000FB023277E7EFF3118188F31288AE68A2
:1092A0002B68DB0344BFC4F830CEAE686369D4F8E2
:1092B000302EC9B281F31188D4F8341E1A4400FB51
:1092C00001F39B1BB3FBF1F300FB0232FFE6D4F882
:1092D0002C3E002B3FF436AFD4F8183EC3F8009074
:1092E00084F8299E2EE7D4F82C3E002B3FF4CCAE18
:1092F00046F024FBC8E600BFB02E002000ED00E0E1
:1093000010E000E02DE9F84FB04CB14F94F8001E8A
:10931000D4F8080EAF4DC1F3400149F043FD94F875
:10932000001ED4F8040EC94301F0010149F03AFDD2
:109330004FF0050B4FF01008D4F8080E49F016FD59
:10934000D4F8040E49F012FDB4F8103E002B40F0A2
:10935000358194F8121ED4F8140E49F023FD3226FC
:109360004FF47A704FF0010C7B68C3F30803002BB5
:1093700040F0FA80EFF31183002B40F0F580626932
:10938000A96863699A42FAD1D4F8383E9942F6D86E
:10939000D4F834EE00FB0EF35B1AB3FBFEF300FBD4
:1093A00002327B68C3F30803002B40F09E80EFF38A
:1093B0001183002B40F099806369D5F808A061699A
:1093C0008B42F9D1D4F8381E8A45F5D8D4F834EE5A
:1093D00000FB0EF1A1EB0A01B1FBFEF100FB031350
:1093E0009B1AB3F57A7FDCD3013EBDD1D4F8080EC9
:1093F00049F0BCFCD4F8040E49F0B8FCB4F8103EB7
:10940000002B40F0D08094F8121ED4F8140E81F096
:10941000010149F0C7FC4FF0320C4FF47A7001267D
:109420007B68C3F30803002B7FD1EFF31183002B7C
:109430007BD16269A96863699A42FAD1D4F8383E4F
:109440009942F6D8D4F8349E00FB09F35B1AB3FBBB
:10945000F9F300FB02327B68C3F308032BBBEFF385
:10946000118313BB6369D5F808A061698B42F9D1F8
:10947000D4F8381E8A45F5D8D4F8349E00FB09F19B
:10948000A1EB0A01B1FBF9F100FB03139B1AB3F541
:109490007A7FE0D3BCF1010CC2D10BF1FF3616F09C
:1094A000FF0B7FF449AFBDE8F88FEFF3118988F324
:1094B0001288D5F808A02B68DB0344BFC4F8306ECF
:1094C000D5F808A06369D4F8301E5FFA89F989F3EA
:1094D0001188D4F8349E0B4400FB09F1A1EB0A017A
:1094E000B1FBF9F100FB0313D0E7EFF3118E88F322
:1094F0001288D5F808A02B68D90344BFC4F830CE31
:10950000D5F808A06369D4F8301E5FFA8EFE8EF39A
:109510001188D4F834EE0B4400FB0EF1A1EB0A01E4
:10952000B1FBFEF100FB03135AE7EFF3118188F35F
:109530001288D5F808902B68DA0344BFC4F8306E5F
:10954000D5F808906369D4F8302EC9B281F3118838
:10955000D4F8341E1A4400FB01F3A3EB0903B3FB58
:10956000F1F300FB023276E7EFF3118188F3128802
:10957000D5F808E02B68DB0344BFC4F830CED5F83B
:1095800008E06369D4F8302EC9B281F31188D4F8A9
:10959000341E1A4400FB01F3A3EB0E03B3FBF1F3FB
:1095A00000FB0232FDE6D4F82C3E002B3FF433AF33
:1095B000D4F8183E1E6084F8296E2CE7D4F82C3EAF
:1095C000002B3FF4CCAE46F0B9F9C8E6B02E00202F
:1095D00000ED00E010E000E000F01F024009012370
:1095E000032803FA02F304D004280CD0022805D083
:1095F0007047074A116C0B4313647047044A516C5F
:109600000B4353647047024A116B0B43136370475B
:109610000038024000285FD00368374A2DE9F04146
:1096200003F13F4404F57E0402EB9422012492F8F6
:10963000982002F01F055209032A04FA05F456D0B7
:10964000042A4FD0022A48D08588B5FA85F0C0F1A7
:109650001F00C0F3CC0603EB860600F00700820073
:109660000F24306A944020EA04003062306A01FA24
:1096700002F20243002132624FF0010E0A464FF01F
:10968000030C02270EFA02F838EA050002F1010283
:109690001CD118680CFA01F420EA0400186018685C
:1096A00007FA01F606431E609E6826EA04069E60DD
:1096B00098689860586820EA0800586058685860B0
:1096C000D86820EA0400D860D868D860102A01F170
:1096D0000201D7D1BDE8F0817047084A556C2C4390
:1096E0005464B1E7054A156B2C431463ACE7034A95
:1096F000156C2C431464A7E7F803070800380240F0
:10970000002861D00368384A03F13F4101F57E012A
:1097100002EB91222DE9F04192F8982002F01F040B
:1097200052090121032A01FA04F158D0042A51D028
:10973000022A4AD08588B5FA85F2C2F11F02C2F327
:10974000CC0403EB840402F00702216A92000F208C
:10975000904021EA00012162206A0C2101FA02F204
:1097600002430021226208464FF0010E4FF0030C25
:1097700002270EFA00F838EA050200F101001DD1B7
:109780001C680CFA01F224EA02041C601E6807FA45
:1097900001F434431C609E6826EA02069E609E68BF
:1097A00016439E605C6824EA08045C605C685C6048
:1097B000DC6824EA0202DA60DA68DA60102801F173
:1097C0000201D6D1BDE8F0817047084A546C2143AC
:1097D0005164AFE7054A146B21431163AAE7034ABA
:1097E000146C21431164A5E7F80307080038024010
:1097F0002DE9E047304D95F83C3E012B85B00F46F2
:10980000164640D0022B2ED1B5F8483E40F08001DC
:10981000002B44D1D5F84C3E13B11A689B88538372
:10982000D5F840AE039145F03FFFBAF80C300399EC
:10983000804642F20F79BAF808309B0717D5504698
:109840005FF03CFB3346D5F8400E3A4600215CF011
:10985000EFFCD5F84C3E6BB31A689B88138301204C
:1098600005B0BDE8E087002005B0BDE8E0870391C2
:1098700045F01AFFA0EB08034B450399DBDD50468A
:1098800049F0F0FEDEE70091134695F8411E0246CE
:1098900095F9400E62F068F805B0BDE8E087D5F8AC
:1098A000442ED0899842B5D0D5F8400E0380D3819C
:1098B00000BFAFE70120D7E7B02E002058B1838862
:1098C0004FF00042B3FA83F332FA03F303D00249B4
:1098D0000A6813430B607047003C0140134B026859
:1098E000196821EA02011960596821EA02015960E8
:1098F00019680A431A609968026821EA02019960AE
:10990000D96821EA0201D9604179102907D001F113
:10991000804303F59E3319680A431A6070479968BB
:1099200011439960D9680A43DA607047003C0140EE
:10993000002864D0F0B58388B3FA83F3202B0A465D
:1099400085B00446C3F11F0143D02D4D2D4E05EBCC
:1099500081037718C3F8842E002197F8A07048F08F
:1099600051FDB4F804C02268274CBCFA8CFCCCF141
:109970001F0303F0FC0101F1804101F59C3103F06C
:10998000030398004FF00F0E02F13F438A680EFA6E
:1099900000FE22EA0E0203F57E038A60C3F38723EA
:1099A000834088684FF0004222FA0CF203433D44A2
:1099B0008B6002A8626101234FF400618DF80E30C4
:1099C0000292ADF80C10FFF789FF95F8C43EF02B1A
:1099D00001D805B0F0BD3E44F02196F8B0308DF8C6
:1099E000043003224FF4807301A885F8C41E8DF85B
:1099F0000520ADF806300BF0D5FB05B0F0BD704783
:109A0000B02E0020F8030708003C014010B4B8B1A4
:109A10000D4CD4F8CC3E102B05D15DF8044B05213C
:109A200000203FF0FFBE03EB4302224482F8D11E28
:109A300001210B4482F8D00E82F8D21EC4F8CC3E2D
:109A40005DF8044B704700BFB02E00202DE9F04FA9
:109A5000DFF884A32DED028B9AF8141F002297B033
:109A6000CAF8042FCAF8082FCAF80C2FCAF8102F0A
:109A7000CAF8002F19B19AF8152F8AF8002F9AF812
:109A8000162F1AB19AF8172F8AF80F2F9AF81A2F53
:109A90001AB19AF81B2F8AF80A2F9AF8182F1AB1C0
:109AA0009AF8192F8AF8052F9AF81C3F05935A1E29
:109AB000D3B257B204937B1C00F0AA80BC4ABD4EBF
:109AC00052F83780029602EBC70200231279019305
:109AD00008EE102A1D463446994626783946304607
:109AE0004AF0BAFB83463046BBF1000F1ED048F067
:109AF00065FEEA1D1321D2B220B14FF0000E827133
:109B000080F807E049F008F920784AF0D7FB4FF0D9
:109B1000070309F1010223714FF0010384F8029059
:109B20006070CDF804B05FFA82F9E3700135042D5E
:109B300004F10504D1D118EE100A029ECDF80C9064
:109B4000FFF74AFD9C499D4A4868024042F4403272
:109B50004A600FB9019B5BB9994C4820FFF73CFD67
:109B60002046022162F014F8A26842F00102A260CD
:109B70009148934A4168BAF81E4F41F40001416090
:109B8000516821F480515160916B21F4401141F4EE
:109B900080119163D16841F46001D160956B85F4C7
:109BA0004011C1F3015101EB81011F2000FA01FCBA
:109BB00025EA0C0C112505FA01F141EA0C0191632B
:109BC000D16841F4E011D160956BC5F30151C1F149
:109BD0000401C9B201EB810188404FF0100C25EA65
:109BE00000000CFA01F108439063E4B1BAF8201FB9
:109BF000CAF8284FA1B1BAF8222FCAF82C1F62B1B7
:109C0000019B7048521A90FBF2F2CAF8302F6BB9E0
:109C100017B0BDEC028BBDE8F08F6B4A1288EFE7FE
:109C20006A4A1188E7E76A4A1488DFE740460399E1
:109C300061F0AEFF5F4B012003F114090723F278B6
:109C4000441CE4B252B375783279A5F10A0101EBF4
:109C5000410105EB450C092D03FA01FE03FA0CFB4B
:109C600002FA01F140F28E80D8F80C2022EA0E0EA2
:109C700041EA0E01C8F80C10421E02EB82021F21BD
:109C8000062801FA02FC05FA02F261D8D8F834106D
:109C900021EA0C010A432046C8F834200536B145B4
:109CA000CDD1D8F80820049942F40072C8F80820F1
:109CB000D8F8082042F48072C8F80820D8F80820A4
:109CC000574442F00102C8F8082097F9242F0220D7
:109CD00048F058FA044600289AD040685DF020FD0C
:109CE000059A06215DF02EFD60680BF0C5F907A806
:109CF0000BF084F9039EA368364A0793012E8CBFAC
:109D00004FF48060002000230D9008F14C054FF4C3
:109D10000060089509920A934FF480720C930E909C
:109D20004FF4003360680B9607A94FF40055CDE956
:109D30000F5211930BF074F96268136843F001033A
:109D40001360D8F8083043F08043C8F808305FE764
:109D5000C11FA0F10D0201EB81014FF01F0E02EBBC
:109D600082020C280EFA01FC0EFA02F005FA01F14B
:109D700013D8D8F8302022EA0C0211432046C8F844
:109D800030108BE7D8F8101002FA0CF221EA0B0B16
:109D900042EA0B02C8F810206EE7D8F82C1005FA3A
:109DA00002F221EA00010A432046C8F82C2075E798
:109DB000B0040708B03D002000230140E030FCFF64
:109DC00000200140803801002E7AFF1F2C7AFF1FEF
:109DD0002A7AFF1FE43D0020B02E00202DE9F84F25
:109DE0002E4F00EB800407EBC404D4F8406F2EB173
:109DF000054694F8550F00F0FF0820B14FF0000819
:109E00004046BDE8F88F89469A46934645F04CFC9B
:109E10004FEA49010123C9B284F8561F84F857BF9D
:109E200084F8593F84F85A8F84F8583F84F8553F96
:109E300084F8548FB288C4F85CAF91058146C4F8A9
:109E400060AF1DD43388DA0510D442F20F7405E0F8
:109E500045F02AFCA0EB0903A34215DC33889B05DF
:109E6000F6D433889BB243F480733380B3889BB2BB
:109E700043F440734FF00108B3804046BDE8F88FCB
:109E800098464046BDE8F88FB7F8B43F01339BB21F
:109E90002846A7F8B43F61F0E7FAB1E7B02E0020FA
:109EA000F8B5714D05EB0017D7F8B83F002B00F05F
:109EB00089800446060197F8C00FFFF78DFB97F8DD
:109EC000C03F03F01F015B090122032B02FA01F2DC
:109ED00000F08E80042B7BD0022B74D0AB190134A0
:109EE00093F8BC0F48F06AFCE4B2074610B11223A5
:109EF000C4718371AB1993F8BD0F48F05FFC10B1CA
:109F00001323C4718371AB1993F8BE0F48F056FC4C
:109F100010B11423C4718371AC190A2194F8BF2FB6
:109F2000384648F011FD94F8BD0F48F047FC94F80E
:109F3000BF2F0A2148F008FD94F8BE0F48F03EFC00
:109F400094F8BF2F0A2148F0FFFCD4F8B83F474AE5
:109F5000934252D0464A93423FD0464A934257D00A
:109F6000454A93425FD0454A934267D0444A934260
:109F70006FD0AB19434AD3F8B81F558E0888138E9B
:109F8000948E00F441502B430343508F958F23430D
:109F90000343D48FB2F840002B4323439BB243F0DA
:109FA000030302250124D58614870B808B8B23F4B1
:109FB00000631B041B0C8B8308820B889BB243F04D
:109FC00040030B80F8BD304B596A0A435A6285E75B
:109FD0002D4B19690A431A6180E702F500324FF4EC
:109FE0008040136A43F4804313620BF01BF9C0E70F
:109FF000254B196A0A431A6270E702F584324FF45E
:10A000008050536A43F4805353620BF003F9B0E776
:10A0100002F5FE324FF40040136A43F4004313622A
:10A020000BF000F9A5E702F582324FF40050536AB5
:10A0300043F4005353620BF0EDF89AE702F56842DF
:10A040004FF48010536A43F4801353620BF0E2F82C
:10A050008FE702F564424FF40010536A43F4001393
:10A0600053620BF0D7F884E7B02E00200030014097
:10A0700000380040003C00400034014000500140E6
:10A0800000540140880100200038024070B5464E5F
:10A0900096F8E84F04EB440306EBC303650093F81E
:10A0A000EC3F032B6ED8DFE803F05A2A1F02254449
:10A0B00006EBC505D5F8F00F00286FD13B4B13F820
:10A0C000AC3C9C425ED0013404F00302934286F81B
:10A0D000E82F57D002EB420406EBC4040223C4F875
:10A0E000F00F84F8EC3F70BD2B1906EBC303D3F8D7
:10A0F000F02F72B1013AC3F8F02F002070BD2B1978
:10A1000006EBC303D3F8F02F002AF3D1022283F821
:10A11000EC2F254406EBC50595F8F83F013BDBB273
:10A1200085F8F83F83BB224A204B516C13F8AC6C86
:10A13000D5F8F40F621C02F003024B1E0324B24256
:10A14000034485F8EC4FB3FBF1F0C5F8F00F19D0DC
:10A15000994217D80138C5F8F00F012070BD49F0B9
:10A16000AFFD78B1124B2C445A6C06EBC4040121AC
:10A1700002F51C5384F8EC1F0F33B3FBF2F3C4F861
:10A18000F03F70BD012070BD094B5A6C012002F2F6
:10A19000E733B3FBF2F3C5F8F03F70BD0138C5F803
:10A1A000F00F002070BD00BFB02E0020A83F00209F
:10A1B00088010020054B13F8AB2C002AFBD1D3F803
:10A1C000B83A03491B6801F10C001847A83F00206A
:10A1D000003F00202DE9F84F3249DFF8D4B091F864
:10A1E000A11D01240229074619461046CBF82C4030
:10A1F0004FF000022C4C1D4618BF7F02FDF700FFF8
:10A200002A4B63626B02A362E36A40F2FF5943F098
:10A2100093034FF400704FF48A62E3620121C4F8A3
:10A220003890A0601020E2605CF0BEF9012D40F291
:10A2300051434E46C4F83890CA4640F252488EBF49
:10A240004FF0120998464FF011090A25C4F838A0BA
:10A250000121A7604846C4F80C805CF0A5F90346CC
:10A260004FF0000C40F2774201213720A6632BB952
:10A2700000231846CBF82830BDE8F88FA663C4F851
:10A2800008C0E2605CF090F9013DA6630028EFD0C1
:10A2900015F0FF05DAD10346CBF82C50CBF8283067
:10A2A000BDE8F88FB02E0020002C014000E1F5053C
:10A2B000B81D00202DE9F843DFF8708098F85C5055
:10A2C000042D0446894617461E4608D0082D02D0A4
:10A2D0000020BDE8F883FEF773FC0228F8D10123C3
:10A2E0004A4620460021FFF775FF68B1FEF7F0FCF3
:10A2F000D8F84440002CEBD00022D8F84830D8F8E9
:10A300003C101046A047E3E7074BC8F838905A695D
:10A31000C8F83C400523C8E91176C8F84C2088F8F5
:10A320005C300120BDE8F883B02E0020B81D00206D
:10A330002DE9F84F2F49DFF8C49091F8A11D1E4672
:10A3400002292D4B07464FF0010418BF4702012E8A
:10A3500040F259481C6398BF4FF48B683B469346C4
:10A36000474640F2FF55B0468CBF4FF0190A4FF0F8
:10A37000180A0A241E4640F2FF53C9F8383001215A
:10A38000C9F808605046C9F80C705CF00DF9034636
:10A390004FF0000C40F2774201213720C9F83850C5
:10A3A000A3B9584641460122FDF72AFE4646134A04
:10A3B000134B536276029662D36A43F09103D362E1
:10A3C0000D4B002108469962BDE8F88FC9F8385056
:10A3D000C9F808C0C9F80C205CF0E6F8013CC9F8DF
:10A3E00038500028DDD014F0FF04C4D1024B1C63A8
:10A3F000BDE8F88FB02E0020B81D0020002C0140D1
:10A4000000E1F5052DE9F047364C82B005460E46D1
:10A410001746984694F85C0004280CD0082806D10A
:10A42000636DAB4207D0FEF7CBFB0228F2D00120D0
:10A4300002B0BDE8F087DFF8B4A0A663DAF8989D13
:10A44000E563C9F34F210F294FEA592222D8A36DA2
:10A450000193FBB194F8AD00E0B1B9F5005F13D002
:10A46000214831464FF40072484465F013FF09F566
:10A470000072C2F34F211029CAF8982D4FEA5222D8
:10A4800002D0019B012B21D192B2013A164EAD1A96
:10A490000B4600E00123324628460626012500210E
:10A4A0006764C4F8488084F8405084F85C60FFF723
:10A4B0003FFF0028BCD0FEF70BFC666C86B1284637
:10A4C000A36CE16B0022B0470320B1E7626D013B52
:10A4D00001320421C4E9152384F85C100220A7E7A7
:10A4E0000320A5E7B81D0020F8630020B02E00204F
:10A4F000144A154BD2F82824B3EB920F15D2B3EBC4
:10A50000D20F14D2B3EB121F13D2B3EB521F12D2DD
:10A51000B3EB921F11D2B3EBD21F10D2B3EB122FB9
:10A5200034BF4FF4807080207047022070470420B1
:10A530007047082070471020704720207047402047
:10A54000704700BFB02E00208096980030B583B0D1
:10A550000D46012301460DF107020446074849F064
:10A5600041FA9DF8072035EA020304D003482A4344
:10A57000214649F003FB03B030BD00BFEC3C002096
:10A5800073B50D4E05460C46FF230A46014630467C
:10A590008DF8073049F03CF901230DF1070245F031
:10A5A0008001304649F002F99DF80700031B58422C
:10A5B000584102B070BD00BFEC3C00202DE9F047CF
:10A5C0002E4C94F83C3E022B82B005460F461646B0
:10A5D00011D0012B0BD10091134694F8411E024675
:10A5E00094F9400E61F0C0F902B0BDE8F087002098
:10A5F00002B0BDE8F087B4F8483E8BBBD4F84C3EBF
:10A6000013B11A689B885383D4F840AE45F04CF8D8
:10A61000BAF80C30804642F20F79BAF808309B073E
:10A6200014D5294650465EF049FC3346D4F8400E16
:10A630003A4600215BF0FCFDD4F84C3EDBB11A68D1
:10A640009B881383012002B0BDE8F08745F02CF809
:10A65000A0EB08034B45E0DD504649F003F8E4E782
:10A66000D4F8442ED1899942C8D0D4F8401E0B802A
:10A67000D38100BFC2E70120B6E700BFB02E0020A3
:10A6800070B50278022A04460D4614D0012A01D082
:10A69000002070BD0C4B90F9040083F8BC2A421CCA
:10A6A000F6D00328F4DC0A4603F6BC236179BDE842
:10A6B0007040FFF793BB60F025FE2946204601223B
:10A6C000BDE8704049F0A4B8A83F002010B50B4C7D
:10A6D000D4F84C0E48F060FBD4F84C0E08B121239E
:10A6E000C380012148F018FBFFF702FFBDE81040CE
:10A6F00002460321024860F011BE00BFB02E0020C8
:10A70000EC3C002037B5394C00238DF8073094F825
:10A71000CC3A03F0FD02012A05D194F8D42A12B9EB
:10A720000C2284F8D42A022B314D1DD0032B2FD0BC
:10A7300001220B21284659F0C7FE042044F0E0FF17
:10A7400001230DF107020021284659F0DEFEB8B3BF
:10A750009DF80730482B33D1264BC4F8C03A264B1E
:10A76000C4F8C43A03B030BDD4F8DC0A48F014FB96
:10A77000D4F8DC0A08B13523C380012148F0CCFAB3
:10A78000FFF7B6FE03210246284660F0C7FDCFE77B
:10A790001A4BD4F8D00A46F2A812C3F85424372131
:10A7A000122259F065FED4F8D00A0D22242159F066
:10A7B0005FFED4F8D00A30226A2159F059FEB7E77B
:10A7C00094F8CC3A022B03D0032B07D00020C9E722
:10A7D000D4F8DC0A48F0CAFE0020C3E7D4F8D00A57
:10A7E0001022372159F044FEF0E700BFA83F0020B7
:10A7F000744A002063450608E545060888010020E4
:10A800002DE9F047354F364AD7F82834B2EB930F8D
:10A81000064688464FEA930980F0E082B2EBD30FF8
:10A8200080F0DE82B2EB131F80F0E582B2EB531FA3
:10A8300080F0E582B2EB931F80F0E582B2EBD31F8C
:10A8400080F0E582B2EB132F34BF4FF4807180218A
:10A85000244C00234FF4F072A4F8101B04F61430BB
:10A86000202184F8123B84F8133B65F074FD04F654
:10A87000F4404FF4F072202165F06DFD94F8D50E90
:10A8800040B394F8D63E2BB30509013D052D00F0E9
:10A890000F0000F22582DFF854A00AEB4502B2F85F
:10A8A000842042FA00F1C90740F11A82012303FA19
:10A8B00000F001381040554462F02CF995F89020D2
:10A8C000094B104403EBC000C4F8E80E83797BB158
:10A8D000412B0DD06FF00100BDE8F087B02E0020B5
:10A8E00080969800A83F0020D82F0020F803070882
:10A8F00023230921C38047F085FDD4F8E81E0029F1
:10A9000000F0A7820B68D7F828248888188394F869
:10A91000D63E4FEA9209013B5BB25D1C00F0E88134
:10A92000022B00F3E58107EB0313D24AD3F8B85F9B
:10A93000C4F8DC5E0223914584F8D83E40F26B8275
:10A94000CC4BB3EB590F80F05482B3EB990F80F0EE
:10A950005482B3EBD90F80F05482B3EB191F80F00F
:10A960005482B3EB591F80F05482B3EB991F34BF6C
:10A970004FF4807380235B002A88BF4822F0400296
:10A980001204120C2A802A8822F03802120485420E
:10A990004FEA124200F0A281B848854200F09E8141
:10A9A000B3F5807FA8BF4FF48073002B93FAA3F315
:10A9B000B3FA83F308BF4FF0FF33013B42EAC3030E
:10A9C0009BB22B802B88B4F8E42E9BB243F040035B
:10A9D0002B80002A40F0568111B10B688A885A8377
:10A9E00044F062FEAB89814642F20F7A2B899807C8
:10A9F00040F1348128468C215EF060FAD4F8DCAE58
:10AA000044F052FEBAF80C30054642F20F79BAF81B
:10AA10000830990740F102815046FF215EF04EFA5E
:10AA2000D4F8E83E002B00F008811D68998829833E
:10AA30001B2840F0FC812322DA80B4F8E42E0120A8
:10AA400084F8120B002A40F037816983D4F8DCAE19
:10AA500044F02AFEBAF80C30054642F20F79BAF8F3
:10AA600008309A0740F1D08050460A215EF026FA5D
:10AA7000D4F8DCAE44F018FEBAF80C30054642F2C9
:10AA80000F79BAF808309B0740F1B4805046402156
:10AA90005EF014FAD4F8DCAE44F006FEBAF80C30DE
:10AAA000054642F20F79BAF80830980740F19880CD
:10AAB00050468A215EF002FAD4F8DCAE44F0F4FD90
:10AAC000BAF80C30054642F20F79BAF80830990707
:10AAD0007BD55046FF215EF0F1F9D4F8E83EC0F393
:10AAE000801184F8EC1E00F0400013B11A689B88B6
:10AAF000138394F8D42E012A00F01181022A00F069
:10AB00004F81002A00F02F81B4F8102B94F8ED3E0D
:10AB1000182B05D1A4F8F08EA4F8F21EA4F8F42E98
:10AB20005748032160F0FAFBB4F8E43E002B40F0F4
:10AB3000B780D4F8E83E13B11A689B885383D4F8E1
:10AB4000DC5E44F0B1FDAB89074642F20F782B89F9
:10AB50009A0731D5284600215EF0B0F9D4F8DC5EC2
:10AB600044F0A2FDAB89074642F20F782B899B0780
:10AB700019D5284602215EF0A1F9D4F8E83E13B1B8
:10AB80001A689B8813837278B378317884F8F81E3A
:10AB9000C2F12002C3F1100384F8F92E84F8FA3EC2
:10ABA0000020BDE8F08744F07FFDC31B4345DDDD99
:10ABB000284648F057FDE0E744F076FDC31B4345C7
:10ABC000C5DD284648F04EFDC8E744F06DFD431B47
:10ABD0004B457FF77AAF504648F044FDC0B27CE762
:10ABE00044F062FD431B4B457FF75DAF504648F094
:10ABF00039FD61E744F058FD431B4B457FF741AFFA
:10AC0000504648F02FFD45E744F04EFD431B4B45B1
:10AC10007FF725AF504648F025FD29E744F044FD75
:10AC2000431B4B457FF7F3AE504648F01BFDD4F86D
:10AC3000E83EC0B2002B7FF4F8AE1B2840F006813E
:10AC4000B4F8E42E012384F8123B002A3FF4FEAE50
:10AC5000D4F8E01ECB89934233D1F7E644F024FDCB
:10AC6000A0EB090353457FF7C1AE284648F0FAFC34
:10AC7000C4E600BF8096980000380040003C0040C9
:10AC8000804E0020D4F8E03ED88990423FF4A4AE34
:10AC90002A80DA8100BFD4F8DC5ED4F8E81E9BE697
:10ACA000D4F8E02ED18999423FF443AFD4F8DC1EAA
:10ACB0000B80D38100BF3CE7D4F8E01EC8899042E6
:10ACC00009D0D4F8DC3E1A80CA8100BFD4F8E83E2F
:10ACD000002B3FF4BBAE1D689988B6E65B085FE6C3
:10ACE000013B5BB20021022BC4F8E81E7FF71BAECC
:10ACF0005B4B02220025994584F8D82EC4F8DC5E0F
:10AD00003FF61EAE2B8823F040031B041B0C2B8048
:10AD10002A8822F038021204120C04233CE6D7F8E9
:10AD200028244F4BB8F1000F01D000285AD0B3EBC4
:10AD3000920F80F08980B3EBD20F56D2B3EB121F83
:10AD400055D2B3EB521F68D2B3EB921F67D2B3EB6D
:10AD5000D21F66D2B3EB122F34BF4FF48072802221
:10AD6000A4F8102BD2E6D7F828243D4BB3EB920F72
:10AD70003BD2B3EBD20F56D2B3EB121F55D2B3EB8B
:10AD8000521F5BD2B3EB921F5AD2B3EBD21F59D2F0
:10AD9000B3EB122F34BF4FF4807280225200DFE7F2
:10ADA000D7F828042E4BB3EB900FD9D2B3EBD00FCA
:10ADB0001BD2B3EB101F1AD2B3EB501F2DD2B3EB43
:10ADC000901F2CD2B3EBD01F2BD2B3EB102F34BF7C
:10ADD0004FF480728022A4F8102B97E6022137E509
:10ADE000042135E5B3EB920FC3D30422B8E7082260
:10ADF000B6E70423BFE508212AE50823BBE51021B7
:10AE000026E51023B7E5202122E52023B3E54021E4
:10AE10001EE54023AFE50423AEE51022A0E7202283
:10AE20009EE740229CE70422B8E70822B6E71846CE
:10AE3000202147F0E7FA4FF0FF30B2E61022ADE7ED
:10AE40002022ABE74022A9E7022289E74FF0FF303A
:10AE5000A7E6D7F8282494F8D63E4FEA92095AE597
:10AE6000809698000146014848F01EBCA44E002080
:10AE7000094B93F89A30042B08D9053B032B08D8CB
:10AE800001231A4600B103701046704700230122C7
:10AE9000F8E700231A46F5E7B02E0020F0B40D685D
:10AEA00000240CE0BCF1050F18D8A0F137030A2BE1
:10AEB00014D104EB840415F8010B03EB4404A0F156
:10AEC0003003DEB2092EA0F16107A0F1410CF0D9E8
:10AED000052FE7D8A0F157030A2BEAD00D601460C4
:10AEE000F0BC70479FED717A07EE901A20EE070ACA
:10AEF000F8EE677A27EE800AFDEEC07A17EE903AF8
:10AF00002033402B00F2C280DFED697AB4EEE70A0D
:10AF1000F1EE10FAF0EE407A0CDD9FED666ADFED9F
:10AF2000666AB0EE677AB4EEE67AF1EE10FA77EE82
:10AF3000C67AF6DC9FED617AF4EEC77AF1EE10FA8C
:10AF40000CD59FED5C6ADFED5E6AB0EE677AB4EE19
:10AF5000E67AF1EE10FA77EE867AF6D49FED597A1A
:10AF6000F4EEC77AF1EE10FA00F388809FED567A7E
:10AF7000F4EEC77AF1EE10FA44BF9FED507A77EE07
:10AF8000677A27EEA76ADFED515A9FED517ADFED20
:10AF9000516AA6EE257A67EE865AE6EE076AB6EEA5
:10AFA000007AE5EEA67A27EE877ADFED466A70EE44
:10AFB000267ABDEEE76A16EE103A2033402B62D8AF
:10AFC000B4EEE60AF1EE10FA0CDDDFED3A5A9FED31
:10AFD0003A6AF0EE676AF4EEC66AF1EE10FA77EEBE
:10AFE000E57AF6DCDFED356AF4EEE67AF1EE10FA9A
:10AFF0000CD5DFED305A9FED326AF0EE676AF4EE61
:10B00000C66AF1EE10FA77EEA57AF6D4DFED2D6A76
:10B01000F4EEE67AF1EE10FA3BDDDFED256A76EE2E
:10B02000E77A67EEA75A9FED295A9FED296ADFED6F
:10B03000296AA5EE856A27EEA55AE5EE866AB8EE7E
:10B04000006AE5EE267A67EE867AC7EE206AB7EEEA
:10B05000006A76EE865A76EE666A86EE257A67EEA6
:10B06000277A66EE876AC0ED017AC0ED037A80ED3B
:10B07000007A80ED027AC0ED046A70479FED0C7A89
:10B0800077EE677A7DE7DFED147ADEE79FED127ADF
:10B090008BE7DFED0D6AF4EEE67AF1EE10FA44BFCD
:10B0A000DFED066A76EEE77ABBE700BF27D4D2363B
:10B0B000DB0F4940DB0FC940E4CB1641DB0F49C031
:10B0C000E4CB16C1DB0FC93FDB0FC9BF92E741B923
:10B0D0009730083C15A82ABE000000002DE9F84F63
:10B0E000DFF8E483DFF8E493D8ED3E7A99F8105F57
:10B0F000F8EE670A08F5E6632DED028BC3ED000A52
:10B10000002D78D1DFF8C8E3C8F8385798F83CC765
:10B110009EF80050BCF1000F40D0B9F8143F9FEDED
:10B12000D36A9FEDD37A07EE903AF8EE677A20EE75
:10B13000877AC6EE276ACF4B0022BCF1010F1A6056
:10B1400076EE876AC7EE267AC3ED017A26D0BCF187
:10B15000020F9A60C3ED037A20D0BCF1030F1A618D
:10B16000C3ED057A1AD0BCF1040F9A61C3ED077ADA
:10B1700014D0BCF1050F1A62C3ED097A0ED0BCF1F0
:10B18000060F9A62C3ED0B7A08D0BCF1070F1A6361
:10B19000C3ED0D7A02D09A63C3ED0F7AB64B9FEDE3
:10B1A000B76A93F8BA309FEDB67A9FEDB60AB64A01
:10B1B00007EE903AF8EEE77A9EF8343AC6EE276A40
:10B1C0001D4415FB0CFC5FFA8CFC07EE90CA60EE88
:10B1D000870AF8EEE77AC2ED006AA7EEA00A63F0EC
:10B1E00001F8BDEC028BFCEEC07A17EE903A88F8BD
:10B1F0008C38BDE8F88FB9F8123F99F8117F9FEDB0
:10B20000A37ADFF8CCE2DFEDA26A98F83CC7C8F871
:10B2100038E707EE903A06EE107AF8EEE77ABCEEE1
:10B22000E02A27EE877AB8EEC66AB8EE422A0123F2
:10B2300022EE262A8EED037A8EF80050CEED040A17
:10B240008EED016A88F83437BCF1000F00F0E88019
:10B250009FED907A9FED904ADFED905AC7EE271A46
:10B260000CEB4C0606EBC6066FF06B0B0EEB86067E
:10B270000BFB0CFB4FF0000AB1EE611A9FED886AE0
:10B280000BEB060400229FED873ADFED873ADFEDF6
:10B29000876A1046234607EE902AB8EEE77A27EE33
:10B2A000027AFDEEC77A17EE901A2031402900F29B
:10B2B000CB80B4EEC47AF1EE10FAF0EE477A0CDDF2
:10B2C000DFED7B4A9FED7B5AF0EE672AF4EEC52A4C
:10B2D000F1EE10FA77EEE47AF6DCF4EEE57AF1EED0
:10B2E00010FA0CD5DFED724A9FED735AF0EE672A23
:10B2F000F4EEC52AF1EE10FA77EEA47AF6D4F4EE65
:10B30000C67AF1EE10FA40F3A68074EE677A27EE63
:10B31000A75AB0EE630AA5EE030ADFED684AE5EE30
:10B32000004A65EE272AB7EE005AE2EEA47AB0EEA4
:10B33000458AF0EE454AA1EEA78AE1EE274AC5EE1E
:10B34000088A84EE880A77EE067ABDEEE75A15EE93
:10B35000101A2031402974D8B4EEC67AF1EE10FAF2
:10B360000CDD9FED535A9FED537AF0EE674AF4EEF1
:10B37000C74AF1EE10FA77EEC57AF6DCF4EEE57A1C
:10B38000F1EE10FA0CD59FED4A5A9FED4B7AF0EE94
:10B39000674AF4EEC74AF1EE10FA77EE857AF6D4F2
:10B3A000F4EEC67AF1EE10FA41DD74EE677A27EE1C
:10B3B000A75AF0EE632AE5EE032A9FED407AA5EE48
:10B3C000227A65EE274AB8EE005AE4EE877A67EEF5
:10B3D000857A87EE887A013085423A4403F1240366
:10B3E00043ED048A03ED037A03ED017A43ED028A0B
:10B3F00083ED000AC3ED026AC3ED016AC3ED046A7E
:10B40000C3ED036A3FF747AF6C34A6427FF43AAF0F
:10B410000AF5587ABAF5226F06F558767FF42EAF02
:10B420009FED277AC7EE207ACEED027A72E69FED85
:10B43000257AF4EEC77AF1EE10FA48BF75EEE77A96
:10B44000B5E7F0EE667AC4E7B7EE000AF0EE408AA0
:10B45000B0EE408A77E79FED1B5AF4EEC57AF1EE25
:10B4600010FA48BF75EEE77A51E700BF83F9223E34
:10B47000BD378635C04E0020B02E002055555540B2
:10B480006E12833A48E1FA3E940800100AD7233C32
:10B4900027D4D23600004842DB0F4940DB0F49C0B9
