:020000040800F2
:100000000000012079500608F950060849C9040883
:10001000CDC90408F9500608F95006080000000090
:10002000000000000000000000000000F950060879
:10003000F950060800000000F95006087DB00408D9
:10004000F9500608F9500608F9500608F950060854
:10005000F9500608F950060839D5040865D6040891
:1000600029D60408EDD50408B1D50408B12B06083B
:10007000A12B0608912B0608812B06086D2B06087C
:10008000592B0608452B0608F9500608F9500608B2
:10009000F9500608F9500608F950060875D5040805
:1000A00035020608BD02060825020608E502060814
:1000B000AD0206089D0206088D020608653906088D
:1000C00089390608A9380608CD380608F950060807
:1000D000F950060855BC04080DBA0408C5B7040851
:1000E000FDD40408F9500608F95006081502060860
:1000F00045020608F95006086D020608312B06086D
:10010000F9500608ADF405087D020608F950060806
:100110007DB5040835B30408F950060839F5000820
:100120001D2B0608092B0608F52A0608E12A0608F1
:10013000CD2A0608000000000000000000000000BA
:10014000000000000000000000000000D1F90008DD
:10015000B92A0608A52A0608912A0608EDB004085F
:10016000E53706080D380608F9500608F950060864
:10017000F9500608F95006080000000000000000D1
:10018000F9500608F9500608F9500608F950060813
:10019000F9500608F950060800000000F95006085A
:1001A000000000000000000000000000F9500608F8
:1001B000F9500608F9500608000000000000000091
:1001C000000000000000000000000000000000002F
:1001D000000000000000000000000000F9500608C8
:0801E000D04B060001000000F5
:1001E8000E02010002000000F4590120545A0120B7
:1001F80000000000280A00081402010005000000A1
:1002080018300120585A0120000000002A0A00086E
:10021800232001001000000044590120605A0120E9
:1002280000000000698502080D1001007000000040
:10023800C8580120705A012000000000110004086D
:10024800040008008000000008580120E05A01203E
:100258000000000000000000FD0101002400000073
:10026800AC570120605B012000000000A385040852
:10027800FB0101000100000068570120845B012098
:1002880000000000D16D0508FC0101000900000014
:1002980034560120885B012000000000D96D050854
:1002A800F70101000600000028560120945B012098
:1002B80000000000300A0008F901010004000000F5
:1002C800245601209C5B0120000000005186040890
:1002D800160215003F000000A42C0120A05B01209D
:1002E80000000000656D05083400010010000000E2
:1002F80018550120E05B0120000000007DA70208DE
:100308001102010008000000F0540120F05B0120F8
:1003180000000000360A0008121201000400000064
:10032800E8540120F85B0120000000003E0A0008A4
:100338001820010032000000B4540120FC5B0120A9
:10034800000000002D7605081220010011000000B1
:10035800D4530120305C012000000000420A00084C
:10036800000201000B00000010510120445C012034
:10037800000000009D6E0508FF1101000600000046
:10038800B4500120505C012000000000B16D050848
:100398000812040014000000C0500120585C01201D
:1003A80000000000A56E050813020100040000000B
:1003B800842C01206C5C012000000000540A000815
:1003C800FA010100030000009C500120705C01202C
:1003D80000000000856E05080A8001002800000062
:1003E80060500120745C0120000000005584020860
:1003F800061001001C000000882C01209C5C0120D4
:1004080000000000156E050802020100030000004C
:100418004C4A0120B85C01200000000000000000E8
:100428000C02010004000000284A0120BC5C0120E5
:1004380000000000756E0508110001000C000000A6
:10044800FD3A0120C05C012000000000B1FF030854
:10045800FE0101001400000088390120CC5C012055
:1004680000000000016F0508030101000A000000F8
:10047800B4950120949601200000000049800108ED
:100488001B1001000C000000189C0120E8A10120AD
:1004980000000000758D010821020100F000000035
:1004A800809A0120F4A1012000000000319E01087B
:1004B8002312010010000000A09D0120E4A20120E9
:1004C80000000000580A0008371001002E00000044
:1004D8005CA10120F4A2012000000000680A0008C5
:1004E8001610010006000000989D012024A3012099
:1004F80000000000960A00082F10010022000000EA
:10050800C4A101202CA30120000000009C0A0008BF
:100518001E000100090000002C9D012050A30120AD
:1005280000000000BE0A00080510010006000000D7
:10053800789D01205CA3012000000000C80A000883
:10054800F581010068000000109A012064A30120D1
:1005580000000000BDAC0108FD07010078000000A4
:100568004E990120CCA3012000000000F986010863
:10057800261001000E00000054A4012044A401200C
:1005880000000000718501080B3001001A0000000E
:100598003499012094A4012000000000CE0A00082C
:1005A8001F3001002400000010990120B0A4012090
:1005B80000000000E80A000805020100040000002D
:1005C800B09D0120D4A40120000000000C0B0008FD
:1005D800140001000400000028B60120BCB6012068
:1005E80000000000100B0008012001000C000000B2
:1005F800B8AB0120C0B6012000000000140B0008B1
:100608000EF003009E010000D0A80120CCB6012006
:1006180000000000C5A70208130001000400000044
:10062800B4B601206CB8012000000000200B0008BF
:1006380001010100040000000CA8012070B801208D
:10064800000000000000000000010100040000009C
:1006580004A8012074B8012000000000240B000841
:10066800020101000300000000A8012078B8012061
:100678000000000049C10308220201001C0100001B
:100688009CB001207CB8012000000000E575050839
:100698000C200600CC00000094AA012098B9012083
:1006A8000000000009C10308010201000B0000005E
:1006B80018A8012064BA0120000000008D6E05080A
:1006C8001B0201001000000088AE012070BA012052
:1006D80000000000F16D0508203201000A0000004A
:1006E800ECC70120F8C7012000000000A1A70208FC
:1006F8001500100070000000ACC6012004C80120DD
:1007080000000000000000002A000800600000004F
:10071800BCC5012074C801200000000055A70208CC
:100728002C00040010000000E4C80120D4C80120F7
:100738000000000035A502082B001200240000006C
:1007480018C90120F4C801200000000009A502080A
:10075800292014007800000050C301203CC9012062
:100768000000000000000000190201001000000055
:10077800F4C20120B4C9012000000000C16D0508C1
:10078800F62101000C000000C4C00120C4C90120EA
:1007980000000000280B00081C0202001C000000DA
:1007A8006CC0012014CA012000000000D976050899
:1007B800282001001800000088C0012030CA01204C
:1007C8000000000059AC02080412010002000000F9
:1007D80040C2012048CA012000000000340B000874
:1007E8000F020100010000003CC201204CCA012098
:1007F80000000000360B0008031201003D00000055
:10080800D0CF012054D0012000000000380B000890
:1008180025201E002C01000034CD012094D0012099
:10082800000000000000000010100100020000009D
:100838001CCD0120C0D1012000000000760B00086B
:10084800F821010006000000FCCC0120C4D10120E1
:1008580000000000780B00081900010005000000E6
:100868006CCC0120CCD10120000000007E0B0008D8
:100878001A0001000E00000058CB0120D4D101203D
:1008880000000000840B000829020100400000005D
:10089800A0D40120A4DA012000000000920B000877
:1008A8000A02010014000000F4D9012004DB012031
:1008B80000000000D5C0030803000100010000008B
:1008C80094DA012018DB012000000000000000007D
:1008D800381001000100000018DE01201CDF012093
:1008E80000000000D20B0008020001000C0000000C
:1008F80088DE012020DF0120000000000000000049
:100908002802040004000000A8E10120A0E601205C
:1009180000000000116E0508270204000400000012
:10092800A4E10120A4E6012000000000056E0508EE
:100938001F0208001000000094E10120A8E6012031
:1009480000000000696D05081A0201003C00000063
:1009580054E10120B8E6012000000000697705088D
:10096800270001000400000054E70120B4E701203B
:1009780000000000D40B00080B1201003C0000002E
:100988006CE8012048FA012000000000D80B00089C
:100998000D1201001400000020F5012084FA012046
:1009A80000000000140C000807020100020000000B
:1009B80030FA012098FA012000000000280C0008F5
:1009C8001D0202000600000088F901209CFA01209F
:1009D80000000000000000000602040010000000F3
:1009E80090F90120A4FA0120000000009D76050876
:1009F8003900010005000000A0F90120B4FA012027
:100A080000000000556D05081002010001000000FB
:100A1800501A02204C1A0220000000002A0C00087C
:100A28000000000000FF00000000010000000000BE
:100A3800000001010101FFFFFFFF000000010000AD
:100A48000553375832000000000200000000010082
:100A5800000000000000000000000000000000008E
:100A680020003200C800D007960014003200280089
:100A78004C0440060005500014000F0008006400F4
:100A88000100010005000A000000F4019600C409F5
:100A98000000190000000000000000000000000035
:100AA800000000000000000000000000000000003E
:100AB8000000000000000005010000000000000028
:100AC800200003010000AE014A015E012C01640010
:100AD8000200000001000A019A01001E0A0000023B
:100AE80000000000000100000005000001020300F2
:100AF80000000000000000000000000000000000EE
:100B0800008007000000000003000023E8036400E1
:100B1800040A000114001E0000204030900100006B
:100B280000000000010000000202000000000000B8
:100B380000000000000000000000000000000000AD
:100B4800000000000000000000000000000000009D
:100B5800000000000000000000000000000000008D
:100B68000000000000000000000000000100000577
:100B78000101F40114000000280100007E05EA05C7
:100B8800B4053200E803D0070000000000000000B0
:100B9800000000000000000000000000000000004D
:100BA800000000000000000000000000000000003D
:100BB800000000000000000000000000000000002D
:100BC80000000000000000000000000020030000FA
:100BD800000000000000000000000000000000000D
:100BE80000000000000000000000000000000000FD
:100BF80000000000000000000000000000000000ED
:100C080000000000000000000100000000000000DB
:100C180000000000000000000000000000000000CC
:030C2800003C008D
:100C2B0000C20100000008000A060002000000409C
:100C3B000100000009026400030100C03209040036
:100C4B0000010300000009211101000122360007F9
:100C5B0005830308000A080B0102020201000904C4
:100C6B00010001020201000524001001052401000E
:100C7B000204240202052406010207058203080070
:100C8B00FF09040200020A000000070501024000F0
:100C9B0000070581024000004D2C01084D2B010877
:100CAB00A55E01080000000059210108015B010845
:100CBB00852101080000000000000000000000007A
:100CCB0039210108492101082921010819210108AD
:100CDB001A030000000000000000000000000000EC
:100CEB0000000000000000000000000004030904E5
:100CFB00FFFFFFFF120100020000004083042A5790
:100D0B000002010203010000120100020200004078
:100D1B00830440570002010203010000120100028C
:100D2B00EF0201408304563200020102030110005E
:100D3B007D00000000000000D193000861AF0008A7
:100D4B008D930008A1B00008B1940008C98B00086E
:100D5B00B58B0008998B0008112A0108012901089D
:100D6B00412A01082534010801430108A134010877
:100D7B0079200108A18B0008918B0008010000006D
:100D8B000000803F0A060002000000400100000046
:100D9B0009072000010104C0320904000002080603
:100DAB0050050705810240000007050102400000C5
:100DBB0009022000010104C03209040000020806E8
:100DCB0050050705810240000007050102400000A5
:100DDB0009022000010104C03209040000020806C8
:100DEB005005070581020002000705010200020001
:100DFB000A06000200000040010000000902220068
:100E0B00010100E032090400000103010200092185
:100E1B00110100012236000705830308000A0000B8
:100E2B0009022200010100E0320904000001030164
:100E3B000200092111010001223600070583030876
:100E4B000007000009022200010100E03209040042
:100E5B0000010301020009211101000122360007E4
:100E6B0005830308000A00000A0600020000004088
:100E7B000100000009074300020104C0320904000D
:100E8B0000010202010005240010010524010001EC
:100E9B000424020205240600010705820308001042
:100EAB0009040100020A00000007050102400000CE
:100EBB00070581024000000009024300020100C047
:100ECB003209040000010202010005240010010593
:100EDB0024010001042402020524060001070582F7
:100EEB000308001009040100020A000000070501B5
:100EFB000200020007058102000200000902430004
:100F0B00020100C0320904000001020201000524A5
:100F1B00001001052401000104240202052406002F
:100F2B00010705820308001009040100020A0000F2
:100F3B000007050102400000070581024000000088
:100F4B0000FF0000000000000000AA550701000090
:100F5B000060024010600240000000000000000032
:100F6B00000B00000000000000000000000000006B
:100F7B0000600240286002400100000000000000F9
:100F8B00060C000000000000000000000000000044
:100F9B0000600240406002400200000000000000C0
:100FAB00100D000000000000000000000000000019
:100FBB000060024058600240030000000000000087
:100FCB00160E0000000000000000000000000000F2
:100FDB00006002407060024004000000000000004E
:100FEB00200F0000000000000000000000000000C7
:100FFB000060024088600240050000000000000015
:10100B00261000000000000000000000000000009F
:10101B0000600240A06002400600000000000000DB
:10102B003011000000000000000000000000000074
:10103B0000600240B86002400700000000000000A2
:10104B00362F000000000000000000000000000030
:10105B000064024010640240000000000000000029
:10106B00003800000000000000000000000000003D
:10107B0000640240286402400100000000000000F0
:10108B000639000000000000000000000000000016
:10109B0000640240406402400200000000000000B7
:1010AB00103A0000000000000000000000000000EB
:1010BB00006402405864024003000000000000007E
:1010CB00163B0000000000000000000000000000C4
:1010DB000064024070640240040000000000000045
:1010EB00203C000000000000000000000000000099
:1010FB00006402408864024005000000000000000C
:10110B00264400000000000000000000000000006A
:10111B0000640240A06402400600000000000000D2
:10112B00304500000000000000000000000000003F
:10113B0000640240B8640240070000000000000099
:10114B003646000000000000000000000000000018
:10115B00AA550501000008003C950608FF1FFF1F5C
:10116B0005010905A101A100050109300931093269
:10117B00093309350934093609371581257F750877
:10118B009508810205091901290815002501950803
:10119B0075018102C0C00000092111010001223636
:1011AB00002D202D2D202D2D2D2D202D2D2D2D00E5
:1011BB000000000000000000000000000000000024
:1011CB00AA550B010000AA5505010000AA550902FA
:1011DB00000000AA5503009F01000000C012000090
:1011EB0001010000000001FFFFFFFFFF7EFF000079
:1011FB00FFFFFFFF8CA401200000000064A401206E
:10120B000000000001000000CC2607084826070854
:10121B0000000000BDC10308A0860100040000000F
:10122B0000000000000000000000000000000000B3
:10123B0000000000000000000000000000000000A3
:10124B000000000000000000CC260708D426070889
:10125B0000000000BD940408E80300000400000037
:10126B000000000000000000000000000000000073
:10127B000000000000000000000000000000000063
:10128B000000000000000000DC2607080000000042
:10129B0000000000551000007D000000FF00000062
:1012AB000000000000000000000000000000000033
:1012BB000000000000000000000000000000000023
:1012CB00000000000000000068510708000000004B
:1012DB0000000000890600007D000000FF000000F8
:1012EB0000000000000000000000000000000000F3
:1012FB0000000000000000000000000000000000E3
:10130B000000000000000000FC3107080000000096
:10131B0000000000E51300007D000000FF0000004E
:10132B0000000000000000000000000000000000B2
:10133B0000000000000000000000000000000000A2
:10134B000000000000000000E42607080000000079
:10135B0000000000E18B0408E8030000030000001C
:10136B000000000000000000000000000000000072
:10137B000000000000000000000000000000000062
:10138B000000000000000000E82607080000000035
:10139B0000000000E55203081027000003000000C6
:1013AB000000000000000000000000000000000032
:1013BB000000000000000000000000000000000022
:1013CB0000000000000000007C4D0708000000003A
:1013DB0001A1020839CA04085F760000050000006D
:1013EB0000000000000000000000000000000000F2
:1013FB0000000000000000000000000000000000E2
:10140B0000000000000000000C5107080000000065
:10141B0000000000D9ED04081027000001000000B7
:10142B0000000000000000000000000000000000B1
:10143B0000000000000000000000000000000000A1
:10144B000000000000000000F42607080000000068
:10145B0000000000AD820408E80300000500000056
:10146B000000000000000000000000000000000071
:10147B000000000000000000000000000000000061
:10148B00000000000000000000270708000000001B
:10149B000000000021C80308204E000003000000DC
:1014AB000000000000000000000000000000000031
:1014BB000000000000000000000000000000000021
:1014CB0000000000000000001027070800000000CB
:1014DB000000000009C60308204E000003000000B6
:1014EB0000000000000000000000000000000000F1
:1014FB0000000000000000000000000000000000E1
:10150B00000000000000000020270708000000007A
:10151B000000000021910408400D030003000000AF
:10152B0000000000000000000000000000000000B0
:10153B0000000000000000000000000000000000A0
:10154B00000000000000000030270708000000002A
:10155B0000000000A94A0408102700000100000049
:10156B000000000000000000000000000000000070
:10157B000000000000000000000000000000000060
:10158B0000000000000000007426070800000000A7
:10159B0000000000390F02081027000003000000B4
:1015AB000000000000000000000000000000000030
:1015BB000000000000000000000000000000000020
:1015CB0000000000000000003827070800000000A2
:1015DB00000000004DB60208A086010001000000CB
:1015EB0000000000000000000000000000000000F0
:1015FB0000000000000000000000000000000000E0
:10160B000000000000000000402707080000000059
:10161B0000000000518A040850C3000001000000C4
:10162B0000000000000000000000000000000000AF
:10163B00000000000000000000000000000000009F
:10164B000000000000000000482707080000000011
:10165B00000000002D880408A08601000000000097
:10166B00000000000000000000000000000000006F
:10167B00000000000000000000000000000000005F
:10168B0000000000000000005427070800000000C5
:10169B0000000000452A0408A861000001000000BA
:1016AB00000000000000000000000000000000002F
:1016BB00000000000000000000000000000000001F
:1016CB000000000000000000602707080000000079
:1016DB0000000000B5590208A086010001000000BF
:1016EB0000000000000000000000000000000000EF
:1016FB0000000000000000000000000000000000DF
:10170B0000000000000000006C270708000000002C
:10171B000000000035010408A00F000001000000CC
:10172B0000000000000000000000000000000000AE
:10173B00000000000000000000000000000000009E
:10174B0000000000000000007827070800000000E0
:10175B000000000079EB01081027000001000000D9
:10176B00000000000000000000000000000000006E
:10177B00000000000000000000000000000000005E
:10178B000000000000000000842707080000000094
:10179B000000000061000408A00F00000100000021
:1017AB00000000000000000000000000000000002E
:1017BB00000000000000000000000000000000001E
:1017CB000000000000000000902707080000000048
:1017DB0000000000D5E30108050D0000010000002A
:1017EB0000000000000000000000000000000000EE
:1017FB0000000000000000000000000000000000DE
:10180B000000000000000000942707080000000003
:10181B000000000079800108102700000100000083
:10182B0000000000000000000000000000000000AD
:10183B00000000000000000000000000000000009D
:10184B0000000000000000005C26070800000000FC
:10185B00000000009D63020850C30000010000005F
:10186B00000000000000000000000000000000006D
:10187B00000000000000000000000000000000005D
:10188B000000000000000000A02707080000000077
:10189B0000000000CD300108400D030000000000E7
:1018AB00000000000000000000000000000000002D
:1018BB00000000000000000000000000000000001D
:1018CB000000000000000000A8270708000000002F
:1018DB0000000000CDFF0308400D030000000000D6
:1018EB0000000000000000000000000000000000ED
:1018FB0000000000000000000000000000000000DD
:10190B000000000000000000B027070800000000E6
:10191B00000000000546020850C300000300000051
:10192B0000000000000000000000000000000000AC
:10193B00000000000000000000000000000000009C
:10194B000000000000000000BC270708000000009A
:10195B000000000045E1030840420F0000000000BA
:10196B00000000000000000000000000000000006C
:10197B00000000000000000000000000000000005C
:10198B000000000000000000C8270708000000004E
:10199B00000000000D01040850C30000000000000F
:1019AB00000000000000000000000000000000002C
:1019BB00000000000000000000000000000000001C
:1019CB00000000000000000001FF0100E00100002A
:1019DB00FFFFFFFF010000002DF9010800000000D0
:1019EB0000000000E49B06080800000042570200BC
:1019FB000000010642570200000001060000000033
:101A0B00000000000000000094B506080000000074
:101A1B0000000000000000004CB6060800000000AB
:101A2B000000000000000000F8B5060800000000F0
:101A3B0000000000B12A02088DAF01200101000057
:101A4B00C95202085154020800000000C8B706082A
:101A5B001552020800000000000000002CB7060819
:101A6B00315602080000000000000000E4B6060832
:101A7B002D202D2D202D2D2D2D202D2D2D00000039
:101A8B00000000000000000000000000000000004B
:101A9B00FFFFFFFF693D020800000000000000008F
:101AAB0024B5060801000000FA0000000100000048
:101ABB0001000000B0AB01200000F40101000000A8
:101ACB00AEAB01200000F40101000000ACAB012023
:101ADB000000F40101000000AAAB01200000F4019A
:101AEB0001000000A8AB01200000F4010100000080
:101AFB00A6AB01200000F40101000000A4AB012003
:101B0B000000F40101000000890102084D010208E8
:101B1B000000000098A1060894AB012005320100DB
:101B2B00A2AB01206400F40101000000A0AB012076
:101B3B006400C4090100000092AB0120E803D00748
:101B4B000100000090AB0120E803D007010000006A
:101B5B008EAB0120E803D007010000008CAB012005
:101B6B001E00B80B010000009AAB012005000F000E
:101B7B00010000009CAB012003000A0001000000E3
:101B8B008AAB01201E00F401010000009EAB012076
:101B9B000200000024A2060888AB01201400640098
:101BAB000100000096AB01203200E80301000000A9
:101BBB0086AB01200000C8000100000091AA0120A3
:101BCB0000C8010090AA0120005001008FAA01203B
:101BDB00005A01008DAA01200200000030A2060865
:101BEB00442907084C2907089A5901200100C40908
:101BFB0000000000985901200100C40900000000FA
:101C0B00965901200100C4090000000094590120DD
:101C1B000100C40900000000905901200100C40913
:101C2B0000000000925901200100C40900000000CF
:101C3B008E5901200100C409000000008C590120BD
:101C4B000100C4090000000037A8012000C80100F2
:101C5B0036A8012000C8010034A801200000FFFFB6
:101C6B000A00000032A801200100C800010000009A
:101C7B0030A8012032003075320000002EA8012060
:101C8B007EFF1400050000002CA8012005002C018C
:101C9B00050000002BA80120055A050028A80120EB
:101CAB0000FF01002AA8012002000000C00F012044
:101CBB0026A8012003000000BC96060827A80120D7
:101CCB0000FF010029A8012002000000C00F012025
:101CDB0025A8012003000000BC960608DD000208C1
:101CEB006D000208000000003CA20608C8AB0120F2
:101CFB00EE02CA0801000000C6AB012000C80100BB
:101D0B0064000000C5AB012000C8010064000000A6
:101D1B00C4AB01200200000048A3060812A8012052
:101D2B000000803E0500000010A8012080C1803E0D
:101D3B00050000000AA801200083007D05000000BB
:101D4B0008A8012080C1803E0500000003A80120E7
:101D5B0000FF0100FCA701206400F401010000005A
:101D6B00FAA701200400000054A30608F9A70120DC
:101D7B000200000068A30608BFA801200D000000A8
:101D8B0074A30608BCA8012000640100BAA80120B6
:101D9B00320010270A000000B8A801200D00000037
:101DAB0074A30608B7A801200D00000074A3060851
:101DBB00B6A8012002000000ACA30608000000003A
:101DCB000000000000000000B8A30608CEAB012005
:101DDB003E000000F0A30608CCAB01200100FF7F02
:101DEB0001000000CBAB012002000000ECA40608B0
:101DFB00C1A8012003000000FCA40608C0A8012014
:101E0B0003000000FCA406087EAA0120000A0100C2
:101E1B007CAA01200000E803010000007AAA01203F
:101E2B000000E8030100000078AA01200000E8038D
:101E3B000100000076AA01200000E8030100000069
:101E4B006EAA01200000E8030100000074AA012023
:101E5B000000E8030100000072AA01200000E80363
:101E6B000100000070AA0120001401008CAA0120BF
:101E7B00020000000CA506088AAA01200000F4014C
:101E8B000100000088AA01200000F40101000000FD
:101E9B0086AA01200000F4010100000084AA0120A1
:101EAB000000F4010100000082AA01200000A00F35
:101EBB000100000080AA01200000A00F010000001B
:101ECB0073AB01201964010072AB0120020000000A
:101EDB0018A5060870AB0120E803D0070A00000024
:101EEB006EAB0120006401000A00000063AB01200F
:101EFB000064010062AB0120006401006AAB0120A9
:101F0B00006401000A00000069AB012000640100BD
:101F1B000A00000068AB0120006401000A00000009
:101F2B006DAB012000FF01000A0000006CAB01202B
:101F3B0000FF01000A0000006BAB012000FF010055
:101F4B000A00000067AB012001FF01000A0000003E
:101F5B0066AB012001FF01000A00000065AB012008
:101F6B0001FF01000A000000CAA801200000F401D3
:101F7B0001000000C8A801200000A00F0100000014
:101F8B00C6A801200000A00F01000000C4A801207A
:101F9B000000A00F01000000C2A801200000A00F4C
:101FAB0001000000D5AF012000C80100D4AF012013
:101FBB0000640100D3AF012000640100D2AF012007
:101FCB0000640100D1AF012000640100D0AF0120FB
:101FDB00FF080100CFAF012001640100D5FF01080C
:101FEB0099FF01080000000024A50608D8AF0120C6
:101FFB0001320100D7AF01200100000094A50608B3
:10200B00D6AF0120040000009CA50608CEAF01202E
:10201B0000640100CCAF01201400E80301000000B4
:10202B00CAAF0120E80330750A000000C9AF0120D8
:10203B0000C80100C8AF012000C80100C7AF0120D4
:10204B0000C80100C6AF012000320100DAAF012049
:10205B00004B0100D9AF012004000000B0A5060819
:10206B00C5AF0120006401000A000000E8AF0120A9
:10207B000000D00701000000E3AF012000C8010001
:10208B00E2AF012000C80100E1AF012000C8010050
:10209B00E6AF01200000D00701000000E0AF0120F7
:1020AB0000C80100DFAF012000C80100DEAF012036
:1020BB0000C80100E4AF01200000D00701000000C0
:1020CB00DDAF012000C80100DCAF012000C801001A
:1020DB00DBAF012000C801008DFD010875FD010873
:1020EB0000000000C4A50608B3A80120005A010097
:1020FB00B2A8012000C80100B0A80120E803D00756
:10210B00010000000000000000000000F12A02089E
:10211B0060A6060853544D33324637583200000040
:10212B0024A801200003010023A8012000030100C3
:10213B00B1FC010865FC010800000000B4A606080C
:10214B0025FC0108DDFB01080000000050A7060874
:10215B00FDFC01084D3D020800000000D0A7060859
:10216B0014A80120010301006502020839020208CC
:10217B000000000034AB060861FB010815FB0108E9
:10218B0000000000A4AB06089DFD0108DD820208DB
:10219B000000000040AC0608E5410208910202086D
:1021AB0000000000E8AC0608EDFD0108000000008F
:1021BB000000000074AD0608C9FE010871FE01089D
:1021CB0000000000D8AD06085DFF010821FF0108E3
:1021DB000000000080AE0608F97F0208110002081B
:1021EB00000000000CAF060885AB012001060100C2
:1021FB0035FE010801FE01080000000008B00608CA
:10220B002B7F0208ED3E02080000000078B00608A4
:10221B0045800208B53F020800000000C8B106085F
:10222B0084AB01200103010045FD010815FD0108E8
:10223B00000000009CB20608A1800208000000000C
:10224B000000000000B30608ADFB0108353D020895
:10225B000000000080B30608000000000000000032
:10226B00000000000CB40608450002082D400208CF
:10227B00000000007CB40608000000000000000015
:10228B000000000094B60608409601209CFF2C012C
:10229B00000000004CB20120E0150C1700000000FC
:1022AB0021AF012002000000CCB60608F5A70120E3
:1022BB0002000000D8B60608F0A7012088136F179C
:1022CB0001000000F2A7012088136F170000000027
:1022DB00DE5901200000000000000000DC59012045
:1022EB000000000000000000DA590120000000008F
:1022FB0000000000D8590120000000000000000081
:10230B00D65901200000000000000000D459012024
:10231B000000000000000000BC05012000000000D0
:10232B00000000007AA70120030000002CB806086B
:10233B00E8A7012088136F17010000008A9601207F
:10234B0088136F1700000000F5F90108000000006A
:10235B00000000003CB8060822AF0120010000007D
:10236B0090B806088C960120010000009CB8060866
:10237B008296012002000000A4B8060800000000AD
:10238B000000000000000000B0B80608DDF90108ED
:10239B0000000000000000004CB90608000000001F
:1023AB000000000000000000A0B9060800000000BB
:1023BB00000000000000000010BA0608F4A701207E
:1023CB000200000048BA060886960120E0150C179B
:1023DB000000000008BC01205CBC0120D6010101FB
:1023EB000001010100FF0100FFFFFFFF0000803F24
:1023FB0000000000000000000000000000000000D2
:10240B0000000000000000000000000000000000C1
:10241B00000000000000803F0000000000000000F2
:10242B00000000000000803F0000000000000000E2
:10243B00000000000000803F0000000000000000D2
:10244B0000000000010000000000FA430000FA4306
:10245B00FFFFFFFFFF0000000000803FB94C0408A6
:10246B000000000000000000000000000000000061
:10247B00F4DA01200800000000000000E4DA01207B
:10248B000800000001000000A00F0000B80B0000C6
:10249B0002FFFF01685E0C00918A0008758A000834
:1024AB00318A000800000000258A0008118A000804
:1024BB00FD89000800000000000000000000000083
:1024CB0000000000ED89000800000000DD89000815
:1024DB00C58F0008858B00084D8B0008618B0008A9
:1024EB00058B0008F18A0008DD8A00086597000853
:1024FB00D989000855890008E9F70008FFFFFFFF9D
:10250B0002000000704D07080000080205030400DC
:10251B0000000000784D07080100080205040400C4
:10252B0000000000044C07080200FE01011003002C
:10253B0000000000AC2C070803001402000300008D
:10254B0000000000804D070804001F020200080075
:10255B0000000000884D070805001F02020108005B
:10256B0000000000FFFF0000FFFFFFFF0B0100005A
:10257B00992B0108F92A0108FD5B010800000000F6
:10258B0000000000D1590108095A010800000000A1
:10259B000000000000000000BD200108AD20010874
:1025AB009D2001088D200108AD7F0508817F05085E
:1025BB00257F05084D6F0508417F0508E57E050859
:1025CB003D6F05086C1A0120A97E0508C97E050818
:1025DB00997E0508756F0508557E05080D7E050863
:1025EB00716F0508481A0120E5770508556F050836
:1025FB00516F0508496F050829790508456F0508CE
:10260B00416F05082C120708FFFFFFFF01000000B8
:10261B0050C30000010100001F0000001C0000005F
:10262B001F0000001E0000001F0000001E00000025
:10263B001F0000001F0000001E0000001F00000014
:10264B001E0000001F0000000068214C0125000047
:10265B00540E0708FF010000F4010000FF0000000A
:10266B00CC1B0708901A0120008002021F000000FB
:10267B0053544D202020202050726F6475742020FD
:10268B002020202020202020302E303100800202FC
:10269B001F00000053544D202020202050726F64E7
:1026AB00757420202020202020202020302E303137
:1026BB0017280108132801080B280108F325010826
:1026CB00A130010835300108912F010801280108BC
:1026DB00F1270108E1270108D1270108EB250108A3
:1026EB0000000000040100000007000000000000D3
:1026FB0000000000000200001000000000000000BD
:10270B000000000007000000B00100000200000004
:10271B000900000001000000FC1A0120000000006D
:10272B00000000000000000000000000000000009E
:10273B00000000000000000000000000000000008E
:10274B00000000000000000000000000000000007E
:10275B00000000000000000000000000000000006E
:10276B00000000000000000000000000000000005E
:0C277B0000000000000000000000000052
:102787000100000001000000B0220020000000004E
:04279700200000001E
:08280000082800080040000850
:10800000026C03463AB11A6CD20608D50022012050
:1080100083F83C207047426480F83C20F3E71A6CF8
:1080200049494A4811401A6841F00201F0B4196404
:108030004168474D21F44031416041685C6821430B
:1080400041605168186921F48071D3F808C0DF6875
:10805000516054689E6A44EA0024AE4254605468F9
:1080600024F040745460506840EA0C0050609068FE
:1080700020F400609060916841EA0701916054D05B
:108080009068DC6A20F07060906091680E439660A2
:10809000906820F040509060916821439160906812
:1080A0009C6920F002009060916841EA440191606F
:1080B00093F82010002941D05468596A44F40064B0
:1080C000481E5460516821F460415160516841EA92
:1080D00040315160D06A0025DC6920F470005E698F
:1080E000611ED0622846D46A44EA0154D46294687E
:1080F00024F400749460946893F8301044EA4124A6
:108100009460946824F480649460916841EA8621C4
:1081100091605D641A6C22F0030242F001021A645D
:10812000002283F83C20F0BC7047916821F0706118
:108130009160916821F040519160B0E7516821F45D
:1081400000615160C6E700BFFDEEFFFF0023014064
:108150000100000F0129F0B42A4C4FF000062A4D0F
:1081600094BF002701272368EE626662A6626763F8
:10817000676B47EA42076763EE63EC6B002A38D10E
:1081800044F49574EC631C6824F001041C601C68C2
:10819000E407FCD4490289085960D8601968EAB933
:1081A00021F04001196019498B421DD018494FF444
:1081B0007410C860196841F01E011960596941F0D6
:1081C00080015961196841F00101196022B90E4A14
:1081D000D36A43F00803D362F0BC704741F040011A
:1081E00019600A498B42E1D14FF0746041F8500C9C
:1081F000E0E744F01A04EC63EC6A44F00804EC6233
:10820000C1E700BF601B0120002C01405864024000
:10821000006402402DE9F04F022389468A462DED85
:10822000108B99B0DFEDCABA14930346169004334D
:10823000159217934FEADA06169DDDF85CC04FEAF7
:10824000CA0305EB46111396F0004FF0000B01EB4B
:10825000061437010390A6EB86020194049706EBFF
:10826000460E04EBC202041D381D06EB86072C44A3
:10827000C6EBC60802972844029D02EB46174FEA58
:10828000C808ED0001EBC60602954FEA0E150595EC
:108290004FEACE050695139D4FEA451E019D95EDCB
:1082A000007AD34492ED005AD7ED004AD945D1ED7A
:1082B000006A50ED013A35EE241AD6ED002A1CED85
:1082C000016A73EE875A54ED017A33EEC73A36EEFF
:1082D000264A77EEA21A36EE666A77EEE27A74EEF6
:1082E000256A71EE812A77EE633A37EEC57A36EE6B
:1082F000A22A77EEE47A76EEE26A0CED012A37EEF6
:10830000247A77EE857AD1ED018AC1ED006A74EEA8
:10831000655A96ED015AB0EE460A94ED004AA7EE72
:108320002B6AD2ED010AE7EEAB3A74EE456AD7ED5F
:10833000012AA7EE6B0A9CED007AD5ED014A34EED6
:10834000054A37EE689A90ED005A36EEE02A76EE4E
:10835000E26A30EEA28A32EE222A76EEA06AF0EECF
:10836000492A75EE640A37EE287A75EE249AE2EE11
:108370006B2A74EEC54AF0EE608AB0EE40AAE6EED3
:10838000AB4AE6EEAB8AA6EEEBAAF0EE496AB0EE97
:10839000629A37EE695AE2EE2B6AB0EE432A74EE27
:1083A00008AAA7EEEB9AA7EEAB2A77EE297A35EE6C
:1083B000617A75EEC89A35EE415A75EEC45A37EEB9
:1083C000AABA77EEEA7A37EE011A8CED00BA36EEE9
:1083D000287AC1ED017A39EE844A76EEC27A1944E0
:1083E00075EE885A9C4435EE215A00ED014A70EE34
:1083F0008A0A70EE244AC5ED005A36EE686A80EDAE
:10840000001A72EEA33A85ED015A33EE093A04EDF3
:10841000017A72EE266A87ED006A1D44C6ED000AF5
:108420001844C2ED004AC4ED007A1C44C7ED016A4D
:108430001F44C6ED013A1E4482ED013A1A443FF64C
:108440002EAF139A072A40F2C681039A0EF1080E46
:10845000169F08F108000832029E059D4FF00008A3
:1084600094463A46083608357244069C0499D34629
:10847000109207EB0C0208340C310F92BA190E92CD
:108480007A190D923A190C923A180B927A180992AD
:1084900007F10C020A9201220892149ADDF824C016
:1084A0009044159A0A9F02EBC8020B9EA8EB880E17
:1084B0000C9D02EBC80192ED00BA0D9C01EBC802C5
:1084C000D1ED00AA0E9802EBC80192ED00AA01EBD3
:1084D000C802D1ED009A02EBC80192ED009A01EBBF
:1084E000C802D1ED008A0F9902EB0E1E92ED008AB0
:1084F000109A0EEBC80ADEED017A1192CDED047AE6
:108500000AEBC802DAED017A02EBC80A1291CDED4E
:10851000057AD2ED017A0AEBC802DDF820E0CDED54
:10852000017ADAED017A02EBC80ACDED067AD2EDD6
:10853000017A0AEBC802CDED027ADAED017ACDEDCF
:10854000077AD2ED017ADDE91121CDED037A01E060
:10855000F304353F17ED017ADE44D2ED007A94ED55
:10856000005AF145D5ED006A37EE274AD0ED004AB2
:1085700077EE677A1CED016A96ED007A91ED001AAC
:1085800076EE055A36EE872A97ED00DA71EE24EA88
:1085900076EE453A74EE252A31EE641A35EE466AD7
:1085A0003EEE825A74EE655A31EE664A72EE854AA4
:1085B00031EE471AB0EE67CA47ED014A34EE077A4A
:1085C000D1ED014A31EE261AD0ED016A72EEC52ACC
:1085D00095ED014AA7EE6BCA74EEE60A96ED010A24
:1085E000E7EE2B7A92ED017A94ED015A74EEA64AE9
:1085F0003DEE473ADCED006A70EEC4CA70EEC00A88
:10860000B0EE43EA7CEE80CA74EE001A70EE840A83
:10861000ACEEEBEA36EEC54A3DEE077AB0EE63DA31
:1086200036EE850AACEEAB3AF0EE4EDAA1EE2BDA7E
:10863000A1EE2B6AE1EE6BDA75EE666AB0EE441AD3
:10864000F0EE4CCA37EE405AA0EEAB1AE0EEEBCAA1
:10865000E0EEAB6A37EE007A74EEA10A35EEE1FA8D
:1086600075EEE45A75EE6EFA37EE600A71EEA55AB1
:10867000DDED061A35EE425A7FEE244A3FEE822A9D
:1086800022EEE1FA61EE80FADDED051A3EEE855A42
:108690003EEE066A73EEAD3A21EE82EA73EE4DDAF3
:1086A0003DEE033A24EEE1DADDED071A34EE2C4A12
:1086B0007CEE266A61EE85CA25EEE1CADDED041A7C
:1086C00077EE81EA77EEC17AE9EEA2FADDED032AD0
:1086D000A9EE80FA9DED030AAAEEA4EADDED014AB7
:1086E000AAEE82DA9DED012AE8EEA5CADDED025A76
:1086F000A8EE85CA9DED025A21EEAD1A62EE832ADC
:108700006EEEE11A27EEC00A64EEA34A26EEC22AF4
:1087100065EE865A24EE455AABEE2E1AEBEE2D1A74
:10872000E8EE272AA8EE030AEAEE264AAAEE232A52
:10873000E9EE045AA9EE065A37EE207A87ED007A60
:108740001F44C2ED00FA82ED01FA1A440CED01EA71
:108750008CED00DA9C44C4ED00CA84ED01CA1C44CF
:1087600081ED001AC1ED011A1944C6ED002A86ED0B
:10877000010A1E44C0ED005A80ED015A1844C5EDAF
:10878000004A85ED012A1D443FF6E4AE1099089A8F
:108790000831013210910F99089208310F910E990A
:1087A00008310E910D9908310D910C9908310C91F9
:1087B0000B9908310B910A9908310A9109990831EE
:1087C0000991139991427FF468AE149B8A46DB00AD
:1087D0009BB214932EE519B0BDEC108BBDE8F08F61
:1087E00011480023024611780632032916D00133BE
:1087F000062BF8D10D49CA6D052A0ED002EB4203B3
:10880000013200EB4303CA65032040F2EB3140F232
:10881000FF32187059809A807047704703EB43030A
:1088200000EB4303F0E700BF981B0120601B012011
:10883000124B30B41D6E6B6A28B943EA0143002025
:10884000AB6230BC7047AC6A013803EB14440BD008
:10885000002303F14002013305EB8202DBB25268D0
:10886000834204EB1244F4D3403044EA014405EB64
:1088700080004460002030BC704700BF601B0120B6
:10888000037870B42BB30246C0F10105531912F8F6
:10889000014FDBB2002CF9D101335B000E4C0322F7
:1088A0000B8084F8643484F86524017879B102235C
:1088B00000265A1CE518023354FA82F285F8641433
:1088C000DBB282F8646410F8011F0029F1D170BC9A
:1088D00070470223E2E700BF601B012030B5EFF3D1
:1088E0001181802383F312880A4AD2F86435D2F8C2
:1088F0006845D2F86405D2F86855CAB282F3118887
:10890000013BA84294BF4FF4006000201B1B184499
:1089100030BD00BF601B0120012380F8513070473B
:10892000014BD3F86C057047601B01200120704794
:10893000024BC3F87025C3F874157047601B012003
:10894000024BC3F87825C3F87C157047601B0120E3
:1089500070477047212870B505D0222829D02028DB
:1089600010D0002070BD0029FBD0072AF9D1184B88
:1089700018791C685A799B79087100200C604A713B
:108980008B7170BD0029ECD0072AEAD11148104B39
:108990000C680E794D79D0F8742589791C601E71A8
:1089A0005D719971002ADCD02146D0F8700590479E
:1089B000D7E70029D5D0022AD3D1064AD2F87C3590
:1089C000002BCED00988D2F878059847C9E700BFB8
:1089D00000000120601B01200020704703460A228E
:1089E00001481A80704700BF080001200346642236
:1089F00001481A80704700BF14000120012901D0EE
:108A000000207047014BD3F8903018470000012038
:108A1000012901D009F062BB014BD3F88C30184713
:108A200000000120014BD3F88830184700000120D6
:108A300010B40B780A46044603F00303012B05D05B
:108A4000022B0BD000205DF8044B70478B8843B994
:108A5000204611465DF8044B0DF09EB98B88832BA0
:108A6000F6D0034B5DF8044BD3F88030184700BFB5
:108A70000000012038B5054B04460D46DB6F9847D2
:108A8000294620460AF050F8002038BD0000012099
:108A900038B5054B04460D469B6F9847294620463E
:108AA0000AF0BEF8002038BD00000120F0B4002418
:108AB00052004E1C2746030FB0F1204F4FEA001022
:108AC00003F1300503F1370334BF0D550B5537550E
:108AD0000234A242EFD1F0BC704700BF024808B593
:108AE000FFF7CEFE014808BD401F0708C41F012044
:108AF000024808B5FFF7C4FE014808BD501F07082B
:108B0000C41F01200B481A220B4B00681B680A8007
:108B1000C01801D109487047094B0822094910B50E
:108B20001C68FFF7C3FF042207492046FFF7BEFF7A
:108B3000024810BD107AF01F187AF01FB000012013
:108B4000147AF01FB2000120C2000120024808B5CB
:108B5000FFF796FE014808BD5C1F0708C41F0120EF
:108B600008B520B90448FFF78BFE044808BD044847
:108B7000FFF786FE014808BD681F0708C41F0120D3
:108B80008C1F0708042301480B807047CC0001208C
:108B90000048704708210120004870470821012043
:108BA000034B93F8A405032894BF002001207047CD
:108BB000601B0120034B93F8A405032894BF0020F9
:108BC00001207047601B0120034B93F8A405003877
:108BD00018BF0120704700BF601B012098B1826858
:108BE0000C4B12B107229A70704718780421DA6092
:108BF00003281A611A750CBF80224FF48072997095
:108C0000C3E901227047034B012241F2E4715A701B
:108C10005A547047E07C01200378022B0FD0006982
:108C200008B9012070470E4B1B78032B12D080B27D
:108C30004FF6F773984294BF00200120704708490F
:108C400041F6500243688A58B3EB422F2CBF0120F3
:108C500000207047034B984294BF002001207047CA
:108C6000E07C0120F7FFFF0F30B40378022B13D014
:108C7000104A41F64801436841F63C04555802F554
:108C8000C25100692B400968023812595B0A01FB86
:108C9000003030BC10447047064B41F6300441F6BA
:108CA000340142681859595800EB410030BC00EBC0
:108CB00052207047E07C012038B540F48062074CB8
:108CC0000B4640F2FF55012100F03F00A563A36071
:108CD000E26056F03FFAA56338BD00BF002C0140AA
:108CE0002DE9F84F574B984211D003F568530833DC
:108CF000984269D00023544A1846A2F84C36A2F88C
:108D00005836C2F85036C2F85436BDE8F88F4E4C8B
:108D10004FF0000B02224D4E04F5BF65D9464FF4CB
:108D2000007A4FF48078C4F8F425D6F8D0200127D3
:108D300059465A45BB4403D0D4F8680651F0CEFFDB
:108D40004FF4803394F86C164FF00072D4F8680634
:108D500085F82410B721A5F804A0A5F8108085F89F
:108D60001290A5F806802F762862C5E9023252F0EB
:108D7000B1F9D4F8F425364B93456F7645F8283B86
:108D8000D3DB84F85A96D4F8F4350120D4F80416CD
:108D9000B4F8FC25D4F8005612FB03F201FB03F3F0
:108DA000B4F80866A4F84C26C4F85436B4F8FE2586
:108DB000284BC4F87016C4F85056A4F85866A4F8A6
:108DC0004E26C4F84836A0E71F4C02224FF0000B95
:108DD0001E4E04F5BF654FF4806A4FF040094FF412
:108DE0000068C4F8F425D6F8D020012759465A4522
:108DF000BB4403D0D4F8680651F070FF4FF0006216
:108E0000D4F868164FF4003094F86CC6296285F8DF
:108E100024C0A5F804A0A5F81090A5F80680AF74AA
:108E2000C5E90202FFF7DCFC28466F7652F0A0F895
:108E3000D4F8F425084B934545F8283BD3DB84F858
:108E40005A76A0E71971EF00601B01200000012095
:108E500058890608B0890608848906082DE9F84370
:108E6000884600294FD04718461E284C802507F118
:108E7000FF39EFF3118185F31288D4F86425C9B264
:108E8000D4F86805D4F86435D4F868C581F311883E
:108E9000634594BF4FF400630023121A1344012B5F
:108EA0001AD1012042F04AF8EFF3118185F31288BC
:108EB000D4F86425C9B2D4F86805D4F86435D4F878
:108EC000687581F31188BB4294BF4FF4006300239F
:108ED000121A1344012BE4D0EFF3118285F31288A8
:108EE000D4F86835D2B216F8011F234483F87416FB
:108EF000D4F868350133C3F30A03C4F8683582F344
:108F000011884E45B5D14046BDE8F883601B01206D
:108F1000F8B5002390F8505080F85030CDB10F498B
:108F200041F2E8028A5C032A15D10D4E00F13C049F
:108F3000B76A29462046FFF791FFB36A2D1A044409
:108F4000DB1B322B01D8002DF3D1B5FA85F0400997
:108F5000F8BD0120FCE71846FAE700BF601B0120BE
:108F6000582C0120002280F85120D1E790F85020A1
:108F7000531C0244DBB280F8503082F83C1090F869
:108F800051200AB1132B00D9C2E77047F8B5144637
:108F900041F2E803094A0D46D35C032B0DD1084E7C
:108FA000B76A002C09DD21462846FFF757FFB36A50
:108FB000241A0544DB1B322BF3D9F8BD601B0120BA
:108FC000582C012010B503200C4658F047FE03280A
:108FD0000AD0074B93F82C30012B4FF012030CBF33
:108FE00004480548238010BD12230448238010BD87
:108FF000582C0120FC000120E8000120D4000120B1
:109000002DE9F04FDFF82C83BD4D4446DFF838934F
:109010002DED068B89B0CDE9060105920FCD0FC469
:109020000FCD0FC495E8070099F8323084E80700A7
:10903000042B00F21081DFE813F03C010E0109015E
:1090400005004A019FEDAF8A9FEDAF9AAF4AB04B42
:109050000598B049002818BF1346AF4AC8E9062151
:1090600039EE087ADFEDAD7AF5EE006AAC4A28EE0B
:10907000278AAC4EB0EE67AA02F11507C6EE879AB2
:109080000025DFEDA98A0292C8F82430079BAB4285
:1090900000F0D680029B05F1010B13F8014B5FFA3B
:1090A0008BF20293002C00F02081002103E00131BB
:1090B000152900F01A8101EB41004B0017F800C0A0
:1090C000A445F4D1484490F84D10CDE9033200296D
:1090D00000F01381204641F0CFF98246006857F036
:1090E000C5FA9AF8051041F0DFFA0078002840F040
:1090F000FC804FEA141C039B04F00F0E049A0CF141
:10910000FF3409EB03010323052C81F88D2081F83E
:109110008C3000F2C980854901EB4400B0F8B00002
:1091200040FA0EFC1CF0010C00F0C0804FF0010C66
:1091300003920CFA0EFC0CF1FF3C0CEA00005BF011
:1091400023FE7A49039A032301EB040C784C022195
:109150009CF8BCC0604404EBC00070618371C271B4
:109160009AF8082043F08EF9059B002B78D0B9F8C7
:10917000303099F8321007EE903AD9F8B833042914
:10918000F8EEE77AFCEEE77A17EE900AB3FBF0F21E
:1091900002F57F4202F1FF024FEA1242B3FBF2F204
:1091A000B2FBF0F083B270D007EE902AF8EE676A57
:1091B00066EE887A28EEE77A99F8330006990190EE
:1091C0003046A9EE267A00915146C6ED027A86ED28
:1091D000037A34F0DBFB002D62DD7368D8F83820A9
:1091E00093425FD0012D5BD0D8F85020934259D0E4
:1091F000022D55D0D8F86820934253D0032D4FD07C
:10920000D8F8802093424DD0042D49D0D8F898202A
:10921000934247D0052D43D0D8F8B020934241D097
:10922000062D3DD0D8F8C820D31A18BF01235D46BB
:10923000012233741836082D06F8072C7FF426AF68
:109240003C4809B0BDEC068BBDE8F08F9FED3A8A33
:10925000B0EE489AFAE69FED398AB0EE489AF5E604
:10926000FAFE697AFCEEE77AD9F8B8134FF6FF7385
:1092700017EE902A1846B1FBF2F21A44120CB1FB19
:10928000F2F299F8321004298ED107EE900A07EE17
:10929000102AF8EE677AF8EE476A67EE8A7A89E76D
:1092A0000123C4E70023C2E770615DE7C6F814C07C
:1092B0005AE70023174A01219FED188A0693164B9F
:1092C000B0EE489A0591C8E90632104BC8E6002373
:1092D000104A01219FED1A8A06930F4BB0EE489A6F
:1092E0000591C8E90632094BBAE6164A0020074B39
:1092F000C8F81C20C8F82430A3E70B68FFDE00BFC5
:10930000DC890608ACC5A737ACC5A736318604088A
:10931000BDBC030815C203083D8604086F12833ADA
:109320008F2C01204800002000007A44588906084C
:10933000102D012014000020282930386F12033925
:1093400000000000A9BF0308582C012010B50D4CE7
:10935000002394F8F125C4F8A03512B10A4AC2F8E6
:10936000BC3356F001F920B10423022084F8A4355F
:1093700010BD054A0923926A84F8A435C4F89425DF
:1093800010BD00BF601B0120582C012070B50F4D8F
:1093900004460E4695F8A435042B0BD0082B07D1B4
:1093A000D5F89C3583420ED0FFF7D0FF022801D0BC
:1093B000012070BD08230220C5F8A065C5F89C45B2
:1093C00085F8A43570BD022070BD00BF601B012070
:1093D00070B54379234C002B14BF0123002384F87C
:1093E000D03503D1002384F8A43570BD1E4D002173
:1093F000032095F9C32342F00DFF0028F2D0466800
:10940000304657F0F7FE84F8F0050028EAD095F8CA
:10941000C1333046003B18BF012384F8F13557F0C3
:109420000FFF09F0C9FF38B994F8983584F8A405FE
:10943000013384F8983570BD56F06EF940B194F858
:1094400098350022013384F8A42584F8983570BD3E
:10945000AA6A012384F89805C4F8942584F8A435F1
:1094600070BD00BF601B0120582C012010B556F0C4
:1094700053F958B10C4C94F898350133DBB2072BF3
:1094800084F8983503D9002384F8A43510BD09F079
:1094900093FF0028F7D0054B01229B6A84F8A4258E
:1094A000C4F8943510BD00BF601B0120582C01206A
:1094B0002DE9F84F904C94F8D055002D00F0028122
:1094C00094F8A42502278D4E531E082B3ED8DFE8C2
:1094D00003F03436A73D6649153D050056F044F8C3
:1094E000002840F00181D4F89435B26AFA339342EF
:1094F00029D2FFF7BBFF94F8A425E5E756F034F82E
:109500000028F0D0D4F8A0350022012B84F898254B
:1095100040F2EE80D4F89C15013B94F8F1550131EE
:10952000C4F8A035C4F89C1515B1744BC3F8BC231E
:109530000823054684F8A43511E084F8A47556F094
:1095400013F800284DD194F8A425531EDBB2022B4A
:109550003CD9082A18BF042A0CBF0125002528463B
:10956000BDE8F88F236B002B37D1644B0722D4F86A
:109570008C559B6A84F8A425C4F89435002DEED050
:10958000D4F890350120D4F88025D4F88415A84764
:10959000D9E7D4F89435B26A643393421DD2D4F833
:1095A0002C80B8F1000FF4D155F0DEFF0028A2D0D6
:1095B0000423D4F88C5584F8988584F8A435002DBC
:1095C00000F090804046D4F89035DCE74B4BD4F85F
:1095D00094259B6A9B1AC82B79D800252846BDE89C
:1095E000F88F55F055FC0028ADD196F8C533002B07
:1095F000A3F10203B3FA83F314BF022201225B0931
:1096000084F8992584F89A3555F042FC00287FF4B7
:1096100070AFD6F810240323C4F8A82584F8A43525
:1096200055F036FC00288ED1344A4FF0040EC4F8B1
:10963000A005032392F8F4B3B2F8F613D2F8F803B6
:1096400084F8AEB5D2F8F8734FEA106CD2F8F8632C
:10965000A4F8AC153F0CD2F8F8A3360A92F8FC93A4
:1096600092F8FD5392F8FD03D2F8008425FA0EF526
:10967000B2F806B400F00F00B2F80614B2F80624EF
:10968000C1F30B1184F8AFC502F00F0C84F8B0756C
:1096900041EA1B21724684F8B16501F00F0184F89C
:1096A000B2A584F8B39501F5FA6184F8B85584F849
:1096B000B905C4F8B485A4F8BA1584F8BCC584F813
:1096C000A4E543E7284684F8A455BDE8F88FFFF7E2
:1096D000CDFE94F8A455082D18BF042D0CBF01250C
:1096E00000253CE705463AE7042384F8A43536E72D
:1096F000FAD1FFF72BFE26E7601B0120582C012032
:10970000154BDB68C3F3022310B4C3F107041A1D21
:10971000042C28BF0424062A4FF0FF328CBF033BE1
:109720000023A240002821EA020101FA03F108DB2C
:1097300009010A4BC9B2034483F800135DF8044BD6
:10974000704700F00F000901054BC9B203441976B8
:109750005DF8044B704700BF00ED00E000E100E061
:10976000FCEC00E030B5284C0022284841F287315B
:10977000D4F8B83383B0264DA0FB030304F584600E
:10978000C4F82C14DB0CC4F83024C4F82824013BA2
:10979000C4F82054C4F824340AF0FEFF1D4B0621FF
:1097A00037201A6C42F020021A641B6C03F020036D
:1097B0000193019BFFF7A4FFD4F820344FF400007D
:1097C0001549164A4860D96841F00101D960996885
:1097D0000A40062A06D0B2F5803F03D01A6842F04C
:1097E00001021A600E4B41F2041200200D499A58F2
:1097F00003F27464C3F87C05C2F81002C3F8740560
:10980000C2E9811403B030BD582C012083DE1B4314
:10981000001400400038024000E100E007000100B1
:10982000601B0120B830012038B50F4B0F4AD3F828
:10983000B833A2FB03239B09013BB3F1807F10D215
:109840000B4A0024F0200B490725536081F82300C0
:10985000214694604FF0FF301560FFF751FF20461E
:1098600038BD012038BD00BF582C0120D34D6210F7
:1098700010E000E000ED00E02DE9F84FB34C0546A4
:1098800094F8601CD4F8680CC1F3400143F03AF836
:1098900094F8601CD4F8640CC94301F0010143F052
:1098A00031F8002D00F0C3806E1EA94F4FF0100854
:1098B000A84D5FFA86FBD4F8680C43F007F8D4F89B
:1098C000640C43F003F8B4F8703C002B40F0358191
:1098D00094F8721CD4F8740C43F014F84FF0FA09A1
:1098E0004FF47A704FF0010C7B68C3F30803002B30
:1098F00040F0FB80EFF31183002B40F0F680A26A6A
:10990000A968A36A9A42FAD1D4F8983C9942F6D849
:10991000D4F8946C00FB06F35B1AB3FBF6F300FB80
:1099200002327B68C3F30803002B40F09F80EFF303
:109930001183002B40F09A80A36AD5F808A0A16A91
:109940008B42F9D1D4F8981C8A45F5D8D4F8946C98
:1099500000FB06F1A1EB0A01B1FBF6F100FB0313DA
:109960009B1AB3F57A7FDCD3B9F10109BCD1D4F8E5
:10997000680C42F0ABFFD4F8640C42F0A7FFB4F8D7
:10998000703C002B40F0CD8094F8721CD4F8740C1D
:1099900081F0010142F0B6FF4FF0FA0C4FF47A70FB
:1099A0004FF0010E7B68C3F30803002B7ED1EFF369
:1099B0001183002B7AD1A26AA968A36A9A42FAD1CC
:1099C000D4F8983C9942F6D8D4F8949C00FB09F35B
:1099D0005B1AB3FBF9F300FB02327B68C3F30803A5
:1099E0003BBBEFF3118323BBA36AD5F808A0A16AA0
:1099F0008B42F9D1D4F8981C8A45F5D8D4F8949CB8
:109A000000FB09F1A1EB0A01B1FBF9F100FB031323
:109A10009B1AB3F57A7FE0D3BCF1010CC2D10BF1F4
:109A2000FF365FFA86FBBBF1FF0F7FF444AFBDE862
:109A3000F88FEFF3118988F31288AE682B68DB0387
:109A400002D5C4F890ECAE68A36A5FFA89F9D4F83D
:109A5000901C89F31188D4F8949C0B4400FB09F105
:109A6000891BB1FBF9F100FB0313D1E7EFF3118E72
:109A700088F31288D5F808A02B68D90303D5C4F859
:109A800090CCD5F808A0A36A5FFA8EFED4F8901C9B
:109A90008EF31188D4F8946C0B4400FB06F1A1EB13
:109AA0000A01B1FBF6F100FB031359E7EFF3118153
:109AB00088F31288D5F808902B68DA0303D5C4F828
:109AC00090ECD5F80890A36AC9B2D4F8902C81F331
:109AD0001188D4F8941C1A4400FB01F3A3EB09038A
:109AE000B3FBF1F300FB023277E7EFF3118188F368
:109AF0001288AE682B68DB0302D5C4F890CCAE6840
:109B0000A36AC9B2D4F8902C81F31188D4F8941CBC
:109B10001A4400FB01F39B1BB3FBF1F300FB023281
:109B2000FFE6D4F88C3C002B3FF436AFD4F8783CF9
:109B3000C3F8009084F8899C2EE7D4F88C3C002B65
:109B40003FF4CCAE41F0C0FAC8E600BF582C01206B
:109B500000ED00E010E000E02DE9F84FB04C4FF0D0
:109B6000050BB04F4FF0100894F8601CD4F8680C47
:109B7000C1F34001AC4D42F0C5FE94F8601CD4F82E
:109B8000640CC94301F0010142F0BCFED4F8680C3A
:109B900042F09CFED4F8640C42F098FEB4F8703C9D
:109BA000002B40F0358194F8721CD4F8740C42F00C
:109BB000A9FE32264FF47A704FF0010C7B68C3F394
:109BC0000803002B40F0FA80EFF31183002B40F0E4
:109BD000F580A26AA968A36A9A42FAD1D4F8983C9F
:109BE0009942F6D8D4F894EC00FB0EF35B1AB3FB61
:109BF000FEF300FB02327B68C3F30803002B40F046
:109C00009E80EFF31183002B40F09980A36AD5F872
:109C100008A0A16A8B42F9D1D4F8981C8A45F5D8DE
:109C2000D4F894EC00FB0EF1A1EB0A01B1FBFEF1BC
:109C300000FB03139B1AB3F57A7FDCD3013EBDD141
:109C4000D4F8680C42F042FED4F8640C42F03EFEB8
:109C5000B4F8703C002B40F0D08094F8721CD4F81B
:109C6000740C81F0010142F04DFE4FF0320C4FF4C4
:109C70007A7001267B68C3F30803002B7FD1EFF3D2
:109C80001183002B7BD1A26AA968A36A9A42FAD1F8
:109C9000D4F8983C9942F6D8D4F8949C00FB09F388
:109CA0005B1AB3FBF9F300FB02327B68C3F30803D2
:109CB0002BBBEFF3118313BBA36AD5F808A0A16AED
:109CC0008B42F9D1D4F8981C8A45F5D8D4F8949CE5
:109CD00000FB09F1A1EB0A01B1FBF9F100FB031351
:109CE0009B1AB3F57A7FE0D3BCF1010CC2D10BF122
:109CF000FF3616F0FF0B7FF449AFBDE8F88FEFF3A6
:109D0000118988F31288D5F808A02B68DB0303D5E6
:109D1000C4F8906CD5F808A0A36A5FFA89F9D4F862
:109D2000901C89F31188D4F8949C0B4400FB09F132
:109D3000A1EB0A01B1FBF9F100FB0313D0E7EFF34C
:109D4000118E88F31288D5F808A02B68D90303D5A3
:109D5000C4F890CCD5F808A0A36A5FFA8EFED4F8B8
:109D6000901C8EF31188D4F894EC0B4400FB0EF198
:109D7000A1EB0A01B1FBFEF100FB03135AE7EFF37D
:109D8000118188F31288D5F808902B68DA0303D57F
:109D9000C4F8906CD5F80890A36AC9B2D4F8902C96
:109DA00081F31188D4F8941C1A4400FB01F3A3EB4F
:109DB0000903B3FBF1F300FB023276E7EFF3118105
:109DC00088F31288D5F808E02B68DB0303D5C4F8C4
:109DD00090CCD5F808E0A36AC9B2D4F8902C81F3EE
:109DE0001188D4F8941C1A4400FB01F3A3EB0E0372
:109DF000B3FBF1F300FB0232FDE6D4F88C3C002B00
:109E00003FF433AFD4F8783C1E6084F8896C2CE7BB
:109E1000D4F88C3C002B3FF4CCAE41F055F9C8E6A9
:109E2000582C012000ED00E010E000E02DE9F041A9
:109E3000D0F800E00C46DFF8588084B0DEF804501B
:109E40001746DFF850C0194605EA0805DDF82880F6
:109E5000064603932C43424644EA0C0CCEF804C059
:109E60000CF09CFB78B931680246039B30468F6248
:109E70004021CDF800800CF0C1FB003818BF012054
:109E800004B0BDE8F081012004B0BDE8F08100BF5E
:109E9000009800FC00200180F8B5134F04460D46E1
:109EA0000AE09B69DB0602D50CF038FBD0B9D7F885
:109EB0009C3C5B1B0A2B08D823682A460A212046B3
:109EC0009E69B606EDD50020F8BD636C2021002206
:109ED00001200B4384F84020636484F8411084F827
:109EE0004220F8BD0120F8BD582C012030B5037880
:109EF00083B004461546012B1DD0022B18D1C36830
:109F000041F080011BB19A88186812048261606870
:109F100058F078FA01232A460021606858F078F852
:109F2000E3688BB11A6801209B88936103B030BD50
:109F3000002003B030BD00920A46417990F9040038
:109F400058F0CCFF03B030BD0120F2E743090122F5
:109F500000F01F0084B0013B02FA00F0032B0BD885
:109F6000DFE803F015021E0C124B5A6C02435A64D0
:109F70005A6C10400090009B04B070470D4B1A6B58
:109F800002431A631A6B10400390039BF4E7094BDA
:109F90005A6B02435A635A6B10400290029BEBE7E4
:109FA000044B1A6C02431A641A6C10400190019B16
:109FB000E2E700BF0038024018B10022012142F060
:109FC00061BA704718B10022202142F05BBA704795
:109FD00058B183884FF00042B3FA83F332FA03F3A7
:109FE00003D002490A6813430B607047003C0140EC
:109FF000002800F08F80B0F804C0BCFA8CF3202B4E
:10A00000C3F11F0200F086806F4B2DE9F04F9D18C1
:10A01000DFF8E48185B0036808EB820095F8C4207E
:10A020000024DFF8D8E10192C0F8A01C674A02E0E2
:10A030000134102C65D04FF0010909FA04F10CEA43
:10A04000010531EA0C01F3D14FF0030A04FA09F7D4
:10A0500018684FF00F0B0AFA07F704EA0A0124F018
:10A06000030620EA0700890006F1804618600BFA13
:10A0700001F0D3F80CB006F59C362BEA0707DF6039
:10A08000DEF8447047F48047CEF84470DEF8447040
:10A0900007F480470397039FB76827EA00004C4FF7
:10A0A000BB421AD007F58067BB4234D0494FBB4250
:10A0B00035D0494FBB426BD0484FBB4271D0484F5F
:10A0C000BB4269D0474FBB4278D0474FBB420CBF21
:10A0D0000727082707FA01F10843B0600134116827
:10A0E000102C41EA05011160516821EA0501516017
:10A0F000916841EA05019160D16821EA0505D560C2
:10A1000099D1019B984498F8E03CF02B0CD805B00D
:10A11000BDE8F08F704709FA01F10843DDE7022737
:10A1200007FA01F10843D8E7F021304B264888F8B8
:10A13000E01CD968019AC1F302210244C1F1070071
:10A140000B1D92F8D440042892F9D42028BF042093
:10A15000062B4FF0FF338CBF033900218340002AC8
:10A160006FEA030303F0030303FA01F31EDB204845
:10A1700001211B0104F01F0485185209DBB201FA0A
:10A1800004F485F8003340F8224005B0BDE8F08FB4
:10A190000AFA01F10843A0E7052707FA01F108438D
:10A1A0009BE7042707FA01F1084396E704F00F0440
:10A1B0001B01104ADBB222441376A8E7062707FAF0
:10A1C00001F1084389E700BF58890608003C0140B7
:10A1D0000000024000080240000C02400010024053
:10A1E0000014024000180240001C024000ED00E094
:10A1F00000E100E0FCEC00E0582C012000380240B7
:10A2000010B4B8B10D4CD4F8E83C102B05D10521A1
:10A2100000205DF8044B40F02DBC03EB43022244C8
:10A2200082F8ED1C012182F8EC0C0B4482F8EE1C44
:10A23000C4F8E83C5DF8044B704700BF582C01207F
:10A240002DE9F04FD04C002387B004F61C5894F849
:10A25000302DC4F81C3DC8E90133C8E903331AB1F5
:10A2600094F8313D84F81C3D94F8323D1BB194F8CC
:10A27000333D84F82B3D94F8363D1BB194F8373DBF
:10A2800084F8263D94F8343D1BB194F8353D84F8AC
:10A29000213D94F8383D013B4FFA83FADBB2BAF125
:10A2A000FF3F029300F01381B022B849B84D00235C
:10A2B00002FB0A112E4605F12800DC311F469B46A1
:10A2C00001935EF09FF9039535785146284644F096
:10A2D0006DF88146002840F0FD8001370536042FD7
:10A2E000F2D194F8480D039DFFF730FE4FF4403251
:10A2F000A84E00230121C4F8502D3046D4F8442D37
:10A30000C4F868BDC4F8641DC4F85C1D84F87C1DE5
:10A31000C4F8543DC4F8743DC4F8783DC4F8583DC1
:10A3200084F86C3DC4F8703DC4F8603DC4F84C2D11
:10A33000FDF766FEBAF1000F40F0EB80019B83F061
:10A34000010919F0FF0F40F0E480A6F1080059F070
:10A35000A7FB012308F11408EA78002A40F03281B3
:10A360000535A845F8D104EB0A030299022093F9B8
:10A37000402D41F04FFF0546002800F0A88000273F
:10A38000406856F037FF06213A46DFF8248256F03F
:10A3900041FFBBF1010F4FF400638CBF4FF48061AC
:10A3A0003946D5E90102C4F8A41D4FF400554FF415
:10A3B0008071C4F8982DC4F8A83D4FF400320323EF
:10A3C000C4F8940D4046C4F89C7DC4F8BC3DC4F864
:10A3D000A07DC4F8B87DC4F8C07DC4F8C47DC4F8BD
:10A3E000AC5DC4F8B01DC4F8B42D0DF055F894F868
:10A3F000883DC4F8848D012B0597C4F8CC6D66D0D8
:10A400000123D4F84C5D84F8883DAB68DE0713D493
:10A41000D4F8B8336049AA68B3FBF1F342F0010203
:10A4200003EB4303AA600593059B2BB1059B013BFE
:10A430000593059B002BF9D1AB68D80747D5D4F815
:10A440008C2D564B134043F48073C4F88C3D6B68DD
:10A45000590507D5D4F88C3D23F4405343F4805379
:10A46000C4F88C3DD4F88C3D13F4805340F03C810B
:10A47000C4F8903D4A4800234A496FF02202C4F8CC
:10A48000D40D494884F8883D5B46C4F8D01D05F1D9
:10A490004C01C4F8E00D2A606E68444A46F08066BC
:10A4A00043486E60AE6846F48076AE600CF06CFF98
:10A4B000404B5A68D20640F02481D4F84C3D9A684B
:10A4C00012F0405F03D19A6842F080429A6007B070
:10A4D000BDE8F08F284642F0ABF8FB1D03210022B7
:10A4E000DBB2CDF8049008B18371C27142F086F8F6
:10A4F000307843F08DFF0BF1010386F802B05FFA6C
:10A5000083FB4FF00703707033714FF00103F3705A
:10A51000E3E6B0220021284848275EF0E5F8B022A3
:10A52000002125485EF0E0F8244B384684F8F87D99
:10A53000C4F8F43DFFF70AFD4FF440300023012139
:10A54000D4F8F42DC4F8000E1D48C4F8141EC4F845
:10A550000C1E84F82C1EC4F8043EC4F8243EC4F833
:10A56000283EC4F8083EC4F8183E84F81C3EC4F8DF
:10A57000203EC4F8103EC4F8FC2DFDF741FD0E4806
:10A5800059F08EFAE5E600BF582C012058890608DC
:10A5900074390120A439012040420F00FEF8FFFF6A
:10A5A0008D250108912501087D250108080100205D
:10A5B000EC390120002301404C3A012000200140E9
:10A5C000543A012094F8880D00215A1C2F79012853
:10A5D0000491D2B269783DD04FF00100092984F886
:10A5E000880D4ED94FF0030E6FF01D00D4F84CCDFE
:10A5F0004FF007091EFB0100DCF80CE009FA00F936
:10A6000007FA00F02EEA0907CCF80C70DCF80C70A1
:10A610003843CCF80C00062B4FF005001CD86FF027
:10A62000040710FB0373D4F84C7D1F2000FA03FCD1
:10A63000786B01FA03F320EA0C007863786B03432C
:10A640007B63D4F84C3D3E48834230D04FF000034A
:10A6500084F8883D134683E60C2B32D86FF022072E
:10A6600010FB0373D4F84C0D1F2707FA03FC076B8C
:10A6700001FA03F327EA0C070763076B3B43036305
:10A68000DFE7D4F84C0D01EB41094FF0070ED0F88D
:10A6900010C007FA09F70EFA09FE2CEA0E0CC0F8F2
:10A6A00010C0D0F810C047EA0C070761B3E71229C1
:10A6B00021D01129CAD123494B6843F400034B60D0
:10A6C000C4E76FF0400710FB0373D4F84C0D1F274D
:10A6D00007FA03FCC76A01FA03F327EA0C07C7620B
:10A6E000C76A3B43C362ACE7D4F8903D23F006034E
:10A6F000C4F8903DBEE613494B6843F480034B60B9
:10A70000A4E7D4F84C2D0E498A420DD05B68DB06D5
:10A710003FF5DDAE0C4B9A427FF4D9AE9A6812F049
:10A72000405F7FF4D4AECEE6936813F0405F03D170
:10A73000936843F080439360024B5B68C7E600BFB9
:10A740000020014000230140002201402DE9F0419A
:10A75000D0F800E00C46DFF8588084B0DEF80450F2
:10A760001746DFF850C0194605EA0805DDF82880CD
:10A77000064603932C43424644EA0C0CCEF804C030
:10A780000BF00CFF78B931680246039B30468F62AC
:10A790008021CDF800800BF031FF003818BF012078
:10A7A00004B0BDE8F081012004B0BDE8F08100BF35
:10A7B000009800FC002001810A4610B10E2141F0F2
:10A7C00061BE70470A4610B1022141F05BBE70477E
:10A7D000034690F83C00012800F03E810220F0B4CE
:10A7E000012483F83D0083F83C40142A45D8DFE873
:10A7F00012F04D004400440044007B00440044003B
:10A800004400DA00440044004400AA00440044002C
:10A810004400060144004400440015001A688E6894
:10A82000156A0F6825F48015AB4C1562106A5568DF
:10A8300020F40010D2F854C040EA0650A74E0CEAAB
:10A840000404B24244EA072400F0088106F5806659
:10A85000B24200F003814E6855605465D6651062BF
:10A86000506D0C6940F400605065506D20F48060BC
:10A870005065516D41EA04215165002201211046C5
:10A8800083F83D1083F83C20F0BC70471A68D1F87B
:10A8900008C0156A0F6825F00105914C1562106A11
:10A8A0005668956920F002002C408C4D40EA0C005F
:10A8B000AA4244EA070400F0DD8005F58065AA425B
:10A8C00000F0D8804D6856609461556310629069BD
:10A8D0000C6940F008009061906920F004009061DC
:10A8E000916921439161C8E71A68D1F808C0156AD7
:10A8F0000F6825F010057B4C1562106A5668956943
:10A9000020F020002C40754D40EA0C10AA4244EA89
:10A91000072400F0C38005F58065AA4200F0BE80E0
:10A920004D68566094619563106290690C6940F4BB
:10A9300000609061906920F480609061916941EAC3
:10A940000421916199E71A688E68156A0F6825F4E9
:10A950008055644C1562106A556820F40050D2F896
:10A960001CC040EA06305D4E0CEA0404B24244EAE0
:10A97000072400F08D8006F58066B24200F08880E2
:10A980004E685560D46116641062D0690C6940F459
:10A990000060D061D06920F48060D061D16941EA63
:10A9A0000421D16169E71A68D1F808C0156A0F68F7
:10A9B00025F480754A4C1562106A5668D56920F4F2
:10A9C00000702C40454D40EA0C20AA4244EA07049E
:10A9D00073D005F58065AA426FD04D685660D4618A
:10A9E000D5631062D0690C6940F00800D061D0696D
:10A9F00020F00400D061D1692143D1613DE71A689C
:10AA00008E68156A0F6825F48035374C1562106A18
:10AA1000556820F40030D2F854C040EA06402F4E6A
:10AA20000CEA0404B24244EA07041DD006F580662D
:10AA3000B24219D04E685560546596651062506DEB
:10AA40000C6940F008005065506D20F0040050651E
:10AA5000516D2143516510E70220704725F4802590
:10AA60004E6945EA8625F6E625F480354E6945EAC5
:10AA70000625DFE726F4407C20F008008E69CF68C9
:10AA80004D693843354320F0040045EA0C0619E7C8
:10AA900025F480454E6945EA861571E726F4406C39
:10AAA00020F080008E69CF684D6940EA0710354379
:10AAB00020F040004CEA850632E726F4405C20F4A2
:10AAC00000608E69CF684D6940EA0720354320F465
:10AAD00080604CEA051680E7FF8FFFFE0000014012
:10AAE0008CFFFEFFFF8CFFFE8FFFFEFF064B93F8EF
:10AAF000A42E002AFBD141F6082204499B5801F1FB
:10AB00000D001B68184700BF582C0120FF3A012098
:10AB100003680B4A23F04003904203600DD0094BB9
:10AB200098420AD01022036823F0380313430360CD
:10AB3000036843F04003036070470822F3E700BF57
:10AB400000380040003C00402DE9F0416B4C0023F0
:10AB50004FF4F0722021064604F6181084F81439D8
:10AB60005DF0C2FD04F6F8204FF4F07220215DF094
:10AB7000BBFD94F8D90C10B194F8DA2C1AB9002561
:10AB80002846BDE8F08141F053FD0746C4F8E80CC3
:10AB900041F08EFE05460028F1D00FB12323FB8043
:10ABA0000D21384641F02AFDD4F8E80C41F0A4FE0E
:10ABB00094F8DA0C524F013840B243F0ADF802235A
:10ABC0002021C4F8E00C84F8DC3C57F0D7F8B7F843
:10ABD0000E114C4842F0DEFFD4F8E80C41F086FE3E
:10ABE000FF218C2051F074FB8046D4F8E80C41F032
:10ABF00083FED4F8E00CFFF78BFFB8F11B0F05D0F4
:10AC0000D4F8E80C0025FFF7DDF9B9E70122D4F804
:10AC1000E83C84F814290BB12322DA80B7F80E112E
:10AC2000384842F0B7FFD4F8E80C41F05FFE40210D
:10AC30000A2051F04DFBFF218A2051F049FB0346C9
:10AC4000D4F8E80CC3F3801384F8EC3C41F054FED4
:10AC5000D4F8E00CFFF75CFF94F8D83C012B43D00C
:10AC6000022B39D0E3B394F8ED3C182B09D194F8BA
:10AC7000EC2CB7F80E31A4F8F06CA4F8F22CA4F880
:10AC8000F43CB7F80E111F4842F084FFB7F80E11DC
:10AC90001C4842F07FFFD4F8E80C41F027FE022167
:10ACA000002051F015FBD4F8E80C41F025FED4F853
:10ACB000E00CFFF72DFF94F8FD2C94F8FE3CC2F158
:10ACC000200294F8FC1CC3F1100384F8FF2C84F8D4
:10ACD000003D84F8F81C53E71023A7F80E31C2E7B3
:10ACE0002023A7F80E31BEE7002EF5D094F8EC3CF7
:10ACF000002B14BF10232023EFE700BF503D01209D
:10AD0000000001202C4A0120F8B5474E96F8014D6D
:10AD100004EB4403650006EBC30393F8043D032BE7
:10AD200077D8DFE803F0492A1F02254406EBC50562
:10AD3000D5F8083D002B6ED196F8642D944268D06A
:10AD4000013404F003018A4286F8011D61D001EB51
:10AD500041040222184606EBC404C4F8083D84F8F6
:10AD6000042DF8BD2B1906EBC303D3F8082D72B1DF
:10AD7000013A0020C3F8082DF8BD2B1906EBC303D8
:10AD8000D3F8082D002AF3D1022283F8042D25449C
:10AD900006EBC50595F8103D013BDBB285F8103D8B
:10ADA000F3B1224B0120D3F8102102F2E733B3FBB9
:10ADB000F2F3C5F8083DF8BD43F0EEF948B31B4A7D
:10ADC00042F20F732C440121D2F8102106EBC40487
:10ADD000134484F8041DB3FBF2F3C4F8083DF8BD36
:10ADE000124B601C0327D5F80C1DD3F810213840F6
:10ADF00096F8644D531E85F8047D001B0B4418BF64
:10AE000001209A42B3FBF2F188BF0020C5F8081D6B
:10AE100030B90120F8BD013B0020C5F8083DF8BD60
:10AE20000139C5F8081DF8BD503D01200000012082
:10AE300003689B0AA3F58013522B00D970470E4A72
:10AE4000134470B593F8EC4284B00D2C12D800294D
:10AE50004FF0000309494FF0010514BF1E460226BA
:10AE6000427901EB84106946CDE90065CDE90233F2
:10AE700009F092FB04B070BD58890608B84A012059
:10AE800033492DE9F84F91F8C5131C4601250746B3
:10AE90000229DFF8C4A0104619464FF00002DFF87F
:10AEA000BC9018BF7F02CAF82C50FDF753F9294A0D
:10AEB000630240F2FF5BC9F824204FF40075C9F823
:10AEC00028304FF48A62D9F82C30012110205E46D8
:10AED00043F09303C9F82C30C9F838B0C9F80850CA
:10AEE0004D46C9F80C2054F035F9012CC9F838B09A
:10AEF0004FF00A048CBF4FF052084FF051084FF04A
:10AF0000000939464046FDF7D7FE013C034640F2B2
:10AF1000774201213720E4B223B91846CAF8283015
:10AF2000BDE8F88FAE63C5F80890EA6054F012F9F6
:10AF3000AE6303460028F0D0002CE2D10028ECD00C
:10AF400000221846CAF82C20CAF82830BDE8F88F2D
:10AF5000582C012000E1F505601B0120002C014068
:10AF60002DE9F843DFF8748004460F46914698F8BF
:10AF7000A4551E46042D08D0082D02D00020BDE89F
:10AF8000F883FEF7E3F90228F8D101233A46204678
:10AF90000021FFF775FF68B1FEF768FAD8F88C4515
:10AFA000002CEBD00022D8F89035D8F88415104644
:10AFB000A047E3E7084A05230120C8F88075926A94
:10AFC000C8F88445C8F88C95C8F89065C8F89425E9
:10AFD00088F8A435BDE8F883582C0120601B0120B7
:10AFE0002B492DE9F04F91F8C5130124DFF8ACB0DF
:10AFF0000746022983B0CBF830409A4618BF470273
:10B00000012B4FF00A04234D40F2FF568CBF4FF046
:10B0100059084FF058084FF0000900923946404651
:10B02000FDF74AFE013C034640F2774201213720FA
:10B03000E4B2BBB90098514601220193164CFDF7CA
:10B0400089F814494FEA4A220020019B4C628A6227
:10B05000CA6A42F09102CA62CBF82800184603B0CF
:10B06000BDE8F08FAE63C5F80890EA6054F072F85E
:10B07000AE6303460028DDD0002CCFD10028D9D004
:10B0800000221846CBF8302003B0BDE8F08F00BF97
:10B09000582C0120002C014000E1F505601B012027
:10B0A0002DE9F84F05460E4690461F46394C94F858
:10B0B000A40504280CD0082807D1D4F89C35AB424D
:10B0C00006D0FEF743F90228F1D00120BDE8F88F41
:10B0D000DFF8C8A0C4F88065DAF8BC93C4F88455DA
:10B0E000C9F34F234FEA59220F2B2BD8D4F8A0B520
:10B0F000BBF1000F26D094F8F11519B3B9F5005F34
:10B1000041D025484FF40072314648445DF07AFA48
:10B1100009F50072C2F34F23CAF8BC23520A102B60
:10B1200031D0BBF1010F2ED0D4F89C250BF1FF33A9
:10B13000042102200132C4F8A03584F8A415C4F813
:10B140009C25C3E701234FF0010928460625324616
:10B150000021C4F88C85C4F8907584F8889584F82B
:10B16000A455FFF73DFF0028B0D0FEF77FF9D4F8D3
:10B170008C556DB14846D4F89035D4F8841500222A
:10B18000A8470320A2E792B2034E013AAD1ADAE7CC
:10B1900003209BE7601B0120E05C0120582C01206C
:10B1A0000378012B01D00020704790F90420084952
:10B1B00002EB420201EB421292F88510202901D0E5
:10B1C00018467047536C9869C0F3C030704700BF91
:10B1D000484E012010B50B4C94F8B031022B10D121
:10B1E000D4F8BC0141F088FBD4F8BC0108B121239C
:10B1F000C380FEF7E1FE10210348BDE8104042F095
:10B20000C9BC10BD484E0120F84F012073B50D4E4A
:10B210000546FF230C460A46014630468DF80730A6
:10B2200042F03EFD01230DF1070245F0800130465A
:10B2300042F01AFD9DF80700031B5842584102B026
:10B2400070BD00BFF84F012070B51B4C82B00E4698
:10B25000154694F8B031022B0FD0012B0AD11346BA
:10B260000091024694F8B51194F9B40157F036FEF6
:10B2700002B070BD002002B070BDD4F8BC311BB16B
:10B280009A88196812048A610146D4F8B40157F00B
:10B29000B9F82B4632460021D4F8B40156F0B8FE76
:10B2A000D4F8BC312BB11A6801209B88936102B09D
:10B2B00070BD0120DCE700BF484E01202DE9F04FB2
:10B2C000037883B00446022B00F08980012B04D060
:10B2D0000025284603B0BDE8F08F90F90400544ED5
:10B2E000042886F8F431D4BF00250125B0F1FF3FD2
:10B2F00008BF45F00105002DEAD100EB40024FEAFE
:10B30000400C06EB4212576C002FE1D092F885E01A
:10B31000BEF1200FDCD1BF6917F40047D8D192F8F5
:10B3200084E0BEF1010FD3D04FF04008DFF814E104
